{
  "transactions": [
    {
      "hash": "0x33cb205ca0148a71795721053744e197883fd7e363a19236df20d9d7dfc4767e",
      "transactionType": "CALL",
      "contractName": null,
      "contractAddress": "0xeddcb9a05bc9bc62334e2a6ae57883831c6c5786",
      "function": "mintPlayer(address,string,string)",
      "arguments": [
        "0xE122CA6C3413FbbF11a05F6DdBfC19d04EC407eD",
        "Puado",
        "Espanyol"
      ],
      "transaction": {
        "from": "0xe122ca6c3413fbbf11a05f6ddbfc19d04ec407ed",
        "to": "0xeddcb9a05bc9bc62334e2a6ae57883831c6c5786",
        "gas": "0x34b73",
        "value": "0x0",
        "input": "0x8636ec41000000000000000000000000e122ca6c3413fbbf11a05f6ddbfc19d04ec407ed000000000000000000000000000000000000000000000000000000000000006000000000000000000000000000000000000000000000000000000000000000a00000000000000000000000000000000000000000000000000000000000000005507561646f0000000000000000000000000000000000000000000000000000000000000000000000000000000000000000000000000000000000000000000008457370616e796f6c000000000000000000000000000000000000000000000000",
        "nonce": "0x77",
        "chainId": "0xaa36a7"
      },
      "additionalContracts": [],
      "isFixedGasLimit": false
    },
    {
      "hash": "0xe13b7fd2f87c4278afaa58ca98441407c368632dce3d2537d6412834e15ab6f8",
      "transactionType": "CALL",
      "contractName": null,
      "contractAddress": "0xeddcb9a05bc9bc62334e2a6ae57883831c6c5786",
      "function": "mintPlayer(address,string,string)",
      "arguments": [
        "0xE122CA6C3413FbbF11a05F6DdBfC19d04EC407eD",
        "Roberto",
        "Espanyol"
      ],
      "transaction": {
        "from": "0xe122ca6c3413fbbf11a05f6ddbfc19d04ec407ed",
        "to": "0xeddcb9a05bc9bc62334e2a6ae57883831c6c5786",
        "gas": "0x34b94",
        "value": "0x0",
        "input": "0x8636ec41000000000000000000000000e122ca6c3413fbbf11a05f6ddbfc19d04ec407ed000000000000000000000000000000000000000000000000000000000000006000000000000000000000000000000000000000000000000000000000000000a00000000000000000000000000000000000000000000000000000000000000007526f626572746f000000000000000000000000000000000000000000000000000000000000000000000000000000000000000000000000000000000000000008457370616e796f6c000000000000000000000000000000000000000000000000",
        "nonce": "0x78",
        "chainId": "0xaa36a7"
      },
      "additionalContracts": [],
      "isFixedGasLimit": false
    },
    {
      "hash": "0x990ad303d7d7a48a7df18d794fd06049bd00e7a37b70326b45b69679f8ed61e7",
      "transactionType": "CALL",
      "contractName": null,
      "contractAddress": "0xeddcb9a05bc9bc62334e2a6ae57883831c6c5786",
      "function": "mintPlayer(address,string,string)",
      "arguments": [
        "0xE122CA6C3413FbbF11a05F6DdBfC19d04EC407eD",
        "Cillessen",
        "Las Palmas"
      ],
      "transaction": {
        "from": "0xe122ca6c3413fbbf11a05f6ddbfc19d04ec407ed",
        "to": "0xeddcb9a05bc9bc62334e2a6ae57883831c6c5786",
        "gas": "0x34bd6",
        "value": "0x0",
        "input": "0x8636ec41000000000000000000000000e122ca6c3413fbbf11a05f6ddbfc19d04ec407ed000000000000000000000000000000000000000000000000000000000000006000000000000000000000000000000000000000000000000000000000000000a0000000000000000000000000000000000000000000000000000000000000000943696c6c657373656e0000000000000000000000000000000000000000000000000000000000000000000000000000000000000000000000000000000000000a4c61732050616c6d617300000000000000000000000000000000000000000000",
        "nonce": "0x79",
        "chainId": "0xaa36a7"
      },
      "additionalContracts": [],
      "isFixedGasLimit": false
    },
    {
      "hash": "0x58bf679663f0973b563a0f4682e3cba4437d923104a6ffde77becbf55759379e",
      "transactionType": "CALL",
      "contractName": null,
      "contractAddress": "0xeddcb9a05bc9bc62334e2a6ae57883831c6c5786",
      "function": "mintPlayer(address,string,string)",
      "arguments": [
        "0xE122CA6C3413FbbF11a05F6DdBfC19d04EC407eD",
        "Mckenna",
        "Las Palmas"
      ],
      "transaction": {
        "from": "0xe122ca6c3413fbbf11a05f6ddbfc19d04ec407ed",
        "to": "0xeddcb9a05bc9bc62334e2a6ae57883831c6c5786",
        "gas": "0x34bb5",
        "value": "0x0",
        "input": "0x8636ec41000000000000000000000000e122ca6c3413fbbf11a05f6ddbfc19d04ec407ed000000000000000000000000000000000000000000000000000000000000006000000000000000000000000000000000000000000000000000000000000000a000000000000000000000000000000000000000000000000000000000000000074d636b656e6e6100000000000000000000000000000000000000000000000000000000000000000000000000000000000000000000000000000000000000000a4c61732050616c6d617300000000000000000000000000000000000000000000",
        "nonce": "0x7a",
        "chainId": "0xaa36a7"
      },
      "additionalContracts": [],
      "isFixedGasLimit": false
    },
    {
      "hash": "0x1d0cf72e345f8457423b64a434bbb52c5b0804a4791721cf29b79396b23a15c7",
      "transactionType": "CALL",
      "contractName": null,
      "contractAddress": "0xeddcb9a05bc9bc62334e2a6ae57883831c6c5786",
      "function": "mintPlayer(address,string,string)",
      "arguments": [
        "0xE122CA6C3413FbbF11a05F6DdBfC19d04EC407eD",
        "Essugo",
        "Las Palmas"
      ],
      "transaction": {
        "from": "0xe122ca6c3413fbbf11a05f6ddbfc19d04ec407ed",
        "to": "0xeddcb9a05bc9bc62334e2a6ae57883831c6c5786",
        "gas": "0x37d45",
        "value": "0x0",
        "input": "0x8636ec41000000000000000000000000e122ca6c3413fbbf11a05f6ddbfc19d04ec407ed000000000000000000000000000000000000000000000000000000000000006000000000000000000000000000000000000000000000000000000000000000a0000000000000000000000000000000000000000000000000000000000000000645737375676f0000000000000000000000000000000000000000000000000000000000000000000000000000000000000000000000000000000000000000000a4c61732050616c6d617300000000000000000000000000000000000000000000",
        "nonce": "0x7b",
        "chainId": "0xaa36a7"
      },
      "additionalContracts": [],
      "isFixedGasLimit": false
    },
    {
      "hash": "0x81ea57038943213c13610e8e77584769655a1e816aca7019441d4b0485ecfa08",
      "transactionType": "CALL",
      "contractName": null,
      "contractAddress": "0xeddcb9a05bc9bc62334e2a6ae57883831c6c5786",
      "function": "mintPlayer(address,string,string)",
      "arguments": [
        "0xE122CA6C3413FbbF11a05F6DdBfC19d04EC407eD",
        "Sandro",
        "Las Palmas"
      ],
      "transaction": {
        "from": "0xe122ca6c3413fbbf11a05f6ddbfc19d04ec407ed",
        "to": "0xeddcb9a05bc9bc62334e2a6ae57883831c6c5786",
        "gas": "0x37d45",
        "value": "0x0",
        "input": "0x8636ec41000000000000000000000000e122ca6c3413fbbf11a05f6ddbfc19d04ec407ed000000000000000000000000000000000000000000000000000000000000006000000000000000000000000000000000000000000000000000000000000000a0000000000000000000000000000000000000000000000000000000000000000653616e64726f0000000000000000000000000000000000000000000000000000000000000000000000000000000000000000000000000000000000000000000a4c61732050616c6d617300000000000000000000000000000000000000000000",
        "nonce": "0x7c",
        "chainId": "0xaa36a7"
      },
      "additionalContracts": [],
      "isFixedGasLimit": false
    },
    {
      "hash": "0xe85bcc6d70e4b1a9328720aa18199a304602018d1eaabf3d2491a353dbfd46ee",
      "transactionType": "CALL",
      "contractName": null,
      "contractAddress": "0xeddcb9a05bc9bc62334e2a6ae57883831c6c5786",
      "function": "mintPlayer(address,string,string)",
      "arguments": [
        "0xE122CA6C3413FbbF11a05F6DdBfC19d04EC407eD",
        "Moleiro",
        "Las Palmas"
      ],
      "transaction": {
        "from": "0xe122ca6c3413fbbf11a05f6ddbfc19d04ec407ed",
        "to": "0xeddcb9a05bc9bc62334e2a6ae57883831c6c5786",
        "gas": "0x34bb5",
        "value": "0x0",
        "input": "0x8636ec41000000000000000000000000e122ca6c3413fbbf11a05f6ddbfc19d04ec407ed000000000000000000000000000000000000000000000000000000000000006000000000000000000000000000000000000000000000000000000000000000a000000000000000000000000000000000000000000000000000000000000000074d6f6c6569726f00000000000000000000000000000000000000000000000000000000000000000000000000000000000000000000000000000000000000000a4c61732050616c6d617300000000000000000000000000000000000000000000",
        "nonce": "0x7d",
        "chainId": "0xaa36a7"
      },
      "additionalContracts": [],
      "isFixedGasLimit": false
    },
    {
      "hash": "0x804b0a88303295c6006fc2d5bc6b9c122170dc72e2cb0f874ba7427bd04350ee",
      "transactionType": "CALL",
      "contractName": null,
      "contractAddress": "0xeddcb9a05bc9bc62334e2a6ae57883831c6c5786",
      "function": "mintPlayer(address,string,string)",
      "arguments": [
        "0xE122CA6C3413FbbF11a05F6DdBfC19d04EC407eD",
        "Fabio Silva",
        "Las Palmas"
      ],
      "transaction": {
        "from": "0xe122ca6c3413fbbf11a05f6ddbfc19d04ec407ed",
        "to": "0xeddcb9a05bc9bc62334e2a6ae57883831c6c5786",
        "gas": "0x34bf8",
        "value": "0x0",
        "input": "0x8636ec41000000000000000000000000e122ca6c3413fbbf11a05f6ddbfc19d04ec407ed000000000000000000000000000000000000000000000000000000000000006000000000000000000000000000000000000000000000000000000000000000a0000000000000000000000000000000000000000000000000000000000000000b466162696f2053696c7661000000000000000000000000000000000000000000000000000000000000000000000000000000000000000000000000000000000a4c61732050616c6d617300000000000000000000000000000000000000000000",
        "nonce": "0x7e",
        "chainId": "0xaa36a7"
      },
      "additionalContracts": [],
      "isFixedGasLimit": false
    },
    {
      "hash": "0x7f947e79532d6ff4d56501984daddfb75d31689c324746475d4e274911252cdb",
      "transactionType": "CALL",
      "contractName": null,
      "contractAddress": "0xeddcb9a05bc9bc62334e2a6ae57883831c6c5786",
      "function": "mintPlayer(address,string,string)",
      "arguments": [
        "0xE122CA6C3413FbbF11a05F6DdBfC19d04EC407eD",
        "Dimitrovic",
        "Leganes"
      ],
      "transaction": {
        "from": "0xe122ca6c3413fbbf11a05f6ddbfc19d04ec407ed",
        "to": "0xeddcb9a05bc9bc62334e2a6ae57883831c6c5786",
        "gas": "0x34bb5",
        "value": "0x0",
        "input": "0x8636ec41000000000000000000000000e122ca6c3413fbbf11a05f6ddbfc19d04ec407ed000000000000000000000000000000000000000000000000000000000000006000000000000000000000000000000000000000000000000000000000000000a0000000000000000000000000000000000000000000000000000000000000000a44696d6974726f7669630000000000000000000000000000000000000000000000000000000000000000000000000000000000000000000000000000000000074c6567616e657300000000000000000000000000000000000000000000000000",
        "nonce": "0x7f",
        "chainId": "0xaa36a7"
      },
      "additionalContracts": [],
      "isFixedGasLimit": false
    },
    {
      "hash": "0xc583ab55a2b59d013fae620c4cbe696d11fdf6907df0d120a7b616c5b2a64abf",
      "transactionType": "CALL",
      "contractName": null,
      "contractAddress": "0xeddcb9a05bc9bc62334e2a6ae57883831c6c5786",
      "function": "mintPlayer(address,string,string)",
      "arguments": [
        "0xE122CA6C3413FbbF11a05F6DdBfC19d04EC407eD",
        "Juan Cruz",
        "Leganes"
      ],
      "transaction": {
        "from": "0xe122ca6c3413fbbf11a05f6ddbfc19d04ec407ed",
        "to": "0xeddcb9a05bc9bc62334e2a6ae57883831c6c5786",
        "gas": "0x37d45",
        "value": "0x0",
        "input": "0x8636ec41000000000000000000000000e122ca6c3413fbbf11a05f6ddbfc19d04ec407ed000000000000000000000000000000000000000000000000000000000000006000000000000000000000000000000000000000000000000000000000000000a000000000000000000000000000000000000000000000000000000000000000094a75616e204372757a000000000000000000000000000000000000000000000000000000000000000000000000000000000000000000000000000000000000074c6567616e657300000000000000000000000000000000000000000000000000",
        "nonce": "0x80",
        "chainId": "0xaa36a7"
      },
      "additionalContracts": [],
      "isFixedGasLimit": false
    },
    {
      "hash": "0xdf2d562832faeae3153406928462d1c13f8741e153c23050d44d24f7bdfea44a",
      "transactionType": "CALL",
      "contractName": null,
      "contractAddress": "0xeddcb9a05bc9bc62334e2a6ae57883831c6c5786",
      "function": "mintPlayer(address,string,string)",
      "arguments": [
        "0xE122CA6C3413FbbF11a05F6DdBfC19d04EC407eD",
        "Rosier",
        "Leganes"
      ],
      "transaction": {
        "from": "0xe122ca6c3413fbbf11a05f6ddbfc19d04ec407ed",
        "to": "0xeddcb9a05bc9bc62334e2a6ae57883831c6c5786",
        "gas": "0x34b73",
        "value": "0x0",
        "input": "0x8636ec41000000000000000000000000e122ca6c3413fbbf11a05f6ddbfc19d04ec407ed000000000000000000000000000000000000000000000000000000000000006000000000000000000000000000000000000000000000000000000000000000a00000000000000000000000000000000000000000000000000000000000000006526f73696572000000000000000000000000000000000000000000000000000000000000000000000000000000000000000000000000000000000000000000074c6567616e657300000000000000000000000000000000000000000000000000",
        "nonce": "0x81",
        "chainId": "0xaa36a7"
      },
      "additionalContracts": [],
      "isFixedGasLimit": false
    },
    {
      "hash": "0xa7c72ec45ba60422d3e37aef8129a05e1e34fd1a85563fa2eadc1afc930ef2b8",
      "transactionType": "CALL",
      "contractName": null,
      "contractAddress": "0xeddcb9a05bc9bc62334e2a6ae57883831c6c5786",
      "function": "mintPlayer(address,string,string)",
      "arguments": [
        "0xE122CA6C3413FbbF11a05F6DdBfC19d04EC407eD",
        "Dani Raba",
        "Leganes"
      ],
      "transaction": {
        "from": "0xe122ca6c3413fbbf11a05f6ddbfc19d04ec407ed",
        "to": "0xeddcb9a05bc9bc62334e2a6ae57883831c6c5786",
        "gas": "0x37d45",
        "value": "0x0",
        "input": "0x8636ec41000000000000000000000000e122ca6c3413fbbf11a05f6ddbfc19d04ec407ed000000000000000000000000000000000000000000000000000000000000006000000000000000000000000000000000000000000000000000000000000000a0000000000000000000000000000000000000000000000000000000000000000944616e692052616261000000000000000000000000000000000000000000000000000000000000000000000000000000000000000000000000000000000000074c6567616e657300000000000000000000000000000000000000000000000000",
        "nonce": "0x82",
        "chainId": "0xaa36a7"
      },
      "additionalContracts": [],
      "isFixedGasLimit": false
    },
    {
      "hash": "0x36215873dbd8997f65256a423bdf3a908eef7f1cb980b9b184037783f753baae",
      "transactionType": "CALL",
      "contractName": null,
      "contractAddress": "0xeddcb9a05bc9bc62334e2a6ae57883831c6c5786",
      "function": "mintPlayer(address,string,string)",
      "arguments": [
        "0xE122CA6C3413FbbF11a05F6DdBfC19d04EC407eD",
        "Nastacic",
        "Leganes"
      ],
      "transaction": {
        "from": "0xe122ca6c3413fbbf11a05f6ddbfc19d04ec407ed",
        "to": "0xeddcb9a05bc9bc62334e2a6ae57883831c6c5786",
        "gas": "0x34b94",
        "value": "0x0",
        "input": "0x8636ec41000000000000000000000000e122ca6c3413fbbf11a05f6ddbfc19d04ec407ed000000000000000000000000000000000000000000000000000000000000006000000000000000000000000000000000000000000000000000000000000000a000000000000000000000000000000000000000000000000000000000000000084e6173746163696300000000000000000000000000000000000000000000000000000000000000000000000000000000000000000000000000000000000000074c6567616e657300000000000000000000000000000000000000000000000000",
        "nonce": "0x83",
        "chainId": "0xaa36a7"
      },
      "additionalContracts": [],
      "isFixedGasLimit": false
    },
    {
      "hash": "0xabb6633a2dcf7dc9eb5e4d2d81edc6d451137c8ef9267c038c13045cc49f55b6",
      "transactionType": "CALL",
      "contractName": null,
      "contractAddress": "0xeddcb9a05bc9bc62334e2a6ae57883831c6c5786",
      "function": "mintPlayer(address,string,string)",
      "arguments": [
        "0xE122CA6C3413FbbF11a05F6DdBfC19d04EC407eD",
        "Sivera",
        "Alaves"
      ],
      "transaction": {
        "from": "0xe122ca6c3413fbbf11a05f6ddbfc19d04ec407ed",
        "to": "0xeddcb9a05bc9bc62334e2a6ae57883831c6c5786",
        "gas": "0x37cff",
        "value": "0x0",
        "input": "0x8636ec41000000000000000000000000e122ca6c3413fbbf11a05f6ddbfc19d04ec407ed000000000000000000000000000000000000000000000000000000000000006000000000000000000000000000000000000000000000000000000000000000a0000000000000000000000000000000000000000000000000000000000000000653697665726100000000000000000000000000000000000000000000000000000000000000000000000000000000000000000000000000000000000000000006416c617665730000000000000000000000000000000000000000000000000000",
        "nonce": "0x84",
        "chainId": "0xaa36a7"
      },
      "additionalContracts": [],
      "isFixedGasLimit": false
    },
    {
      "hash": "0x6c412be0f15000a2431529ed8517315b64c9e584ab8d073aa8ab507027486db0",
      "transactionType": "CALL",
      "contractName": null,
      "contractAddress": "0xeddcb9a05bc9bc62334e2a6ae57883831c6c5786",
      "function": "mintPlayer(address,string,string)",
      "arguments": [
        "0xE122CA6C3413FbbF11a05F6DdBfC19d04EC407eD",
        "Tenaglia",
        "Alaves"
      ],
      "transaction": {
        "from": "0xe122ca6c3413fbbf11a05f6ddbfc19d04ec407ed",
        "to": "0xeddcb9a05bc9bc62334e2a6ae57883831c6c5786",
        "gas": "0x37d22",
        "value": "0x0",
        "input": "0x8636ec41000000000000000000000000e122ca6c3413fbbf11a05f6ddbfc19d04ec407ed000000000000000000000000000000000000000000000000000000000000006000000000000000000000000000000000000000000000000000000000000000a0000000000000000000000000000000000000000000000000000000000000000854656e61676c69610000000000000000000000000000000000000000000000000000000000000000000000000000000000000000000000000000000000000006416c617665730000000000000000000000000000000000000000000000000000",
        "nonce": "0x85",
        "chainId": "0xaa36a7"
      },
      "additionalContracts": [],
      "isFixedGasLimit": false
    },
    {
      "hash": "0xa48f7c45430eef64d402930dd16b5b8e3d6982ec087b0d2af9f209fd49abb009",
      "transactionType": "CALL",
      "contractName": null,
      "contractAddress": "0xeddcb9a05bc9bc62334e2a6ae57883831c6c5786",
      "function": "mintPlayer(address,string,string)",
      "arguments": [
        "0xE122CA6C3413FbbF11a05F6DdBfC19d04EC407eD",
        "Joan Jordan",
        "Alaves"
      ],
      "transaction": {
        "from": "0xe122ca6c3413fbbf11a05f6ddbfc19d04ec407ed",
        "to": "0xeddcb9a05bc9bc62334e2a6ae57883831c6c5786",
        "gas": "0x34bb5",
        "value": "0x0",
        "input": "0x8636ec41000000000000000000000000e122ca6c3413fbbf11a05f6ddbfc19d04ec407ed000000000000000000000000000000000000000000000000000000000000006000000000000000000000000000000000000000000000000000000000000000a0000000000000000000000000000000000000000000000000000000000000000b4a6f616e204a6f7264616e0000000000000000000000000000000000000000000000000000000000000000000000000000000000000000000000000000000006416c617665730000000000000000000000000000000000000000000000000000",
        "nonce": "0x86",
        "chainId": "0xaa36a7"
      },
      "additionalContracts": [],
      "isFixedGasLimit": false
    },
    {
      "hash": "0xc2da9e0bcd95d44f1dbe9571d48f2a54a9179d13baceee1408149eb7478d6ff2",
      "transactionType": "CALL",
      "contractName": null,
      "contractAddress": "0xeddcb9a05bc9bc62334e2a6ae57883831c6c5786",
      "function": "mintPlayer(address,string,string)",
      "arguments": [
        "0xE122CA6C3413FbbF11a05F6DdBfC19d04EC407eD",
        "Carlos Vicente",
        "Alaves"
      ],
      "transaction": {
        "from": "0xe122ca6c3413fbbf11a05f6ddbfc19d04ec407ed",
        "to": "0xeddcb9a05bc9bc62334e2a6ae57883831c6c5786",
        "gas": "0x37d8c",
        "value": "0x0",
        "input": "0x8636ec41000000000000000000000000e122ca6c3413fbbf11a05f6ddbfc19d04ec407ed000000000000000000000000000000000000000000000000000000000000006000000000000000000000000000000000000000000000000000000000000000a0000000000000000000000000000000000000000000000000000000000000000e4361726c6f7320566963656e74650000000000000000000000000000000000000000000000000000000000000000000000000000000000000000000000000006416c617665730000000000000000000000000000000000000000000000000000",
        "nonce": "0x87",
        "chainId": "0xaa36a7"
      },
      "additionalContracts": [],
      "isFixedGasLimit": false
    },
    {
      "hash": "0x37738847dbd07b67968ef33458b6defde48cf493c22bb6b6df8b13bfed4bf66f",
      "transactionType": "CALL",
      "contractName": null,
      "contractAddress": "0xeddcb9a05bc9bc62334e2a6ae57883831c6c5786",
      "function": "mintPlayer(address,string,string)",
      "arguments": [
        "0xE122CA6C3413FbbF11a05F6DdBfC19d04EC407eD",
        "Kike Garcia",
        "Alaves"
      ],
      "transaction": {
        "from": "0xe122ca6c3413fbbf11a05f6ddbfc19d04ec407ed",
        "to": "0xeddcb9a05bc9bc62334e2a6ae57883831c6c5786",
        "gas": "0x34bb5",
        "value": "0x0",
        "input": "0x8636ec41000000000000000000000000e122ca6c3413fbbf11a05f6ddbfc19d04ec407ed000000000000000000000000000000000000000000000000000000000000006000000000000000000000000000000000000000000000000000000000000000a0000000000000000000000000000000000000000000000000000000000000000b4b696b65204761726369610000000000000000000000000000000000000000000000000000000000000000000000000000000000000000000000000000000006416c617665730000000000000000000000000000000000000000000000000000",
        "nonce": "0x88",
        "chainId": "0xaa36a7"
      },
      "additionalContracts": [],
      "isFixedGasLimit": false
    },
    {
      "hash": "0x1fd9379b4b04b3331155a3c8301d3f4b656899c7b46b12878e8df618e6c68b30",
      "transactionType": "CALL",
      "contractName": null,
      "contractAddress": "0xeddcb9a05bc9bc62334e2a6ae57883831c6c5786",
      "function": "mintPlayer(address,string,string)",
      "arguments": [
        "0xE122CA6C3413FbbF11a05F6DdBfC19d04EC407eD",
        "Toni Martinez",
        "Alaves"
      ],
      "transaction": {
        "from": "0xe122ca6c3413fbbf11a05f6ddbfc19d04ec407ed",
        "to": "0xeddcb9a05bc9bc62334e2a6ae57883831c6c5786",
        "gas": "0x34bd6",
        "value": "0x0",
        "input": "0x8636ec41000000000000000000000000e122ca6c3413fbbf11a05f6ddbfc19d04ec407ed000000000000000000000000000000000000000000000000000000000000006000000000000000000000000000000000000000000000000000000000000000a0000000000000000000000000000000000000000000000000000000000000000d546f6e69204d617274696e657a000000000000000000000000000000000000000000000000000000000000000000000000000000000000000000000000000006416c617665730000000000000000000000000000000000000000000000000000",
        "nonce": "0x89",
        "chainId": "0xaa36a7"
      },
      "additionalContracts": [],
      "isFixedGasLimit": false
    },
    {
      "hash": "0xc47f57d6fcd9f36471cbde5e55d726225dd9b98c75de17426062be6a61d04fb6",
      "transactionType": "CALL",
      "contractName": null,
      "contractAddress": "0xeddcb9a05bc9bc62334e2a6ae57883831c6c5786",
      "function": "mintPlayer(address,string,string)",
      "arguments": [
        "0xE122CA6C3413FbbF11a05F6DdBfC19d04EC407eD",
        "Mamardashvilli",
        "Valencia"
      ],
      "transaction": {
        "from": "0xe122ca6c3413fbbf11a05f6ddbfc19d04ec407ed",
        "to": "0xeddcb9a05bc9bc62334e2a6ae57883831c6c5786",
        "gas": "0x37daf",
        "value": "0x0",
        "input": "0x8636ec41000000000000000000000000e122ca6c3413fbbf11a05f6ddbfc19d04ec407ed000000000000000000000000000000000000000000000000000000000000006000000000000000000000000000000000000000000000000000000000000000a0000000000000000000000000000000000000000000000000000000000000000e4d616d61726461736876696c6c69000000000000000000000000000000000000000000000000000000000000000000000000000000000000000000000000000856616c656e636961000000000000000000000000000000000000000000000000",
        "nonce": "0x8a",
        "chainId": "0xaa36a7"
      },
      "additionalContracts": [],
      "isFixedGasLimit": false
    }
  ],
  "receipts": [],
  "libraries": [
    "script/SavePlayers.s.sol:SavePlayers:0xaC8ae94Eac4809cdaAbD72eB2C0147d82b50AbD4"
  ],
  "pending": [
    "0x33cb205ca0148a71795721053744e197883fd7e363a19236df20d9d7dfc4767e",
    "0xe13b7fd2f87c4278afaa58ca98441407c368632dce3d2537d6412834e15ab6f8",
    "0x990ad303d7d7a48a7df18d794fd06049bd00e7a37b70326b45b69679f8ed61e7",
    "0x58bf679663f0973b563a0f4682e3cba4437d923104a6ffde77becbf55759379e",
    "0x1d0cf72e345f8457423b64a434bbb52c5b0804a4791721cf29b79396b23a15c7",
    "0x81ea57038943213c13610e8e77584769655a1e816aca7019441d4b0485ecfa08",
    "0xe85bcc6d70e4b1a9328720aa18199a304602018d1eaabf3d2491a353dbfd46ee",
    "0x804b0a88303295c6006fc2d5bc6b9c122170dc72e2cb0f874ba7427bd04350ee",
    "0x7f947e79532d6ff4d56501984daddfb75d31689c324746475d4e274911252cdb",
    "0xc583ab55a2b59d013fae620c4cbe696d11fdf6907df0d120a7b616c5b2a64abf",
    "0xdf2d562832faeae3153406928462d1c13f8741e153c23050d44d24f7bdfea44a",
    "0xa7c72ec45ba60422d3e37aef8129a05e1e34fd1a85563fa2eadc1afc930ef2b8",
    "0x36215873dbd8997f65256a423bdf3a908eef7f1cb980b9b184037783f753baae",
    "0xabb6633a2dcf7dc9eb5e4d2d81edc6d451137c8ef9267c038c13045cc49f55b6",
    "0x6c412be0f15000a2431529ed8517315b64c9e584ab8d073aa8ab507027486db0",
    "0xa48f7c45430eef64d402930dd16b5b8e3d6982ec087b0d2af9f209fd49abb009",
    "0xc2da9e0bcd95d44f1dbe9571d48f2a54a9179d13baceee1408149eb7478d6ff2",
    "0x37738847dbd07b67968ef33458b6defde48cf493c22bb6b6df8b13bfed4bf66f",
    "0x1fd9379b4b04b3331155a3c8301d3f4b656899c7b46b12878e8df618e6c68b30",
    "0xc47f57d6fcd9f36471cbde5e55d726225dd9b98c75de17426062be6a61d04fb6"
  ],
  "returns": {},
  "timestamp": 1745664136,
  "chain": 11155111,
  "commit": "fd8c9cd"
}