{
  "transactions": [
    {
      "hash": "0x84819d029659ff4d9fa5629d9569e6155abe34ed42b5d5bbd4b7537970bbd677",
      "transactionType": "CALL",
      "contractName": null,
      "contractAddress": "0xeddcb9a05bc9bc62334e2a6ae57883831c6c5786",
      "function": "mintPlayer(address,string,string)",
      "arguments": [
        "0xE122CA6C3413FbbF11a05F6DdBfC19d04EC407eD",
        "Sergi Cardona",
        "VillaReal"
      ],
      "transaction": {
        "from": "0xe122ca6c3413fbbf11a05f6ddbfc19d04ec407ed",
        "to": "0xeddcb9a05bc9bc62334e2a6ae57883831c6c5786",
        "gas": "0x37daf",
        "value": "0x0",
        "input": "0x8636ec41000000000000000000000000e122ca6c3413fbbf11a05f6ddbfc19d04ec407ed000000000000000000000000000000000000000000000000000000000000006000000000000000000000000000000000000000000000000000000000000000a0000000000000000000000000000000000000000000000000000000000000000d536572676920436172646f6e6100000000000000000000000000000000000000000000000000000000000000000000000000000000000000000000000000000956696c6c615265616c0000000000000000000000000000000000000000000000",
        "nonce": "0x3b",
        "chainId": "0xaa36a7"
      },
      "additionalContracts": [],
      "isFixedGasLimit": false
    },
    {
      "hash": "0x663ab31b73f2891768fe7ed16b27cabd47f340d289950da91c1bde95dd60cebe",
      "transactionType": "CALL",
      "contractName": null,
      "contractAddress": "0xeddcb9a05bc9bc62334e2a6ae57883831c6c5786",
      "function": "mintPlayer(address,string,string)",
      "arguments": [
        "0xE122CA6C3413FbbF11a05F6DdBfC19d04EC407eD",
        "Foyth",
        "VillaReal"
      ],
      "transaction": {
        "from": "0xe122ca6c3413fbbf11a05f6ddbfc19d04ec407ed",
        "to": "0xeddcb9a05bc9bc62334e2a6ae57883831c6c5786",
        "gas": "0x37d22",
        "value": "0x0",
        "input": "0x8636ec41000000000000000000000000e122ca6c3413fbbf11a05f6ddbfc19d04ec407ed000000000000000000000000000000000000000000000000000000000000006000000000000000000000000000000000000000000000000000000000000000a00000000000000000000000000000000000000000000000000000000000000005466f797468000000000000000000000000000000000000000000000000000000000000000000000000000000000000000000000000000000000000000000000956696c6c615265616c0000000000000000000000000000000000000000000000",
        "nonce": "0x3c",
        "chainId": "0xaa36a7"
      },
      "additionalContracts": [],
      "isFixedGasLimit": false
    },
    {
      "hash": "0x0dd6d6ba34e3831d62f7b0279cb06ff5127578fad0f8e47a7018d6dd8e2abfee",
      "transactionType": "CALL",
      "contractName": null,
      "contractAddress": "0xeddcb9a05bc9bc62334e2a6ae57883831c6c5786",
      "function": "mintPlayer(address,string,string)",
      "arguments": [
        "0xE122CA6C3413FbbF11a05F6DdBfC19d04EC407eD",
        "Alex Baena",
        "VillaReal"
      ],
      "transaction": {
        "from": "0xe122ca6c3413fbbf11a05f6ddbfc19d04ec407ed",
        "to": "0xeddcb9a05bc9bc62334e2a6ae57883831c6c5786",
        "gas": "0x34bd6",
        "value": "0x0",
        "input": "0x8636ec41000000000000000000000000e122ca6c3413fbbf11a05f6ddbfc19d04ec407ed000000000000000000000000000000000000000000000000000000000000006000000000000000000000000000000000000000000000000000000000000000a0000000000000000000000000000000000000000000000000000000000000000a416c6578204261656e6100000000000000000000000000000000000000000000000000000000000000000000000000000000000000000000000000000000000956696c6c615265616c0000000000000000000000000000000000000000000000",
        "nonce": "0x3d",
        "chainId": "0xaa36a7"
      },
      "additionalContracts": [],
      "isFixedGasLimit": false
    },
    {
      "hash": "0xf75b69c67a3fdc752fc062aa2586012feb5af47b898ed50e2652d3b97235378e",
      "transactionType": "CALL",
      "contractName": null,
      "contractAddress": "0xeddcb9a05bc9bc62334e2a6ae57883831c6c5786",
      "function": "mintPlayer(address,string,string)",
      "arguments": [
        "0xE122CA6C3413FbbF11a05F6DdBfC19d04EC407eD",
        "Ayoze Perez",
        "VillaReal"
      ],
      "transaction": {
        "from": "0xe122ca6c3413fbbf11a05f6ddbfc19d04ec407ed",
        "to": "0xeddcb9a05bc9bc62334e2a6ae57883831c6c5786",
        "gas": "0x37d8c",
        "value": "0x0",
        "input": "0x8636ec41000000000000000000000000e122ca6c3413fbbf11a05f6ddbfc19d04ec407ed000000000000000000000000000000000000000000000000000000000000006000000000000000000000000000000000000000000000000000000000000000a0000000000000000000000000000000000000000000000000000000000000000b41796f7a6520506572657a000000000000000000000000000000000000000000000000000000000000000000000000000000000000000000000000000000000956696c6c615265616c0000000000000000000000000000000000000000000000",
        "nonce": "0x3e",
        "chainId": "0xaa36a7"
      },
      "additionalContracts": [],
      "isFixedGasLimit": false
    },
    {
      "hash": "0x26f745ee28f1ee8eefb8eacd9f3d0aec4095c5c555dcebdf8c1a5de7738636b8",
      "transactionType": "CALL",
      "contractName": null,
      "contractAddress": "0xeddcb9a05bc9bc62334e2a6ae57883831c6c5786",
      "function": "mintPlayer(address,string,string)",
      "arguments": [
        "0xE122CA6C3413FbbF11a05F6DdBfC19d04EC407eD",
        "Batalla",
        "Rayo Vallecano"
      ],
      "transaction": {
        "from": "0xe122ca6c3413fbbf11a05f6ddbfc19d04ec407ed",
        "to": "0xeddcb9a05bc9bc62334e2a6ae57883831c6c5786",
        "gas": "0x34bf8",
        "value": "0x0",
        "input": "0x8636ec41000000000000000000000000e122ca6c3413fbbf11a05f6ddbfc19d04ec407ed000000000000000000000000000000000000000000000000000000000000006000000000000000000000000000000000000000000000000000000000000000a00000000000000000000000000000000000000000000000000000000000000007426174616c6c6100000000000000000000000000000000000000000000000000000000000000000000000000000000000000000000000000000000000000000e5261796f2056616c6c6563616e6f000000000000000000000000000000000000",
        "nonce": "0x3f",
        "chainId": "0xaa36a7"
      },
      "additionalContracts": [],
      "isFixedGasLimit": false
    },
    {
      "hash": "0x9e463dbdbfcca7118f7022546e9166de96cd0771fe6901a1a39005b1734bd4f7",
      "transactionType": "CALL",
      "contractName": null,
      "contractAddress": "0xeddcb9a05bc9bc62334e2a6ae57883831c6c5786",
      "function": "mintPlayer(address,string,string)",
      "arguments": [
        "0xE122CA6C3413FbbF11a05F6DdBfC19d04EC407eD",
        "Ratiu",
        "Rayo Vallecano"
      ],
      "transaction": {
        "from": "0xe122ca6c3413fbbf11a05f6ddbfc19d04ec407ed",
        "to": "0xeddcb9a05bc9bc62334e2a6ae57883831c6c5786",
        "gas": "0x34bd6",
        "value": "0x0",
        "input": "0x8636ec41000000000000000000000000e122ca6c3413fbbf11a05f6ddbfc19d04ec407ed000000000000000000000000000000000000000000000000000000000000006000000000000000000000000000000000000000000000000000000000000000a000000000000000000000000000000000000000000000000000000000000000055261746975000000000000000000000000000000000000000000000000000000000000000000000000000000000000000000000000000000000000000000000e5261796f2056616c6c6563616e6f000000000000000000000000000000000000",
        "nonce": "0x40",
        "chainId": "0xaa36a7"
      },
      "additionalContracts": [],
      "isFixedGasLimit": false
    },
    {
      "hash": "0x1409886445055f6e46fb5f4aa1e2ab8a44e80475a900894523ebaffa1317f849",
      "transactionType": "CALL",
      "contractName": null,
      "contractAddress": "0xeddcb9a05bc9bc62334e2a6ae57883831c6c5786",
      "function": "mintPlayer(address,string,string)",
      "arguments": [
        "0xE122CA6C3413FbbF11a05F6DdBfC19d04EC407eD",
        "Isi Palazon",
        "Rayo Vallecano"
      ],
      "transaction": {
        "from": "0xe122ca6c3413fbbf11a05f6ddbfc19d04ec407ed",
        "to": "0xeddcb9a05bc9bc62334e2a6ae57883831c6c5786",
        "gas": "0x34c3a",
        "value": "0x0",
        "input": "0x8636ec41000000000000000000000000e122ca6c3413fbbf11a05f6ddbfc19d04ec407ed000000000000000000000000000000000000000000000000000000000000006000000000000000000000000000000000000000000000000000000000000000a0000000000000000000000000000000000000000000000000000000000000000b4973692050616c617a6f6e000000000000000000000000000000000000000000000000000000000000000000000000000000000000000000000000000000000e5261796f2056616c6c6563616e6f000000000000000000000000000000000000",
        "nonce": "0x41",
        "chainId": "0xaa36a7"
      },
      "additionalContracts": [],
      "isFixedGasLimit": false
    },
    {
      "hash": "0xf51b7fcf68e61dca50c902193f95111c1d5378a06a941f446d6c35b75b25969d",
      "transactionType": "CALL",
      "contractName": null,
      "contractAddress": "0xeddcb9a05bc9bc62334e2a6ae57883831c6c5786",
      "function": "mintPlayer(address,string,string)",
      "arguments": [
        "0xE122CA6C3413FbbF11a05F6DdBfC19d04EC407eD",
        "Lejeune",
        "Rayo Vallecano"
      ],
      "transaction": {
        "from": "0xe122ca6c3413fbbf11a05f6ddbfc19d04ec407ed",
        "to": "0xeddcb9a05bc9bc62334e2a6ae57883831c6c5786",
        "gas": "0x34bf8",
        "value": "0x0",
        "input": "0x8636ec41000000000000000000000000e122ca6c3413fbbf11a05f6ddbfc19d04ec407ed000000000000000000000000000000000000000000000000000000000000006000000000000000000000000000000000000000000000000000000000000000a000000000000000000000000000000000000000000000000000000000000000074c656a65756e6500000000000000000000000000000000000000000000000000000000000000000000000000000000000000000000000000000000000000000e5261796f2056616c6c6563616e6f000000000000000000000000000000000000",
        "nonce": "0x42",
        "chainId": "0xaa36a7"
      },
      "additionalContracts": [],
      "isFixedGasLimit": false
    },
    {
      "hash": "0xc72cd110ae5e1ffbc67822d5aa956a50e955b90324eab9a4382ba2d83475097a",
      "transactionType": "CALL",
      "contractName": null,
      "contractAddress": "0xeddcb9a05bc9bc62334e2a6ae57883831c6c5786",
      "function": "mintPlayer(address,string,string)",
      "arguments": [
        "0xE122CA6C3413FbbF11a05F6DdBfC19d04EC407eD",
        "De Frutos",
        "Rayo Vallecano"
      ],
      "transaction": {
        "from": "0xe122ca6c3413fbbf11a05f6ddbfc19d04ec407ed",
        "to": "0xeddcb9a05bc9bc62334e2a6ae57883831c6c5786",
        "gas": "0x34c18",
        "value": "0x0",
        "input": "0x8636ec41000000000000000000000000e122ca6c3413fbbf11a05f6ddbfc19d04ec407ed000000000000000000000000000000000000000000000000000000000000006000000000000000000000000000000000000000000000000000000000000000a00000000000000000000000000000000000000000000000000000000000000009446520467275746f730000000000000000000000000000000000000000000000000000000000000000000000000000000000000000000000000000000000000e5261796f2056616c6c6563616e6f000000000000000000000000000000000000",
        "nonce": "0x43",
        "chainId": "0xaa36a7"
      },
      "additionalContracts": [],
      "isFixedGasLimit": false
    },
    {
      "hash": "0xf5f407fa94e70f3d6310aced141552772c98761b52a91d9153547ce39ef97795",
      "transactionType": "CALL",
      "contractName": null,
      "contractAddress": "0xeddcb9a05bc9bc62334e2a6ae57883831c6c5786",
      "function": "mintPlayer(address,string,string)",
      "arguments": [
        "0xE122CA6C3413FbbF11a05F6DdBfC19d04EC407eD",
        "Adrian",
        "Betis"
      ],
      "transaction": {
        "from": "0xe122ca6c3413fbbf11a05f6ddbfc19d04ec407ed",
        "to": "0xeddcb9a05bc9bc62334e2a6ae57883831c6c5786",
        "gas": "0x34b51",
        "value": "0x0",
        "input": "0x8636ec41000000000000000000000000e122ca6c3413fbbf11a05f6ddbfc19d04ec407ed000000000000000000000000000000000000000000000000000000000000006000000000000000000000000000000000000000000000000000000000000000a0000000000000000000000000000000000000000000000000000000000000000641647269616e000000000000000000000000000000000000000000000000000000000000000000000000000000000000000000000000000000000000000000054265746973000000000000000000000000000000000000000000000000000000",
        "nonce": "0x44",
        "chainId": "0xaa36a7"
      },
      "additionalContracts": [],
      "isFixedGasLimit": false
    },
    {
      "hash": "0x1a75d1aad2742d14fda46d6f3610fe1a622bc2299b5db79e9630cbcc8342f473",
      "transactionType": "CALL",
      "contractName": null,
      "contractAddress": "0xeddcb9a05bc9bc62334e2a6ae57883831c6c5786",
      "function": "mintPlayer(address,string,string)",
      "arguments": [
        "0xE122CA6C3413FbbF11a05F6DdBfC19d04EC407eD",
        "Llorente",
        "Betis"
      ],
      "transaction": {
        "from": "0xe122ca6c3413fbbf11a05f6ddbfc19d04ec407ed",
        "to": "0xeddcb9a05bc9bc62334e2a6ae57883831c6c5786",
        "gas": "0x34b73",
        "value": "0x0",
        "input": "0x8636ec41000000000000000000000000e122ca6c3413fbbf11a05f6ddbfc19d04ec407ed000000000000000000000000000000000000000000000000000000000000006000000000000000000000000000000000000000000000000000000000000000a000000000000000000000000000000000000000000000000000000000000000084c6c6f72656e746500000000000000000000000000000000000000000000000000000000000000000000000000000000000000000000000000000000000000054265746973000000000000000000000000000000000000000000000000000000",
        "nonce": "0x45",
        "chainId": "0xaa36a7"
      },
      "additionalContracts": [],
      "isFixedGasLimit": false
    },
    {
      "hash": "0x2bf7547b8d592aba0c3e0a4c6537eaa2695b915ced46e3c92e297048319294cb",
      "transactionType": "CALL",
      "contractName": null,
      "contractAddress": "0xeddcb9a05bc9bc62334e2a6ae57883831c6c5786",
      "function": "mintPlayer(address,string,string)",
      "arguments": [
        "0xE122CA6C3413FbbF11a05F6DdBfC19d04EC407eD",
        "Isco",
        "Betis"
      ],
      "transaction": {
        "from": "0xe122ca6c3413fbbf11a05f6ddbfc19d04ec407ed",
        "to": "0xeddcb9a05bc9bc62334e2a6ae57883831c6c5786",
        "gas": "0x34b31",
        "value": "0x0",
        "input": "0x8636ec41000000000000000000000000e122ca6c3413fbbf11a05f6ddbfc19d04ec407ed000000000000000000000000000000000000000000000000000000000000006000000000000000000000000000000000000000000000000000000000000000a000000000000000000000000000000000000000000000000000000000000000044973636f0000000000000000000000000000000000000000000000000000000000000000000000000000000000000000000000000000000000000000000000054265746973000000000000000000000000000000000000000000000000000000",
        "nonce": "0x46",
        "chainId": "0xaa36a7"
      },
      "additionalContracts": [],
      "isFixedGasLimit": false
    },
    {
      "hash": "0x21ad27633d41cbb48a04168cbf25f4d2b9f0364cc56b31de28f5eb47db270413",
      "transactionType": "CALL",
      "contractName": null,
      "contractAddress": "0xeddcb9a05bc9bc62334e2a6ae57883831c6c5786",
      "function": "mintPlayer(address,string,string)",
      "arguments": [
        "0xE122CA6C3413FbbF11a05F6DdBfC19d04EC407eD",
        "Anthony",
        "Betis"
      ],
      "transaction": {
        "from": "0xe122ca6c3413fbbf11a05f6ddbfc19d04ec407ed",
        "to": "0xeddcb9a05bc9bc62334e2a6ae57883831c6c5786",
        "gas": "0x37cff",
        "value": "0x0",
        "input": "0x8636ec41000000000000000000000000e122ca6c3413fbbf11a05f6ddbfc19d04ec407ed000000000000000000000000000000000000000000000000000000000000006000000000000000000000000000000000000000000000000000000000000000a00000000000000000000000000000000000000000000000000000000000000007416e74686f6e790000000000000000000000000000000000000000000000000000000000000000000000000000000000000000000000000000000000000000054265746973000000000000000000000000000000000000000000000000000000",
        "nonce": "0x47",
        "chainId": "0xaa36a7"
      },
      "additionalContracts": [],
      "isFixedGasLimit": false
    },
    {
      "hash": "0xbd7127340b19109f17c04c3d081f407414352897ae0904d8c370c9c41abcb252",
      "transactionType": "CALL",
      "contractName": null,
      "contractAddress": "0xeddcb9a05bc9bc62334e2a6ae57883831c6c5786",
      "function": "mintPlayer(address,string,string)",
      "arguments": [
        "0xE122CA6C3413FbbF11a05F6DdBfC19d04EC407eD",
        "Jesus Rodriguez",
        "Betis"
      ],
      "transaction": {
        "from": "0xe122ca6c3413fbbf11a05f6ddbfc19d04ec407ed",
        "to": "0xeddcb9a05bc9bc62334e2a6ae57883831c6c5786",
        "gas": "0x37d8c",
        "value": "0x0",
        "input": "0x8636ec41000000000000000000000000e122ca6c3413fbbf11a05f6ddbfc19d04ec407ed000000000000000000000000000000000000000000000000000000000000006000000000000000000000000000000000000000000000000000000000000000a0000000000000000000000000000000000000000000000000000000000000000f4a6573757320526f6472696775657a000000000000000000000000000000000000000000000000000000000000000000000000000000000000000000000000054265746973000000000000000000000000000000000000000000000000000000",
        "nonce": "0x48",
        "chainId": "0xaa36a7"
      },
      "additionalContracts": [],
      "isFixedGasLimit": false
    },
    {
      "hash": "0x04e99f5bc198067ac2c65d3714fd97621aa305621b530fa6eda97ad5abb7e2e3",
      "transactionType": "CALL",
      "contractName": null,
      "contractAddress": "0xeddcb9a05bc9bc62334e2a6ae57883831c6c5786",
      "function": "mintPlayer(address,string,string)",
      "arguments": [
        "0xE122CA6C3413FbbF11a05F6DdBfC19d04EC407eD",
        "Greif",
        "Mallorca"
      ],
      "transaction": {
        "from": "0xe122ca6c3413fbbf11a05f6ddbfc19d04ec407ed",
        "to": "0xeddcb9a05bc9bc62334e2a6ae57883831c6c5786",
        "gas": "0x34b73",
        "value": "0x0",
        "input": "0x8636ec41000000000000000000000000e122ca6c3413fbbf11a05f6ddbfc19d04ec407ed000000000000000000000000000000000000000000000000000000000000006000000000000000000000000000000000000000000000000000000000000000a00000000000000000000000000000000000000000000000000000000000000005477265696600000000000000000000000000000000000000000000000000000000000000000000000000000000000000000000000000000000000000000000084d616c6c6f726361000000000000000000000000000000000000000000000000",
        "nonce": "0x49",
        "chainId": "0xaa36a7"
      },
      "additionalContracts": [],
      "isFixedGasLimit": false
    },
    {
      "hash": "0xa4885538071fb123d3f9c0309b4319d6bed0deee203059f5eb8e31e0731c59f1",
      "transactionType": "CALL",
      "contractName": null,
      "contractAddress": "0xeddcb9a05bc9bc62334e2a6ae57883831c6c5786",
      "function": "mintPlayer(address,string,string)",
      "arguments": [
        "0xE122CA6C3413FbbF11a05F6DdBfC19d04EC407eD",
        "Maffeo",
        "Mallorca"
      ],
      "transaction": {
        "from": "0xe122ca6c3413fbbf11a05f6ddbfc19d04ec407ed",
        "to": "0xeddcb9a05bc9bc62334e2a6ae57883831c6c5786",
        "gas": "0x37d22",
        "value": "0x0",
        "input": "0x8636ec41000000000000000000000000e122ca6c3413fbbf11a05f6ddbfc19d04ec407ed000000000000000000000000000000000000000000000000000000000000006000000000000000000000000000000000000000000000000000000000000000a000000000000000000000000000000000000000000000000000000000000000064d616666656f000000000000000000000000000000000000000000000000000000000000000000000000000000000000000000000000000000000000000000084d616c6c6f726361000000000000000000000000000000000000000000000000",
        "nonce": "0x4a",
        "chainId": "0xaa36a7"
      },
      "additionalContracts": [],
      "isFixedGasLimit": false
    },
    {
      "hash": "0xcac1f44d874110a2f4aeecc8f133725301aaaa54b09adf81b9957b7064de47e9",
      "transactionType": "CALL",
      "contractName": null,
      "contractAddress": "0xeddcb9a05bc9bc62334e2a6ae57883831c6c5786",
      "function": "mintPlayer(address,string,string)",
      "arguments": [
        "0xE122CA6C3413FbbF11a05F6DdBfC19d04EC407eD",
        "Mojica",
        "Mallorca"
      ],
      "transaction": {
        "from": "0xe122ca6c3413fbbf11a05f6ddbfc19d04ec407ed",
        "to": "0xeddcb9a05bc9bc62334e2a6ae57883831c6c5786",
        "gas": "0x37d22",
        "value": "0x0",
        "input": "0x8636ec41000000000000000000000000e122ca6c3413fbbf11a05f6ddbfc19d04ec407ed000000000000000000000000000000000000000000000000000000000000006000000000000000000000000000000000000000000000000000000000000000a000000000000000000000000000000000000000000000000000000000000000064d6f6a696361000000000000000000000000000000000000000000000000000000000000000000000000000000000000000000000000000000000000000000084d616c6c6f726361000000000000000000000000000000000000000000000000",
        "nonce": "0x4b",
        "chainId": "0xaa36a7"
      },
      "additionalContracts": [],
      "isFixedGasLimit": false
    },
    {
      "hash": "0xdd82cb0f7cc554357a9ab3f16d59c993224785409277554588549fe7f9cb3c9d",
      "transactionType": "CALL",
      "contractName": null,
      "contractAddress": "0xeddcb9a05bc9bc62334e2a6ae57883831c6c5786",
      "function": "mintPlayer(address,string,string)",
      "arguments": [
        "0xE122CA6C3413FbbF11a05F6DdBfC19d04EC407eD",
        "Dani Rodriguez",
        "Mallorca"
      ],
      "transaction": {
        "from": "0xe122ca6c3413fbbf11a05f6ddbfc19d04ec407ed",
        "to": "0xeddcb9a05bc9bc62334e2a6ae57883831c6c5786",
        "gas": "0x37daf",
        "value": "0x0",
        "input": "0x8636ec41000000000000000000000000e122ca6c3413fbbf11a05f6ddbfc19d04ec407ed000000000000000000000000000000000000000000000000000000000000006000000000000000000000000000000000000000000000000000000000000000a0000000000000000000000000000000000000000000000000000000000000000e44616e6920526f6472696775657a00000000000000000000000000000000000000000000000000000000000000000000000000000000000000000000000000084d616c6c6f726361000000000000000000000000000000000000000000000000",
        "nonce": "0x4c",
        "chainId": "0xaa36a7"
      },
      "additionalContracts": [],
      "isFixedGasLimit": false
    },
    {
      "hash": "0xa7842a202c7b71b4c0ae55fc441b58e80b47d267bbc1a4c774ebe17602d8f177",
      "transactionType": "CALL",
      "contractName": null,
      "contractAddress": "0xeddcb9a05bc9bc62334e2a6ae57883831c6c5786",
      "function": "mintPlayer(address,string,string)",
      "arguments": [
        "0xE122CA6C3413FbbF11a05F6DdBfC19d04EC407eD",
        "Muriqi",
        "Mallorca"
      ],
      "transaction": {
        "from": "0xe122ca6c3413fbbf11a05f6ddbfc19d04ec407ed",
        "to": "0xeddcb9a05bc9bc62334e2a6ae57883831c6c5786",
        "gas": "0x37d22",
        "value": "0x0",
        "input": "0x8636ec41000000000000000000000000e122ca6c3413fbbf11a05f6ddbfc19d04ec407ed000000000000000000000000000000000000000000000000000000000000006000000000000000000000000000000000000000000000000000000000000000a000000000000000000000000000000000000000000000000000000000000000064d7572697169000000000000000000000000000000000000000000000000000000000000000000000000000000000000000000000000000000000000000000084d616c6c6f726361000000000000000000000000000000000000000000000000",
        "nonce": "0x4d",
        "chainId": "0xaa36a7"
      },
      "additionalContracts": [],
      "isFixedGasLimit": false
    },
    {
      "hash": "0x0e85849d37ca6af0d0e53dcb0c2e02badd8b4bc2e64e572ebf24fbeedf061005",
      "transactionType": "CALL",
      "contractName": null,
      "contractAddress": "0xeddcb9a05bc9bc62334e2a6ae57883831c6c5786",
      "function": "mintPlayer(address,string,string)",
      "arguments": [
        "0xE122CA6C3413FbbF11a05F6DdBfC19d04EC407eD",
        "Darder",
        "Mallorca"
      ],
      "transaction": {
        "from": "0xe122ca6c3413fbbf11a05f6ddbfc19d04ec407ed",
        "to": "0xeddcb9a05bc9bc62334e2a6ae57883831c6c5786",
        "gas": "0x37d22",
        "value": "0x0",
        "input": "0x8636ec41000000000000000000000000e122ca6c3413fbbf11a05f6ddbfc19d04ec407ed000000000000000000000000000000000000000000000000000000000000006000000000000000000000000000000000000000000000000000000000000000a00000000000000000000000000000000000000000000000000000000000000006446172646572000000000000000000000000000000000000000000000000000000000000000000000000000000000000000000000000000000000000000000084d616c6c6f726361000000000000000000000000000000000000000000000000",
        "nonce": "0x4e",
        "chainId": "0xaa36a7"
      },
      "additionalContracts": [],
      "isFixedGasLimit": false
    }
  ],
  "receipts": [],
  "libraries": [
    "script/SavePlayers.s.sol:SavePlayers:0xaC8ae94Eac4809cdaAbD72eB2C0147d82b50AbD4"
  ],
  "pending": [
    "0x84819d029659ff4d9fa5629d9569e6155abe34ed42b5d5bbd4b7537970bbd677",
    "0x663ab31b73f2891768fe7ed16b27cabd47f340d289950da91c1bde95dd60cebe",
    "0x0dd6d6ba34e3831d62f7b0279cb06ff5127578fad0f8e47a7018d6dd8e2abfee",
    "0xf75b69c67a3fdc752fc062aa2586012feb5af47b898ed50e2652d3b97235378e",
    "0x26f745ee28f1ee8eefb8eacd9f3d0aec4095c5c555dcebdf8c1a5de7738636b8",
    "0x9e463dbdbfcca7118f7022546e9166de96cd0771fe6901a1a39005b1734bd4f7",
    "0x1409886445055f6e46fb5f4aa1e2ab8a44e80475a900894523ebaffa1317f849",
    "0xf51b7fcf68e61dca50c902193f95111c1d5378a06a941f446d6c35b75b25969d",
    "0xc72cd110ae5e1ffbc67822d5aa956a50e955b90324eab9a4382ba2d83475097a",
    "0xf5f407fa94e70f3d6310aced141552772c98761b52a91d9153547ce39ef97795",
    "0x1a75d1aad2742d14fda46d6f3610fe1a622bc2299b5db79e9630cbcc8342f473",
    "0x2bf7547b8d592aba0c3e0a4c6537eaa2695b915ced46e3c92e297048319294cb",
    "0x21ad27633d41cbb48a04168cbf25f4d2b9f0364cc56b31de28f5eb47db270413",
    "0xbd7127340b19109f17c04c3d081f407414352897ae0904d8c370c9c41abcb252",
    "0x04e99f5bc198067ac2c65d3714fd97621aa305621b530fa6eda97ad5abb7e2e3",
    "0xa4885538071fb123d3f9c0309b4319d6bed0deee203059f5eb8e31e0731c59f1",
    "0xcac1f44d874110a2f4aeecc8f133725301aaaa54b09adf81b9957b7064de47e9",
    "0xdd82cb0f7cc554357a9ab3f16d59c993224785409277554588549fe7f9cb3c9d",
    "0xa7842a202c7b71b4c0ae55fc441b58e80b47d267bbc1a4c774ebe17602d8f177",
    "0x0e85849d37ca6af0d0e53dcb0c2e02badd8b4bc2e64e572ebf24fbeedf061005"
  ],
  "returns": {},
  "timestamp": 1745662769,
  "chain": 11155111,
  "commit": "fd8c9cd"
}