{
  "transactions": [
    {
      "hash": "0xa31b8956bf9bae956c6e079105ac799363178e1c476263a8df76b872713e6993",
      "transactionType": "CALL",
      "contractName": null,
      "contractAddress": "0xeddcb9a05bc9bc62334e2a6ae57883831c6c5786",
      "function": "mintPlayer(address,string,string)",
      "arguments": [
        "0xE122CA6C3413FbbF11a05F6DdBfC19d04EC407eD",
        "Alaba",
        "Real Madrid"
      ],
      "transaction": {
        "from": "0xe122ca6c3413fbbf11a05f6ddbfc19d04ec407ed",
        "to": "0xeddcb9a05bc9bc62334e2a6ae57883831c6c5786",
        "gas": "0x37d45",
        "value": "0x0",
        "input": "0x8636ec41000000000000000000000000e122ca6c3413fbbf11a05f6ddbfc19d04ec407ed000000000000000000000000000000000000000000000000000000000000006000000000000000000000000000000000000000000000000000000000000000a00000000000000000000000000000000000000000000000000000000000000005416c616261000000000000000000000000000000000000000000000000000000000000000000000000000000000000000000000000000000000000000000000b5265616c204d6164726964000000000000000000000000000000000000000000",
        "nonce": "0x27",
        "chainId": "0xaa36a7"
      },
      "additionalContracts": [],
      "isFixedGasLimit": false
    },
    {
      "hash": "0xfa6863b4c95801f0c2cb5bc394660102d904e7b14a0bc6a1ec04a4ec2f5cb218",
      "transactionType": "CALL",
      "contractName": null,
      "contractAddress": "0xeddcb9a05bc9bc62334e2a6ae57883831c6c5786",
      "function": "mintPlayer(address,string,string)",
      "arguments": [
        "0xE122CA6C3413FbbF11a05F6DdBfC19d04EC407eD",
        "Griezmann",
        "Atletico Madrid"
      ],
      "transaction": {
        "from": "0xe122ca6c3413fbbf11a05f6ddbfc19d04ec407ed",
        "to": "0xeddcb9a05bc9bc62334e2a6ae57883831c6c5786",
        "gas": "0x37dd2",
        "value": "0x0",
        "input": "0x8636ec41000000000000000000000000e122ca6c3413fbbf11a05f6ddbfc19d04ec407ed000000000000000000000000000000000000000000000000000000000000006000000000000000000000000000000000000000000000000000000000000000a00000000000000000000000000000000000000000000000000000000000000009477269657a6d616e6e0000000000000000000000000000000000000000000000000000000000000000000000000000000000000000000000000000000000000f41746c657469636f204d61647269640000000000000000000000000000000000",
        "nonce": "0x28",
        "chainId": "0xaa36a7"
      },
      "additionalContracts": [],
      "isFixedGasLimit": false
    },
    {
      "hash": "0x2a32724036a6e5bde7f68750037609863dd52d1412b0378fcb9560e99e7e14c2",
      "transactionType": "CALL",
      "contractName": null,
      "contractAddress": "0xeddcb9a05bc9bc62334e2a6ae57883831c6c5786",
      "function": "mintPlayer(address,string,string)",
      "arguments": [
        "0xE122CA6C3413FbbF11a05F6DdBfC19d04EC407eD",
        "Julian Alvarez",
        "Atletico Madrid"
      ],
      "transaction": {
        "from": "0xe122ca6c3413fbbf11a05f6ddbfc19d04ec407ed",
        "to": "0xeddcb9a05bc9bc62334e2a6ae57883831c6c5786",
        "gas": "0x34c7c",
        "value": "0x0",
        "input": "0x8636ec41000000000000000000000000e122ca6c3413fbbf11a05f6ddbfc19d04ec407ed000000000000000000000000000000000000000000000000000000000000006000000000000000000000000000000000000000000000000000000000000000a0000000000000000000000000000000000000000000000000000000000000000e4a756c69616e20416c766172657a000000000000000000000000000000000000000000000000000000000000000000000000000000000000000000000000000f41746c657469636f204d61647269640000000000000000000000000000000000",
        "nonce": "0x29",
        "chainId": "0xaa36a7"
      },
      "additionalContracts": [],
      "isFixedGasLimit": false
    },
    {
      "hash": "0xbbf0488bfbc04fb1fa99c48476b8480de6667cb2d99c0504afc406dfc38e3946",
      "transactionType": "CALL",
      "contractName": null,
      "contractAddress": "0xeddcb9a05bc9bc62334e2a6ae57883831c6c5786",
      "function": "mintPlayer(address,string,string)",
      "arguments": [
        "0xE122CA6C3413FbbF11a05F6DdBfC19d04EC407eD",
        "Barrios",
        "Atletico Madrid"
      ],
      "transaction": {
        "from": "0xe122ca6c3413fbbf11a05f6ddbfc19d04ec407ed",
        "to": "0xeddcb9a05bc9bc62334e2a6ae57883831c6c5786",
        "gas": "0x37daf",
        "value": "0x0",
        "input": "0x8636ec41000000000000000000000000e122ca6c3413fbbf11a05f6ddbfc19d04ec407ed000000000000000000000000000000000000000000000000000000000000006000000000000000000000000000000000000000000000000000000000000000a0000000000000000000000000000000000000000000000000000000000000000742617272696f7300000000000000000000000000000000000000000000000000000000000000000000000000000000000000000000000000000000000000000f41746c657469636f204d61647269640000000000000000000000000000000000",
        "nonce": "0x2a",
        "chainId": "0xaa36a7"
      },
      "additionalContracts": [],
      "isFixedGasLimit": false
    },
    {
      "hash": "0x4ae647a2e5078be40c4b3c53612131bf625b6ca606678fc39a4537b4378dac9b",
      "transactionType": "CALL",
      "contractName": null,
      "contractAddress": "0xeddcb9a05bc9bc62334e2a6ae57883831c6c5786",
      "function": "mintPlayer(address,string,string)",
      "arguments": [
        "0xE122CA6C3413FbbF11a05F6DdBfC19d04EC407eD",
        "Oblak",
        "Atletico Madrid"
      ],
      "transaction": {
        "from": "0xe122ca6c3413fbbf11a05f6ddbfc19d04ec407ed",
        "to": "0xeddcb9a05bc9bc62334e2a6ae57883831c6c5786",
        "gas": "0x37d8c",
        "value": "0x0",
        "input": "0x8636ec41000000000000000000000000e122ca6c3413fbbf11a05f6ddbfc19d04ec407ed000000000000000000000000000000000000000000000000000000000000006000000000000000000000000000000000000000000000000000000000000000a000000000000000000000000000000000000000000000000000000000000000054f626c616b000000000000000000000000000000000000000000000000000000000000000000000000000000000000000000000000000000000000000000000f41746c657469636f204d61647269640000000000000000000000000000000000",
        "nonce": "0x2b",
        "chainId": "0xaa36a7"
      },
      "additionalContracts": [],
      "isFixedGasLimit": false
    },
    {
      "hash": "0x1319790bcaace2c73ae778c9129c4e488a1549129b5258e985183ab63cff927d",
      "transactionType": "CALL",
      "contractName": null,
      "contractAddress": "0xeddcb9a05bc9bc62334e2a6ae57883831c6c5786",
      "function": "mintPlayer(address,string,string)",
      "arguments": [
        "0xE122CA6C3413FbbF11a05F6DdBfC19d04EC407eD",
        "Lenglet",
        "Atletico Madrid"
      ],
      "transaction": {
        "from": "0xe122ca6c3413fbbf11a05f6ddbfc19d04ec407ed",
        "to": "0xeddcb9a05bc9bc62334e2a6ae57883831c6c5786",
        "gas": "0x37daf",
        "value": "0x0",
        "input": "0x8636ec41000000000000000000000000e122ca6c3413fbbf11a05f6ddbfc19d04ec407ed000000000000000000000000000000000000000000000000000000000000006000000000000000000000000000000000000000000000000000000000000000a000000000000000000000000000000000000000000000000000000000000000074c656e676c657400000000000000000000000000000000000000000000000000000000000000000000000000000000000000000000000000000000000000000f41746c657469636f204d61647269640000000000000000000000000000000000",
        "nonce": "0x2c",
        "chainId": "0xaa36a7"
      },
      "additionalContracts": [],
      "isFixedGasLimit": false
    },
    {
      "hash": "0xe84d55a7e2dcea9013f94e0011e76cbf746228f1ad1e397b709dca33a5f3e944",
      "transactionType": "CALL",
      "contractName": null,
      "contractAddress": "0xeddcb9a05bc9bc62334e2a6ae57883831c6c5786",
      "function": "mintPlayer(address,string,string)",
      "arguments": [
        "0xE122CA6C3413FbbF11a05F6DdBfC19d04EC407eD",
        "Gimenez",
        "Atletico Madrid"
      ],
      "transaction": {
        "from": "0xe122ca6c3413fbbf11a05f6ddbfc19d04ec407ed",
        "to": "0xeddcb9a05bc9bc62334e2a6ae57883831c6c5786",
        "gas": "0x37daf",
        "value": "0x0",
        "input": "0x8636ec41000000000000000000000000e122ca6c3413fbbf11a05f6ddbfc19d04ec407ed000000000000000000000000000000000000000000000000000000000000006000000000000000000000000000000000000000000000000000000000000000a0000000000000000000000000000000000000000000000000000000000000000747696d656e657a00000000000000000000000000000000000000000000000000000000000000000000000000000000000000000000000000000000000000000f41746c657469636f204d61647269640000000000000000000000000000000000",
        "nonce": "0x2d",
        "chainId": "0xaa36a7"
      },
      "additionalContracts": [],
      "isFixedGasLimit": false
    },
    {
      "hash": "0xa74309d01c043d98ed18dd5245e14eab5604628f3aea991769d4dff0bb491a1f",
      "transactionType": "CALL",
      "contractName": null,
      "contractAddress": "0xeddcb9a05bc9bc62334e2a6ae57883831c6c5786",
      "function": "mintPlayer(address,string,string)",
      "arguments": [
        "0xE122CA6C3413FbbF11a05F6DdBfC19d04EC407eD",
        "Llorente",
        "Atletico Madrid"
      ],
      "transaction": {
        "from": "0xe122ca6c3413fbbf11a05f6ddbfc19d04ec407ed",
        "to": "0xeddcb9a05bc9bc62334e2a6ae57883831c6c5786",
        "gas": "0x34c18",
        "value": "0x0",
        "input": "0x8636ec41000000000000000000000000e122ca6c3413fbbf11a05f6ddbfc19d04ec407ed000000000000000000000000000000000000000000000000000000000000006000000000000000000000000000000000000000000000000000000000000000a000000000000000000000000000000000000000000000000000000000000000084c6c6f72656e7465000000000000000000000000000000000000000000000000000000000000000000000000000000000000000000000000000000000000000f41746c657469636f204d61647269640000000000000000000000000000000000",
        "nonce": "0x2e",
        "chainId": "0xaa36a7"
      },
      "additionalContracts": [],
      "isFixedGasLimit": false
    },
    {
      "hash": "0xa4d0dde0d9a8772b46adfa28211e8acb20f4869de8072434ccecc43db11df01c",
      "transactionType": "CALL",
      "contractName": null,
      "contractAddress": "0xeddcb9a05bc9bc62334e2a6ae57883831c6c5786",
      "function": "mintPlayer(address,string,string)",
      "arguments": [
        "0xE122CA6C3413FbbF11a05F6DdBfC19d04EC407eD",
        "De paul",
        "Atletico Madrid"
      ],
      "transaction": {
        "from": "0xe122ca6c3413fbbf11a05f6ddbfc19d04ec407ed",
        "to": "0xeddcb9a05bc9bc62334e2a6ae57883831c6c5786",
        "gas": "0x37daf",
        "value": "0x0",
        "input": "0x8636ec41000000000000000000000000e122ca6c3413fbbf11a05f6ddbfc19d04ec407ed000000000000000000000000000000000000000000000000000000000000006000000000000000000000000000000000000000000000000000000000000000a000000000000000000000000000000000000000000000000000000000000000074465207061756c00000000000000000000000000000000000000000000000000000000000000000000000000000000000000000000000000000000000000000f41746c657469636f204d61647269640000000000000000000000000000000000",
        "nonce": "0x2f",
        "chainId": "0xaa36a7"
      },
      "additionalContracts": [],
      "isFixedGasLimit": false
    },
    {
      "hash": "0xbb4df5e9ada470a8c85d99f9bff1aa376a0ee6948aa59328194be0c571320794",
      "transactionType": "CALL",
      "contractName": null,
      "contractAddress": "0xeddcb9a05bc9bc62334e2a6ae57883831c6c5786",
      "function": "mintPlayer(address,string,string)",
      "arguments": [
        "0xE122CA6C3413FbbF11a05F6DdBfC19d04EC407eD",
        "Giuliano",
        "Atletico Madrid"
      ],
      "transaction": {
        "from": "0xe122ca6c3413fbbf11a05f6ddbfc19d04ec407ed",
        "to": "0xeddcb9a05bc9bc62334e2a6ae57883831c6c5786",
        "gas": "0x34c18",
        "value": "0x0",
        "input": "0x8636ec41000000000000000000000000e122ca6c3413fbbf11a05f6ddbfc19d04ec407ed000000000000000000000000000000000000000000000000000000000000006000000000000000000000000000000000000000000000000000000000000000a000000000000000000000000000000000000000000000000000000000000000084769756c69616e6f000000000000000000000000000000000000000000000000000000000000000000000000000000000000000000000000000000000000000f41746c657469636f204d61647269640000000000000000000000000000000000",
        "nonce": "0x30",
        "chainId": "0xaa36a7"
      },
      "additionalContracts": [],
      "isFixedGasLimit": false
    },
    {
      "hash": "0xc58a6000e5dee9b151fa8dcc45caa60aabcf0c43ab41536176fe1b329ac20ba7",
      "transactionType": "CALL",
      "contractName": null,
      "contractAddress": "0xeddcb9a05bc9bc62334e2a6ae57883831c6c5786",
      "function": "mintPlayer(address,string,string)",
      "arguments": [
        "0xE122CA6C3413FbbF11a05F6DdBfC19d04EC407eD",
        "Samuel Lino",
        "Atletico Madrid"
      ],
      "transaction": {
        "from": "0xe122ca6c3413fbbf11a05f6ddbfc19d04ec407ed",
        "to": "0xeddcb9a05bc9bc62334e2a6ae57883831c6c5786",
        "gas": "0x37df5",
        "value": "0x0",
        "input": "0x8636ec41000000000000000000000000e122ca6c3413fbbf11a05f6ddbfc19d04ec407ed000000000000000000000000000000000000000000000000000000000000006000000000000000000000000000000000000000000000000000000000000000a0000000000000000000000000000000000000000000000000000000000000000b53616d75656c204c696e6f000000000000000000000000000000000000000000000000000000000000000000000000000000000000000000000000000000000f41746c657469636f204d61647269640000000000000000000000000000000000",
        "nonce": "0x31",
        "chainId": "0xaa36a7"
      },
      "additionalContracts": [],
      "isFixedGasLimit": false
    },
    {
      "hash": "0xc41fdc9148d39579d76638fe8f09f6e6a51d1c112e84b8bb9b248b14bef9e804",
      "transactionType": "CALL",
      "contractName": null,
      "contractAddress": "0xeddcb9a05bc9bc62334e2a6ae57883831c6c5786",
      "function": "mintPlayer(address,string,string)",
      "arguments": [
        "0xE122CA6C3413FbbF11a05F6DdBfC19d04EC407eD",
        "Le Normand",
        "Atletico Madrid"
      ],
      "transaction": {
        "from": "0xe122ca6c3413fbbf11a05f6ddbfc19d04ec407ed",
        "to": "0xeddcb9a05bc9bc62334e2a6ae57883831c6c5786",
        "gas": "0x34c3a",
        "value": "0x0",
        "input": "0x8636ec41000000000000000000000000e122ca6c3413fbbf11a05f6ddbfc19d04ec407ed000000000000000000000000000000000000000000000000000000000000006000000000000000000000000000000000000000000000000000000000000000a0000000000000000000000000000000000000000000000000000000000000000a4c65204e6f726d616e6400000000000000000000000000000000000000000000000000000000000000000000000000000000000000000000000000000000000f41746c657469636f204d61647269640000000000000000000000000000000000",
        "nonce": "0x32",
        "chainId": "0xaa36a7"
      },
      "additionalContracts": [],
      "isFixedGasLimit": false
    },
    {
      "hash": "0x46c412caa82d9aa2d8652c4a65926521ea66b5ad02ba26f47b374cea0e89b081",
      "transactionType": "CALL",
      "contractName": null,
      "contractAddress": "0xeddcb9a05bc9bc62334e2a6ae57883831c6c5786",
      "function": "mintPlayer(address,string,string)",
      "arguments": [
        "0xE122CA6C3413FbbF11a05F6DdBfC19d04EC407eD",
        "Nico Williams",
        "Athletic Bilbao"
      ],
      "transaction": {
        "from": "0xe122ca6c3413fbbf11a05f6ddbfc19d04ec407ed",
        "to": "0xeddcb9a05bc9bc62334e2a6ae57883831c6c5786",
        "gas": "0x37e18",
        "value": "0x0",
        "input": "0x8636ec41000000000000000000000000e122ca6c3413fbbf11a05f6ddbfc19d04ec407ed000000000000000000000000000000000000000000000000000000000000006000000000000000000000000000000000000000000000000000000000000000a0000000000000000000000000000000000000000000000000000000000000000d4e69636f2057696c6c69616d7300000000000000000000000000000000000000000000000000000000000000000000000000000000000000000000000000000f4174686c657469632042696c62616f0000000000000000000000000000000000",
        "nonce": "0x33",
        "chainId": "0xaa36a7"
      },
      "additionalContracts": [],
      "isFixedGasLimit": false
    },
    {
      "hash": "0x61f21979ff000ce291db97a328859862efae00327501f4092b98e23ff9e99485",
      "transactionType": "CALL",
      "contractName": null,
      "contractAddress": "0xeddcb9a05bc9bc62334e2a6ae57883831c6c5786",
      "function": "mintPlayer(address,string,string)",
      "arguments": [
        "0xE122CA6C3413FbbF11a05F6DdBfC19d04EC407eD",
        "Unai Simon",
        "Athletic Bilbao"
      ],
      "transaction": {
        "from": "0xe122ca6c3413fbbf11a05f6ddbfc19d04ec407ed",
        "to": "0xeddcb9a05bc9bc62334e2a6ae57883831c6c5786",
        "gas": "0x34c3a",
        "value": "0x0",
        "input": "0x8636ec41000000000000000000000000e122ca6c3413fbbf11a05f6ddbfc19d04ec407ed000000000000000000000000000000000000000000000000000000000000006000000000000000000000000000000000000000000000000000000000000000a0000000000000000000000000000000000000000000000000000000000000000a556e61692053696d6f6e00000000000000000000000000000000000000000000000000000000000000000000000000000000000000000000000000000000000f4174686c657469632042696c62616f0000000000000000000000000000000000",
        "nonce": "0x34",
        "chainId": "0xaa36a7"
      },
      "additionalContracts": [],
      "isFixedGasLimit": false
    },
    {
      "hash": "0x15eca1aba81ec97fc4c6a0cf8ca3fd7605e5e033ff3a73293328c77a2bf0b737",
      "transactionType": "CALL",
      "contractName": null,
      "contractAddress": "0xeddcb9a05bc9bc62334e2a6ae57883831c6c5786",
      "function": "mintPlayer(address,string,string)",
      "arguments": [
        "0xE122CA6C3413FbbF11a05F6DdBfC19d04EC407eD",
        "Vivian",
        "Athletic Bilbao"
      ],
      "transaction": {
        "from": "0xe122ca6c3413fbbf11a05f6ddbfc19d04ec407ed",
        "to": "0xeddcb9a05bc9bc62334e2a6ae57883831c6c5786",
        "gas": "0x34bf8",
        "value": "0x0",
        "input": "0x8636ec41000000000000000000000000e122ca6c3413fbbf11a05f6ddbfc19d04ec407ed000000000000000000000000000000000000000000000000000000000000006000000000000000000000000000000000000000000000000000000000000000a0000000000000000000000000000000000000000000000000000000000000000656697669616e0000000000000000000000000000000000000000000000000000000000000000000000000000000000000000000000000000000000000000000f4174686c657469632042696c62616f0000000000000000000000000000000000",
        "nonce": "0x35",
        "chainId": "0xaa36a7"
      },
      "additionalContracts": [],
      "isFixedGasLimit": false
    },
    {
      "hash": "0x2ca78493fdad3d735e7b39dd1b1faaee830711917ecdd1b2cf6dfdaf6ec0bf11",
      "transactionType": "CALL",
      "contractName": null,
      "contractAddress": "0xeddcb9a05bc9bc62334e2a6ae57883831c6c5786",
      "function": "mintPlayer(address,string,string)",
      "arguments": [
        "0xE122CA6C3413FbbF11a05F6DdBfC19d04EC407eD",
        "Yuri",
        "Athletic Bilbao"
      ],
      "transaction": {
        "from": "0xe122ca6c3413fbbf11a05f6ddbfc19d04ec407ed",
        "to": "0xeddcb9a05bc9bc62334e2a6ae57883831c6c5786",
        "gas": "0x34bd6",
        "value": "0x0",
        "input": "0x8636ec41000000000000000000000000e122ca6c3413fbbf11a05f6ddbfc19d04ec407ed000000000000000000000000000000000000000000000000000000000000006000000000000000000000000000000000000000000000000000000000000000a000000000000000000000000000000000000000000000000000000000000000045975726900000000000000000000000000000000000000000000000000000000000000000000000000000000000000000000000000000000000000000000000f4174686c657469632042696c62616f0000000000000000000000000000000000",
        "nonce": "0x36",
        "chainId": "0xaa36a7"
      },
      "additionalContracts": [],
      "isFixedGasLimit": false
    },
    {
      "hash": "0x36ed8618bcf5eac25ce8a9f462ca5163e74478ef7238c14207ddee3de5c4bdff",
      "transactionType": "CALL",
      "contractName": null,
      "contractAddress": "0xeddcb9a05bc9bc62334e2a6ae57883831c6c5786",
      "function": "mintPlayer(address,string,string)",
      "arguments": [
        "0xE122CA6C3413FbbF11a05F6DdBfC19d04EC407eD",
        "Inaki Williams",
        "Athletic Bilbao"
      ],
      "transaction": {
        "from": "0xe122ca6c3413fbbf11a05f6ddbfc19d04ec407ed",
        "to": "0xeddcb9a05bc9bc62334e2a6ae57883831c6c5786",
        "gas": "0x34c7c",
        "value": "0x0",
        "input": "0x8636ec41000000000000000000000000e122ca6c3413fbbf11a05f6ddbfc19d04ec407ed000000000000000000000000000000000000000000000000000000000000006000000000000000000000000000000000000000000000000000000000000000a0000000000000000000000000000000000000000000000000000000000000000e496e616b692057696c6c69616d73000000000000000000000000000000000000000000000000000000000000000000000000000000000000000000000000000f4174686c657469632042696c62616f0000000000000000000000000000000000",
        "nonce": "0x37",
        "chainId": "0xaa36a7"
      },
      "additionalContracts": [],
      "isFixedGasLimit": false
    },
    {
      "hash": "0xea71c3ef2e67ec85cb9805bea5c51f744acfb1768e3a38b06188d36369de5622",
      "transactionType": "CALL",
      "contractName": null,
      "contractAddress": "0xeddcb9a05bc9bc62334e2a6ae57883831c6c5786",
      "function": "mintPlayer(address,string,string)",
      "arguments": [
        "0xE122CA6C3413FbbF11a05F6DdBfC19d04EC407eD",
        "Sancet",
        "Athletic Bilbao"
      ],
      "transaction": {
        "from": "0xe122ca6c3413fbbf11a05f6ddbfc19d04ec407ed",
        "to": "0xeddcb9a05bc9bc62334e2a6ae57883831c6c5786",
        "gas": "0x34bf8",
        "value": "0x0",
        "input": "0x8636ec41000000000000000000000000e122ca6c3413fbbf11a05f6ddbfc19d04ec407ed000000000000000000000000000000000000000000000000000000000000006000000000000000000000000000000000000000000000000000000000000000a0000000000000000000000000000000000000000000000000000000000000000653616e6365740000000000000000000000000000000000000000000000000000000000000000000000000000000000000000000000000000000000000000000f4174686c657469632042696c62616f0000000000000000000000000000000000",
        "nonce": "0x38",
        "chainId": "0xaa36a7"
      },
      "additionalContracts": [],
      "isFixedGasLimit": false
    },
    {
      "hash": "0x65c02b15e3914f27c4d1ef4093c7db119b40386792f0603b9fcc5ded170c5de3",
      "transactionType": "CALL",
      "contractName": null,
      "contractAddress": "0xeddcb9a05bc9bc62334e2a6ae57883831c6c5786",
      "function": "mintPlayer(address,string,string)",
      "arguments": [
        "0xE122CA6C3413FbbF11a05F6DdBfC19d04EC407eD",
        "Gueye",
        "VillaReal"
      ],
      "transaction": {
        "from": "0xe122ca6c3413fbbf11a05f6ddbfc19d04ec407ed",
        "to": "0xeddcb9a05bc9bc62334e2a6ae57883831c6c5786",
        "gas": "0x37d22",
        "value": "0x0",
        "input": "0x8636ec41000000000000000000000000e122ca6c3413fbbf11a05f6ddbfc19d04ec407ed000000000000000000000000000000000000000000000000000000000000006000000000000000000000000000000000000000000000000000000000000000a000000000000000000000000000000000000000000000000000000000000000054775657965000000000000000000000000000000000000000000000000000000000000000000000000000000000000000000000000000000000000000000000956696c6c615265616c0000000000000000000000000000000000000000000000",
        "nonce": "0x39",
        "chainId": "0xaa36a7"
      },
      "additionalContracts": [],
      "isFixedGasLimit": false
    },
    {
      "hash": "0x6c3e2eb57acb713134ca06b9ca8713c494bea5ddbd9de502196660cdd9119ebd",
      "transactionType": "CALL",
      "contractName": null,
      "contractAddress": "0xeddcb9a05bc9bc62334e2a6ae57883831c6c5786",
      "function": "mintPlayer(address,string,string)",
      "arguments": [
        "0xE122CA6C3413FbbF11a05F6DdBfC19d04EC407eD",
        "Diego Conde",
        "VillaReal"
      ],
      "transaction": {
        "from": "0xe122ca6c3413fbbf11a05f6ddbfc19d04ec407ed",
        "to": "0xeddcb9a05bc9bc62334e2a6ae57883831c6c5786",
        "gas": "0x37d8c",
        "value": "0x0",
        "input": "0x8636ec41000000000000000000000000e122ca6c3413fbbf11a05f6ddbfc19d04ec407ed000000000000000000000000000000000000000000000000000000000000006000000000000000000000000000000000000000000000000000000000000000a0000000000000000000000000000000000000000000000000000000000000000b446965676f20436f6e6465000000000000000000000000000000000000000000000000000000000000000000000000000000000000000000000000000000000956696c6c615265616c0000000000000000000000000000000000000000000000",
        "nonce": "0x3a",
        "chainId": "0xaa36a7"
      },
      "additionalContracts": [],
      "isFixedGasLimit": false
    }
  ],
  "receipts": [],
  "libraries": [
    "script/SavePlayers.s.sol:SavePlayers:0xaC8ae94Eac4809cdaAbD72eB2C0147d82b50AbD4"
  ],
  "pending": [
    "0xa31b8956bf9bae956c6e079105ac799363178e1c476263a8df76b872713e6993",
    "0xfa6863b4c95801f0c2cb5bc394660102d904e7b14a0bc6a1ec04a4ec2f5cb218",
    "0x2a32724036a6e5bde7f68750037609863dd52d1412b0378fcb9560e99e7e14c2",
    "0xbbf0488bfbc04fb1fa99c48476b8480de6667cb2d99c0504afc406dfc38e3946",
    "0x4ae647a2e5078be40c4b3c53612131bf625b6ca606678fc39a4537b4378dac9b",
    "0x1319790bcaace2c73ae778c9129c4e488a1549129b5258e985183ab63cff927d",
    "0xe84d55a7e2dcea9013f94e0011e76cbf746228f1ad1e397b709dca33a5f3e944",
    "0xa74309d01c043d98ed18dd5245e14eab5604628f3aea991769d4dff0bb491a1f",
    "0xa4d0dde0d9a8772b46adfa28211e8acb20f4869de8072434ccecc43db11df01c",
    "0xbb4df5e9ada470a8c85d99f9bff1aa376a0ee6948aa59328194be0c571320794",
    "0xc58a6000e5dee9b151fa8dcc45caa60aabcf0c43ab41536176fe1b329ac20ba7",
    "0xc41fdc9148d39579d76638fe8f09f6e6a51d1c112e84b8bb9b248b14bef9e804",
    "0x46c412caa82d9aa2d8652c4a65926521ea66b5ad02ba26f47b374cea0e89b081",
    "0x61f21979ff000ce291db97a328859862efae00327501f4092b98e23ff9e99485",
    "0x15eca1aba81ec97fc4c6a0cf8ca3fd7605e5e033ff3a73293328c77a2bf0b737",
    "0x2ca78493fdad3d735e7b39dd1b1faaee830711917ecdd1b2cf6dfdaf6ec0bf11",
    "0x36ed8618bcf5eac25ce8a9f462ca5163e74478ef7238c14207ddee3de5c4bdff",
    "0xea71c3ef2e67ec85cb9805bea5c51f744acfb1768e3a38b06188d36369de5622",
    "0x65c02b15e3914f27c4d1ef4093c7db119b40386792f0603b9fcc5ded170c5de3",
    "0x6c3e2eb57acb713134ca06b9ca8713c494bea5ddbd9de502196660cdd9119ebd"
  ],
  "returns": {},
  "timestamp": 1745662444,
  "chain": 11155111,
  "commit": "fd8c9cd"
}