{
  "transactions": [
    {
      "hash": null,
      "transactionType": "CREATE2",
      "contractName": "SavePlayers",
      "contractAddress": "0xac8ae94eac4809cdaabd72eb2c0147d82b50abd4",
      "function": null,
      "arguments": null,
      "transaction": {
        "from": "0x1804c8ab1f12e6bbf3894d4083f33e07309d1f38",
        "to": "0x4e59b44847b379578588920ca78fbf26c0b4956c",
        "gas": "0x2befd1",
        "input": "0x000000000000000000000000000000000000000000000000000000000000000060808060405234601957612288908161001e823930815050f35b5f80fdfe60806040526004361015610011575f80fd5b5f3560e01c638b5b9ccc14610024575f80fd5b5f36600319011261217d576111a061003b816121d9565b608c815290601f19015f5b81811061215c57826100566121a5565b61006060406121d9565b600b81526a4c6577616e646f77736b6960a81b6020820152815261008460406121d9565b600981526842617263656c6f6e6160b81b602082015260208201526100a8826121ff565b526100b2816121ff565b506100bb6121a5565b6100c560406121d9565b6005815264506564726960d81b602082015281526100e360406121d9565b600981526842617263656c6f6e6160b81b60208201526020820152610107826121ff565b52610111816121ff565b5061011a6121a5565b61012460406121d9565b60048152634761766960e01b6020820152815261014160406121d9565b600981526842617263656c6f6e6160b81b6020820152602082015261016582612220565b5261016f81612220565b506101786121a5565b61018260406121d9565b600a8152692a32b91029ba32b3b2b760b11b602082015281526101a560406121d9565b600981526842617263656c6f6e6160b81b6020808301919091528201526120c1906003906101d4600285612230565b526101e0600284612230565b5061024d6101ec6121a5565b916101f760406121d9565b60078152664465204a6f6e6760c81b6020820152835261021760406121d9565b600981526842617263656c6f6e6160b81b6020820152602084015261023b81612244565b926102468287612230565b5284612230565b506102836102596121a5565b9161026460406121d9565b6006815265417261756a6f60d01b6020820152835261021760406121d9565b506102bb61028f6121a5565b9161029a60406121d9565b600881526752617068696e686160c01b6020820152835261021760406121d9565b506102f26102c76121a5565b916102d260406121d9565b60078152664375626172736960c81b6020820152835261021760406121d9565b506103286102fe6121a5565b9161030960406121d9565b60068152654b6f756e646560d01b6020820152835261021760406121d9565b506103646103346121a5565b9161033f60406121d9565b600c81526b13185b5a5b994816585b585b60a21b6020820152835261021760406121d9565b506103996103706121a5565b9161037b60406121d9565b600581526442616c646560d81b6020820152835261021760406121d9565b506103f96103a56121a5565b916103b060406121d9565b600a81526942656c6c696e6768616d60b01b602082015283526103d360406121d9565b600b81526a1499585b081358591c9a5960aa1b6020820152602084015261023b81612244565b506104316104056121a5565b9161041060406121d9565b600881526756696e696369757360c01b602082015283526103d360406121d9565b5061046861043d6121a5565b9161044860406121d9565b6007815266526f647279676f60c81b602082015283526103d360406121d9565b5061049e6104746121a5565b9161047f60406121d9565b60068152654d626170706560d01b602082015283526103d360406121d9565b506104d46104aa6121a5565b916104b560406121d9565b60068152654d6f6472696360d01b602082015283526103d360406121d9565b5061050c6104e06121a5565b916104eb60406121d9565b6008815267436f7572746f697360c01b602082015283526103d360406121d9565b506105466105186121a5565b9161052360406121d9565b600a8152695463686f75616d656e6960b01b602082015283526103d360406121d9565b5061057d6105526121a5565b9161055d60406121d9565b6007815266293ab234b3b2b960c91b602082015283526103d360406121d9565b506105b56105896121a5565b9161059460406121d9565b600881526756616c766572646560c01b602082015283526103d360406121d9565b506105ea6105c16121a5565b916105cc60406121d9565b60058152644d656e647960d81b602082015283526103d360406121d9565b5061061f6105f66121a5565b9161060160406121d9565b6005815264416c61626160d81b602082015283526103d360406121d9565b5061068261062b6121a5565b9161063660406121d9565b600981526823b934b2bd36b0b73760b91b6020820152835261065860406121d9565b600f81526e105d1b195d1a58dbc81358591c9a59608a1b6020820152602084015261023b81612244565b506106c061068e6121a5565b9161069960406121d9565b600e81526d253ab634b0b71020b63b30b932bd60911b6020820152835261065860406121d9565b506106f76106cc6121a5565b916106d760406121d9565b600781526642617272696f7360c81b6020820152835261065860406121d9565b5061072c6107036121a5565b9161070e60406121d9565b60058152644f626c616b60d81b6020820152835261065860406121d9565b506107636107386121a5565b9161074360406121d9565b600781526613195b99db195d60ca1b6020820152835261065860406121d9565b5061079a61076f6121a5565b9161077a60406121d9565b600781526623b4b6b2b732bd60c91b6020820152835261065860406121d9565b506107d26107a66121a5565b916107b160406121d9565b60088152674c6c6f72656e746560c01b6020820152835261065860406121d9565b506108096107de6121a5565b916107e960406121d9565b60078152661119481c185d5b60ca1b6020820152835261065860406121d9565b506108416108156121a5565b9161082060406121d9565b60088152674769756c69616e6f60c01b6020820152835261065860406121d9565b5061087c61084d6121a5565b9161085860406121d9565b600b81526a53616d75656c204c696e6f60a81b6020820152835261065860406121d9565b506108b66108886121a5565b9161089360406121d9565b600a815269131948139bdc9b585b9960b21b6020820152835261065860406121d9565b5061091d6108c26121a5565b916108cd60406121d9565b600d81526c4e69636f2057696c6c69616d7360981b602082015283526108f360406121d9565b600f81526e4174686c657469632042696c62616f60881b6020820152602084015261023b81612244565b506109576109296121a5565b9161093460406121d9565b600a8152692ab730b49029b4b6b7b760b11b602082015283526108f360406121d9565b5061098d6109636121a5565b9161096e60406121d9565b60068152652b34bb34b0b760d11b602082015283526108f360406121d9565b506109c16109996121a5565b916109a460406121d9565b60048152635975726960e01b602082015283526108f360406121d9565b506109ff6109cd6121a5565b916109d860406121d9565b600e81526d496e616b692057696c6c69616d7360901b602082015283526108f360406121d9565b50610a35610a0b6121a5565b91610a1660406121d9565b600681526514d85b98d95d60d21b602082015283526108f360406121d9565b50610a8e610a416121a5565b91610a4c60406121d9565b6005815264477565796560d81b60208201528352610a6a60406121d9565b6009815268159a5b1b185499585b60ba1b6020820152602084015261023b81612244565b50610ac9610a9a6121a5565b91610aa560406121d9565b600b81526a446965676f20436f6e646560a81b60208201528352610a6a60406121d9565b50610b06610ad56121a5565b91610ae060406121d9565b600d81526c536572676920436172646f6e6160981b60208201528352610a6a60406121d9565b50610b3b610b126121a5565b91610b1d60406121d9565b600581526408cdef2e8d60db1b60208201528352610a6a60406121d9565b50610b75610b476121a5565b91610b5260406121d9565b600a815269416c6578204261656e6160b01b60208201528352610a6a60406121d9565b50610bb0610b816121a5565b91610b8c60406121d9565b600b81526a20bcb7bd32902832b932bd60a91b60208201528352610a6a60406121d9565b50610c10610bbc6121a5565b91610bc760406121d9565b6007815266426174616c6c6160c81b60208201528352610be760406121d9565b600e81526d5261796f2056616c6c6563616e6f60901b6020820152602084015261023b81612244565b50610c45610c1c6121a5565b91610c2760406121d9565b6005815264526174697560d81b60208201528352610be760406121d9565b50610c80610c516121a5565b91610c5c60406121d9565b600b81526a24b9b4902830b630bd37b760a91b60208201528352610be760406121d9565b50610cb7610c8c6121a5565b91610c9760406121d9565b60078152664c656a65756e6560c81b60208201528352610be760406121d9565b50610cf0610cc36121a5565b91610cce60406121d9565b6009815268446520467275746f7360b81b60208201528352610be760406121d9565b50610d46610cfc6121a5565b91610d0760406121d9565b600681526520b23934b0b760d11b60208201528352610d2660406121d9565b6005815264426574697360d81b6020820152602084015261023b81612244565b50610d7e610d526121a5565b91610d5d60406121d9565b60088152674c6c6f72656e746560c01b60208201528352610d2660406121d9565b50610db2610d8a6121a5565b91610d9560406121d9565b60048152634973636f60e01b60208201528352610d2660406121d9565b50610de9610dbe6121a5565b91610dc960406121d9565b6007815266416e74686f6e7960c81b60208201528352610d2660406121d9565b50610e28610df56121a5565b91610e0060406121d9565b600f81526e2532b9bab9902937b23934b3bab2bd60891b60208201528352610d2660406121d9565b50610e80610e346121a5565b91610e3f60406121d9565b600581526423b932b4b360d91b60208201528352610e5d60406121d9565b60088152674d616c6c6f72636160c01b6020820152602084015261023b81612244565b50610eb6610e8c6121a5565b91610e9760406121d9565b60068152654d616666656f60d01b60208201528352610e5d60406121d9565b50610eec610ec26121a5565b91610ecd60406121d9565b60068152654d6f6a69636160d01b60208201528352610e5d60406121d9565b50610f2a610ef86121a5565b91610f0360406121d9565b600e81526d2230b734902937b23934b3bab2bd60911b60208201528352610e5d60406121d9565b50610f60610f366121a5565b91610f4160406121d9565b60068152654d757269716960d01b60208201528352610e5d60406121d9565b50610f96610f6c6121a5565b91610f7760406121d9565b60068152652230b93232b960d11b60208201528352610e5d60406121d9565b50610ff4610fa26121a5565b91610fad60406121d9565b600681526552656d69726f60d01b60208201528352610fcc60406121d9565b600d81526c1499585b0814dbd8da59591859609a1b6020820152602084015261023b81612244565b5061102a6110006121a5565b9161100b60406121d9565b60068152651059dd595c9960d21b60208201528352610fcc60406121d9565b5061105f6110366121a5565b9161104160406121d9565b6005815264537563696360d81b60208201528352610fcc60406121d9565b5061109861106b6121a5565b9161107660406121d9565b60098152685a7562696d656e646960b81b60208201528352610fcc60406121d9565b506110d46110a46121a5565b916110af60406121d9565b600c81526b29b2b933b4b79023b7b6b2bd60a11b60208201528352610fcc60406121d9565b5061110d6110e06121a5565b916110eb60406121d9565b600981526813de585c9e9858985b60ba1b60208201528352610fcc60406121d9565b506111416111196121a5565b9161112460406121d9565b60048152634b75626f60e01b60208201528352610fcc60406121d9565b5061119761114d6121a5565b9161115860406121d9565b600681526547756169746160d01b6020820152835261117760406121d9565b600581526443656c746160d81b6020820152602084015261023b81612244565b506111cf6111a36121a5565b916111ae60406121d9565b600881526714dd185c99995b1d60c21b6020820152835261117760406121d9565b5061120c6111db6121a5565b916111e660406121d9565b600d81526c4d6172636f7320416c6f6e736f60981b6020820152835261117760406121d9565b506112446112186121a5565b9161122360406121d9565b60088152674d696e6775657a6160c01b6020820152835261117760406121d9565b506112796112506121a5565b9161125b60406121d9565b6005815264417370617360d81b6020820152835261117760406121d9565b506112d16112856121a5565b9161129060406121d9565b6006815265139e5b185b9960d21b602082015283526112af60406121d9565b6007815266536576696c6c6160c81b6020820152602084015261023b81612244565b506113056112dd6121a5565b916112e860406121d9565b600481526314d85d5b60e21b602082015283526112af60406121d9565b506113396113116121a5565b9161131c60406121d9565b60048152634261646560e01b602082015283526112af60406121d9565b506113726113456121a5565b9161135060406121d9565b60098152684c756b6562616b696f60b81b602082015283526112af60406121d9565b506113ae61137e6121a5565b9161138960406121d9565b600c81526b527562656e2056617267617360a01b602082015283526112af60406121d9565b506113e36113ba6121a5565b916113c560406121d9565b6005815264497361616360d81b602082015283526112af60406121d9565b5061143d6113ef6121a5565b916113fa60406121d9565b600981526847617a7a616e69676160b81b6020820152835261141c60406121d9565b60068152654769726f6e6160d01b6020820152602084015261023b81612244565b5061147d6114496121a5565b9161145460406121d9565b601081526f26b4b3bab2b61023baba34b2b93932bd60811b6020820152835261141c60406121d9565b506114b26114896121a5565b9161149460406121d9565b6005815264109b1a5b9960da1b6020820152835261141c60406121d9565b506114eb6114be6121a5565b916114c960406121d9565b60098152682a39bcb3b0b735b7bb60b91b6020820152835261141c60406121d9565b506115246114f76121a5565b9161150260406121d9565b6009815268109c9e585b8811da5b60ba1b6020820152835261141c60406121d9565b5061155b6115306121a5565b9161153b60406121d9565b600781526644616e6a756d6160c81b6020820152835261141c60406121d9565b506115bb6115676121a5565b9161157260406121d9565b600e81526d53657267696f204865727265726160901b6020820152835261159960406121d9565b60078152664f736173756e6160c81b6020820152602084015261023b81612244565b506115f16115c76121a5565b916115d260406121d9565b6006815265436174656e6160d01b6020820152835261159960406121d9565b506116266115fd6121a5565b9161160860406121d9565b600581526421393cb0b760d91b6020820152835261159960406121d9565b5061165d6116326121a5565b9161163d60406121d9565b6007815266213ab234b6b4b960c91b6020820152835261159960406121d9565b506116996116696121a5565b9161167460406121d9565b600c81526b527562656e2047617263696160a01b6020820152835261159960406121d9565b506116d36116a56121a5565b916116b060406121d9565b600a81526920b4b6b0b91027b937bd60b11b6020820152835261159960406121d9565b5061172f6116df6121a5565b916116ea60406121d9565b600b81526a446176696420536f72696160a81b6020820152835261170e60406121d9565b600681526547657461666560d01b6020820152602084015261023b81612244565b5061176761173b6121a5565b9161174660406121d9565b6008815267416c64657265746560c01b6020820152835261170e60406121d9565b5061179c6117736121a5565b9161177e60406121d9565b6005815264446a656e6560d81b6020820152835261170e60406121d9565b506117d56117a86121a5565b916117b360406121d9565b6009815268417272616d6261726960b81b6020820152835261170e60406121d9565b5061180c6117e16121a5565b916117ec60406121d9565b600781526613585e5bdc985b60ca1b6020820152835261170e60406121d9565b506118436118186121a5565b9161182360406121d9565b60078152665465727261747360c81b6020820152835261170e60406121d9565b506118a161184f6121a5565b9161185a60406121d9565b600b81526a4a6f616e2047617263696160a81b6020820152835261187e60406121d9565b6008815267115cdc185b9e5bdb60c21b6020820152602084015261023b81612244565b506118df6118ad6121a5565b916118b860406121d9565b600e81526d4f6d617220456c2048696c616c6960901b6020820152835261187e60406121d9565b506119176118eb6121a5565b916118f660406121d9565b60088152674b756d62756c6c6160c01b6020820152835261187e60406121d9565b5061194c6119236121a5565b9161192e60406121d9565b60058152644a6f66726560d81b6020820152835261187e60406121d9565b506119816119586121a5565b9161196360406121d9565b6005815264507561646f60d81b6020820152835261187e60406121d9565b506119b861198d6121a5565b9161199860406121d9565b6007815266526f626572746f60c81b6020820152835261187e60406121d9565b50611a166119c46121a5565b916119cf60406121d9565b600981526821b4b63632b9b9b2b760b91b602082015283526119f160406121d9565b600a8152694c61732050616c6d617360b01b6020820152602084015261023b81612244565b50611a4d611a226121a5565b91611a2d60406121d9565b60078152664d636b656e6e6160c81b602082015283526119f160406121d9565b50611a83611a596121a5565b91611a6460406121d9565b600681526545737375676f60d01b602082015283526119f160406121d9565b50611ab9611a8f6121a5565b91611a9a60406121d9565b600681526553616e64726f60d01b602082015283526119f160406121d9565b50611af0611ac56121a5565b91611ad060406121d9565b60078152664d6f6c6569726f60c81b602082015283526119f160406121d9565b50611b2b611afc6121a5565b91611b0760406121d9565b600b81526a466162696f2053696c766160a81b602082015283526119f160406121d9565b50611b87611b376121a5565b91611b4260406121d9565b600a81526944696d6974726f76696360b01b60208201528352611b6560406121d9565b60078152664c6567616e657360c81b6020820152602084015261023b81612244565b50611bc0611b936121a5565b91611b9e60406121d9565b6009815268253ab0b71021b93abd60b91b60208201528352611b6560406121d9565b50611bf6611bcc6121a5565b91611bd760406121d9565b60068152652937b9b4b2b960d11b60208201528352611b6560406121d9565b50611c2f611c026121a5565b91611c0d60406121d9565b600981526844616e69205261626160b81b60208201528352611b6560406121d9565b50611c67611c3b6121a5565b91611c4660406121d9565b60088152674e6173746163696360c01b60208201528352611b6560406121d9565b50611cbe611c736121a5565b91611c7e60406121d9565b600681526553697665726160d01b60208201528352611c9d60406121d9565b6006815265416c6176657360d01b6020820152602084015261023b81612244565b50611cf6611cca6121a5565b91611cd560406121d9565b600881526754656e61676c696160c01b60208201528352611c9d60406121d9565b50611d31611d026121a5565b91611d0d60406121d9565b600b81526a2537b0b7102537b93230b760a91b60208201528352611c9d60406121d9565b50611d6f611d3d6121a5565b91611d4860406121d9565b600e81526d4361726c6f7320566963656e746560901b60208201528352611c9d60406121d9565b50611daa611d7b6121a5565b91611d8660406121d9565b600b81526a4b696b652047617263696160a81b60208201528352611c9d60406121d9565b50611de7611db66121a5565b91611dc160406121d9565b600d81526c2a37b7349026b0b93a34b732bd60991b60208201528352611c9d60406121d9565b50611e48611df36121a5565b91611dfe60406121d9565b600e81526d4d616d61726461736876696c6c6960901b60208201528352611e2560406121d9565b600881526756616c656e63696160c01b6020820152602084015261023b81612244565b50611e80611e546121a5565b91611e5f60406121d9565b60088152674d6f73717565726160c01b60208201528352611e2560406121d9565b50611eb6611e8c6121a5565b91611e9760406121d9565b600681526547756572726160d01b60208201528352611e2560406121d9565b50611eeb611ec26121a5565b91611ecd60406121d9565b600581526452696f6a6160d81b60208201528352611e2560406121d9565b50611f1f611ef76121a5565b91611f0260406121d9565b60048152634761796160e01b60208201528352611e2560406121d9565b50611f54611f2b6121a5565b91611f3660406121d9565b6005815264536164697160d81b60208201528352611e2560406121d9565b50611fb2611f606121a5565b91611f6b60406121d9565b600981526825b0b936102432b4b760b91b60208201528352611f8d60406121d9565b600a81526915985b1b18591bdb1a5960b21b6020820152602084015261023b81612244565b50611fe6611fbe6121a5565b91611fc960406121d9565b60048152634d6f726f60e01b60208201528352611f8d60406121d9565b50612022611ff26121a5565b91611ffd60406121d9565b600c81526b4d6172636f7320416e64726560a01b60208201528352611f8d60406121d9565b5061205961202e6121a5565b9161203960406121d9565b6007815266082dac2d8d8c2d60cb1b60208201528352611f8d60406121d9565b506120626121a5565b61206c60406121d9565b600581526453796c6c6160d81b6020820152815261208a60406121d9565b600a81526915985b1b18591bdb1a5960b21b602082015260208201526120af82612244565b506120ba8285612230565b5282612230565b506040518091602082016020835281518091526040830190602060408260051b8601019301915f905b8282106120f957505050500390f35b919360019193955060206121388192603f198a8203018652885190836121288351604084526040840190612181565b9201519084818403910152612181565b96019201920185949391926120ea565b634e487b7160e01b5f52601160045260245ffd5b6020906121676121a5565b6060815260608382015282828601015201610046565b5f80fd5b805180835260209291819084018484015e5f828201840152601f01601f1916010190565b604051906040820182811067ffffffffffffffff8211176121c557604052565b634e487b7160e01b5f52604160045260245ffd5b6040519190601f01601f1916820167ffffffffffffffff8111838210176121c557604052565b80511561220c5760200190565b634e487b7160e01b5f52603260045260245ffd5b80516001101561220c5760400190565b805182101561220c5760209160051b010190565b5f198114612148576001019056fea26469706673582212209e9b20679b32179c6dc289d593442b7a09d22b795b590a532db7c6efe82d13d864736f6c634300081c0033",
        "nonce": "0x0",
        "chainId": "0xaa36a7"
      },
      "additionalContracts": [],
      "isFixedGasLimit": false
    },
    {
      "hash": null,
      "transactionType": "CALL",
      "contractName": null,
      "contractAddress": "0xeddcb9a05bc9bc62334e2a6ae57883831c6c5786",
      "function": "mintPlayer(address,string,string)",
      "arguments": [
        "0x1804c8AB1F12E6bbf3894d4083f33e07309d1f38",
        "Pedri",
        "Barcelona"
      ],
      "transaction": {
        "from": "0xe122ca6c3413fbbf11a05f6ddbfc19d04ec407ed",
        "to": "0xeddcb9a05bc9bc62334e2a6ae57883831c6c5786",
        "gas": "0x3dd1c",
        "value": "0x0",
        "input": "0x8636ec410000000000000000000000001804c8ab1f12e6bbf3894d4083f33e07309d1f38000000000000000000000000000000000000000000000000000000000000006000000000000000000000000000000000000000000000000000000000000000a000000000000000000000000000000000000000000000000000000000000000055065647269000000000000000000000000000000000000000000000000000000000000000000000000000000000000000000000000000000000000000000000942617263656c6f6e610000000000000000000000000000000000000000000000",
        "nonce": "0x10",
        "chainId": "0xaa36a7"
      },
      "additionalContracts": [],
      "isFixedGasLimit": false
    },
    {
      "hash": null,
      "transactionType": "CALL",
      "contractName": null,
      "contractAddress": "0xeddcb9a05bc9bc62334e2a6ae57883831c6c5786",
      "function": "mintPlayer(address,string,string)",
      "arguments": [
        "0x1804c8AB1F12E6bbf3894d4083f33e07309d1f38",
        "Gavi",
        "Barcelona"
      ],
      "transaction": {
        "from": "0xe122ca6c3413fbbf11a05f6ddbfc19d04ec407ed",
        "to": "0xeddcb9a05bc9bc62334e2a6ae57883831c6c5786",
        "gas": "0x38b59",
        "value": "0x0",
        "input": "0x8636ec410000000000000000000000001804c8ab1f12e6bbf3894d4083f33e07309d1f38000000000000000000000000000000000000000000000000000000000000006000000000000000000000000000000000000000000000000000000000000000a000000000000000000000000000000000000000000000000000000000000000044761766900000000000000000000000000000000000000000000000000000000000000000000000000000000000000000000000000000000000000000000000942617263656c6f6e610000000000000000000000000000000000000000000000",
        "nonce": "0x11",
        "chainId": "0xaa36a7"
      },
      "additionalContracts": [],
      "isFixedGasLimit": false
    },
    {
      "hash": null,
      "transactionType": "CALL",
      "contractName": null,
      "contractAddress": "0xeddcb9a05bc9bc62334e2a6ae57883831c6c5786",
      "function": "mintPlayer(address,string,string)",
      "arguments": [
        "0x1804c8AB1F12E6bbf3894d4083f33e07309d1f38",
        "Ter Stegen",
        "Barcelona"
      ],
      "transaction": {
        "from": "0xe122ca6c3413fbbf11a05f6ddbfc19d04ec407ed",
        "to": "0xeddcb9a05bc9bc62334e2a6ae57883831c6c5786",
        "gas": "0x38bc2",
        "value": "0x0",
        "input": "0x8636ec410000000000000000000000001804c8ab1f12e6bbf3894d4083f33e07309d1f38000000000000000000000000000000000000000000000000000000000000006000000000000000000000000000000000000000000000000000000000000000a0000000000000000000000000000000000000000000000000000000000000000a5465722053746567656e00000000000000000000000000000000000000000000000000000000000000000000000000000000000000000000000000000000000942617263656c6f6e610000000000000000000000000000000000000000000000",
        "nonce": "0x12",
        "chainId": "0xaa36a7"
      },
      "additionalContracts": [],
      "isFixedGasLimit": false
    },
    {
      "hash": null,
      "transactionType": "CALL",
      "contractName": null,
      "contractAddress": "0xeddcb9a05bc9bc62334e2a6ae57883831c6c5786",
      "function": "mintPlayer(address,string,string)",
      "arguments": [
        "0x1804c8AB1F12E6bbf3894d4083f33e07309d1f38",
        "De Jong",
        "Barcelona"
      ],
      "transaction": {
        "from": "0xe122ca6c3413fbbf11a05f6ddbfc19d04ec407ed",
        "to": "0xeddcb9a05bc9bc62334e2a6ae57883831c6c5786",
        "gas": "0x35921",
        "value": "0x0",
        "input": "0x8636ec410000000000000000000000001804c8ab1f12e6bbf3894d4083f33e07309d1f38000000000000000000000000000000000000000000000000000000000000006000000000000000000000000000000000000000000000000000000000000000a000000000000000000000000000000000000000000000000000000000000000074465204a6f6e6700000000000000000000000000000000000000000000000000000000000000000000000000000000000000000000000000000000000000000942617263656c6f6e610000000000000000000000000000000000000000000000",
        "nonce": "0x13",
        "chainId": "0xaa36a7"
      },
      "additionalContracts": [],
      "isFixedGasLimit": false
    },
    {
      "hash": null,
      "transactionType": "CALL",
      "contractName": null,
      "contractAddress": "0xeddcb9a05bc9bc62334e2a6ae57883831c6c5786",
      "function": "mintPlayer(address,string,string)",
      "arguments": [
        "0x1804c8AB1F12E6bbf3894d4083f33e07309d1f38",
        "Araujo",
        "Barcelona"
      ],
      "transaction": {
        "from": "0xe122ca6c3413fbbf11a05f6ddbfc19d04ec407ed",
        "to": "0xeddcb9a05bc9bc62334e2a6ae57883831c6c5786",
        "gas": "0x38b7c",
        "value": "0x0",
        "input": "0x8636ec410000000000000000000000001804c8ab1f12e6bbf3894d4083f33e07309d1f38000000000000000000000000000000000000000000000000000000000000006000000000000000000000000000000000000000000000000000000000000000a00000000000000000000000000000000000000000000000000000000000000006417261756a6f0000000000000000000000000000000000000000000000000000000000000000000000000000000000000000000000000000000000000000000942617263656c6f6e610000000000000000000000000000000000000000000000",
        "nonce": "0x14",
        "chainId": "0xaa36a7"
      },
      "additionalContracts": [],
      "isFixedGasLimit": false
    },
    {
      "hash": null,
      "transactionType": "CALL",
      "contractName": null,
      "contractAddress": "0xeddcb9a05bc9bc62334e2a6ae57883831c6c5786",
      "function": "mintPlayer(address,string,string)",
      "arguments": [
        "0x1804c8AB1F12E6bbf3894d4083f33e07309d1f38",
        "Raphinha",
        "Barcelona"
      ],
      "transaction": {
        "from": "0xe122ca6c3413fbbf11a05f6ddbfc19d04ec407ed",
        "to": "0xeddcb9a05bc9bc62334e2a6ae57883831c6c5786",
        "gas": "0x38b9f",
        "value": "0x0",
        "input": "0x8636ec410000000000000000000000001804c8ab1f12e6bbf3894d4083f33e07309d1f38000000000000000000000000000000000000000000000000000000000000006000000000000000000000000000000000000000000000000000000000000000a0000000000000000000000000000000000000000000000000000000000000000852617068696e6861000000000000000000000000000000000000000000000000000000000000000000000000000000000000000000000000000000000000000942617263656c6f6e610000000000000000000000000000000000000000000000",
        "nonce": "0x15",
        "chainId": "0xaa36a7"
      },
      "additionalContracts": [],
      "isFixedGasLimit": false
    },
    {
      "hash": null,
      "transactionType": "CALL",
      "contractName": null,
      "contractAddress": "0xeddcb9a05bc9bc62334e2a6ae57883831c6c5786",
      "function": "mintPlayer(address,string,string)",
      "arguments": [
        "0x1804c8AB1F12E6bbf3894d4083f33e07309d1f38",
        "Cubarsi",
        "Barcelona"
      ],
      "transaction": {
        "from": "0xe122ca6c3413fbbf11a05f6ddbfc19d04ec407ed",
        "to": "0xeddcb9a05bc9bc62334e2a6ae57883831c6c5786",
        "gas": "0x35921",
        "value": "0x0",
        "input": "0x8636ec410000000000000000000000001804c8ab1f12e6bbf3894d4083f33e07309d1f38000000000000000000000000000000000000000000000000000000000000006000000000000000000000000000000000000000000000000000000000000000a000000000000000000000000000000000000000000000000000000000000000074375626172736900000000000000000000000000000000000000000000000000000000000000000000000000000000000000000000000000000000000000000942617263656c6f6e610000000000000000000000000000000000000000000000",
        "nonce": "0x16",
        "chainId": "0xaa36a7"
      },
      "additionalContracts": [],
      "isFixedGasLimit": false
    },
    {
      "hash": null,
      "transactionType": "CALL",
      "contractName": null,
      "contractAddress": "0xeddcb9a05bc9bc62334e2a6ae57883831c6c5786",
      "function": "mintPlayer(address,string,string)",
      "arguments": [
        "0x1804c8AB1F12E6bbf3894d4083f33e07309d1f38",
        "Kounde",
        "Barcelona"
      ],
      "transaction": {
        "from": "0xe122ca6c3413fbbf11a05f6ddbfc19d04ec407ed",
        "to": "0xeddcb9a05bc9bc62334e2a6ae57883831c6c5786",
        "gas": "0x38b7c",
        "value": "0x0",
        "input": "0x8636ec410000000000000000000000001804c8ab1f12e6bbf3894d4083f33e07309d1f38000000000000000000000000000000000000000000000000000000000000006000000000000000000000000000000000000000000000000000000000000000a000000000000000000000000000000000000000000000000000000000000000064b6f756e64650000000000000000000000000000000000000000000000000000000000000000000000000000000000000000000000000000000000000000000942617263656c6f6e610000000000000000000000000000000000000000000000",
        "nonce": "0x17",
        "chainId": "0xaa36a7"
      },
      "additionalContracts": [],
      "isFixedGasLimit": false
    },
    {
      "hash": null,
      "transactionType": "CALL",
      "contractName": null,
      "contractAddress": "0xeddcb9a05bc9bc62334e2a6ae57883831c6c5786",
      "function": "mintPlayer(address,string,string)",
      "arguments": [
        "0x1804c8AB1F12E6bbf3894d4083f33e07309d1f38",
        "Lamine Yamal",
        "Barcelona"
      ],
      "transaction": {
        "from": "0xe122ca6c3413fbbf11a05f6ddbfc19d04ec407ed",
        "to": "0xeddcb9a05bc9bc62334e2a6ae57883831c6c5786",
        "gas": "0x38be5",
        "value": "0x0",
        "input": "0x8636ec410000000000000000000000001804c8ab1f12e6bbf3894d4083f33e07309d1f38000000000000000000000000000000000000000000000000000000000000006000000000000000000000000000000000000000000000000000000000000000a0000000000000000000000000000000000000000000000000000000000000000c4c616d696e652059616d616c0000000000000000000000000000000000000000000000000000000000000000000000000000000000000000000000000000000942617263656c6f6e610000000000000000000000000000000000000000000000",
        "nonce": "0x18",
        "chainId": "0xaa36a7"
      },
      "additionalContracts": [],
      "isFixedGasLimit": false
    },
    {
      "hash": null,
      "transactionType": "CALL",
      "contractName": null,
      "contractAddress": "0xeddcb9a05bc9bc62334e2a6ae57883831c6c5786",
      "function": "mintPlayer(address,string,string)",
      "arguments": [
        "0x1804c8AB1F12E6bbf3894d4083f33e07309d1f38",
        "Balde",
        "Barcelona"
      ],
      "transaction": {
        "from": "0xe122ca6c3413fbbf11a05f6ddbfc19d04ec407ed",
        "to": "0xeddcb9a05bc9bc62334e2a6ae57883831c6c5786",
        "gas": "0x35901",
        "value": "0x0",
        "input": "0x8636ec410000000000000000000000001804c8ab1f12e6bbf3894d4083f33e07309d1f38000000000000000000000000000000000000000000000000000000000000006000000000000000000000000000000000000000000000000000000000000000a0000000000000000000000000000000000000000000000000000000000000000542616c6465000000000000000000000000000000000000000000000000000000000000000000000000000000000000000000000000000000000000000000000942617263656c6f6e610000000000000000000000000000000000000000000000",
        "nonce": "0x19",
        "chainId": "0xaa36a7"
      },
      "additionalContracts": [],
      "isFixedGasLimit": false
    },
    {
      "hash": null,
      "transactionType": "CALL",
      "contractName": null,
      "contractAddress": "0xeddcb9a05bc9bc62334e2a6ae57883831c6c5786",
      "function": "mintPlayer(address,string,string)",
      "arguments": [
        "0x1804c8AB1F12E6bbf3894d4083f33e07309d1f38",
        "Bellingham",
        "Real Madrid"
      ],
      "transaction": {
        "from": "0xe122ca6c3413fbbf11a05f6ddbfc19d04ec407ed",
        "to": "0xeddcb9a05bc9bc62334e2a6ae57883831c6c5786",
        "gas": "0x38be5",
        "value": "0x0",
        "input": "0x8636ec410000000000000000000000001804c8ab1f12e6bbf3894d4083f33e07309d1f38000000000000000000000000000000000000000000000000000000000000006000000000000000000000000000000000000000000000000000000000000000a0000000000000000000000000000000000000000000000000000000000000000a42656c6c696e6768616d00000000000000000000000000000000000000000000000000000000000000000000000000000000000000000000000000000000000b5265616c204d6164726964000000000000000000000000000000000000000000",
        "nonce": "0x1a",
        "chainId": "0xaa36a7"
      },
      "additionalContracts": [],
      "isFixedGasLimit": false
    },
    {
      "hash": null,
      "transactionType": "CALL",
      "contractName": null,
      "contractAddress": "0xeddcb9a05bc9bc62334e2a6ae57883831c6c5786",
      "function": "mintPlayer(address,string,string)",
      "arguments": [
        "0x1804c8AB1F12E6bbf3894d4083f33e07309d1f38",
        "Vinicius",
        "Real Madrid"
      ],
      "transaction": {
        "from": "0xe122ca6c3413fbbf11a05f6ddbfc19d04ec407ed",
        "to": "0xeddcb9a05bc9bc62334e2a6ae57883831c6c5786",
        "gas": "0x38bc2",
        "value": "0x0",
        "input": "0x8636ec410000000000000000000000001804c8ab1f12e6bbf3894d4083f33e07309d1f38000000000000000000000000000000000000000000000000000000000000006000000000000000000000000000000000000000000000000000000000000000a0000000000000000000000000000000000000000000000000000000000000000856696e6963697573000000000000000000000000000000000000000000000000000000000000000000000000000000000000000000000000000000000000000b5265616c204d6164726964000000000000000000000000000000000000000000",
        "nonce": "0x1b",
        "chainId": "0xaa36a7"
      },
      "additionalContracts": [],
      "isFixedGasLimit": false
    },
    {
      "hash": null,
      "transactionType": "CALL",
      "contractName": null,
      "contractAddress": "0xeddcb9a05bc9bc62334e2a6ae57883831c6c5786",
      "function": "mintPlayer(address,string,string)",
      "arguments": [
        "0x1804c8AB1F12E6bbf3894d4083f33e07309d1f38",
        "Rodrygo",
        "Real Madrid"
      ],
      "transaction": {
        "from": "0xe122ca6c3413fbbf11a05f6ddbfc19d04ec407ed",
        "to": "0xeddcb9a05bc9bc62334e2a6ae57883831c6c5786",
        "gas": "0x35943",
        "value": "0x0",
        "input": "0x8636ec410000000000000000000000001804c8ab1f12e6bbf3894d4083f33e07309d1f38000000000000000000000000000000000000000000000000000000000000006000000000000000000000000000000000000000000000000000000000000000a00000000000000000000000000000000000000000000000000000000000000007526f647279676f00000000000000000000000000000000000000000000000000000000000000000000000000000000000000000000000000000000000000000b5265616c204d6164726964000000000000000000000000000000000000000000",
        "nonce": "0x1c",
        "chainId": "0xaa36a7"
      },
      "additionalContracts": [],
      "isFixedGasLimit": false
    },
    {
      "hash": null,
      "transactionType": "CALL",
      "contractName": null,
      "contractAddress": "0xeddcb9a05bc9bc62334e2a6ae57883831c6c5786",
      "function": "mintPlayer(address,string,string)",
      "arguments": [
        "0x1804c8AB1F12E6bbf3894d4083f33e07309d1f38",
        "Mbappe",
        "Real Madrid"
      ],
      "transaction": {
        "from": "0xe122ca6c3413fbbf11a05f6ddbfc19d04ec407ed",
        "to": "0xeddcb9a05bc9bc62334e2a6ae57883831c6c5786",
        "gas": "0x38b9f",
        "value": "0x0",
        "input": "0x8636ec410000000000000000000000001804c8ab1f12e6bbf3894d4083f33e07309d1f38000000000000000000000000000000000000000000000000000000000000006000000000000000000000000000000000000000000000000000000000000000a000000000000000000000000000000000000000000000000000000000000000064d62617070650000000000000000000000000000000000000000000000000000000000000000000000000000000000000000000000000000000000000000000b5265616c204d6164726964000000000000000000000000000000000000000000",
        "nonce": "0x1d",
        "chainId": "0xaa36a7"
      },
      "additionalContracts": [],
      "isFixedGasLimit": false
    },
    {
      "hash": null,
      "transactionType": "CALL",
      "contractName": null,
      "contractAddress": "0xeddcb9a05bc9bc62334e2a6ae57883831c6c5786",
      "function": "mintPlayer(address,string,string)",
      "arguments": [
        "0x1804c8AB1F12E6bbf3894d4083f33e07309d1f38",
        "Modric",
        "Real Madrid"
      ],
      "transaction": {
        "from": "0xe122ca6c3413fbbf11a05f6ddbfc19d04ec407ed",
        "to": "0xeddcb9a05bc9bc62334e2a6ae57883831c6c5786",
        "gas": "0x38b9f",
        "value": "0x0",
        "input": "0x8636ec410000000000000000000000001804c8ab1f12e6bbf3894d4083f33e07309d1f38000000000000000000000000000000000000000000000000000000000000006000000000000000000000000000000000000000000000000000000000000000a000000000000000000000000000000000000000000000000000000000000000064d6f647269630000000000000000000000000000000000000000000000000000000000000000000000000000000000000000000000000000000000000000000b5265616c204d6164726964000000000000000000000000000000000000000000",
        "nonce": "0x1e",
        "chainId": "0xaa36a7"
      },
      "additionalContracts": [],
      "isFixedGasLimit": false
    },
    {
      "hash": null,
      "transactionType": "CALL",
      "contractName": null,
      "contractAddress": "0xeddcb9a05bc9bc62334e2a6ae57883831c6c5786",
      "function": "mintPlayer(address,string,string)",
      "arguments": [
        "0x1804c8AB1F12E6bbf3894d4083f33e07309d1f38",
        "Courtois",
        "Real Madrid"
      ],
      "transaction": {
        "from": "0xe122ca6c3413fbbf11a05f6ddbfc19d04ec407ed",
        "to": "0xeddcb9a05bc9bc62334e2a6ae57883831c6c5786",
        "gas": "0x38bc2",
        "value": "0x0",
        "input": "0x8636ec410000000000000000000000001804c8ab1f12e6bbf3894d4083f33e07309d1f38000000000000000000000000000000000000000000000000000000000000006000000000000000000000000000000000000000000000000000000000000000a00000000000000000000000000000000000000000000000000000000000000008436f7572746f6973000000000000000000000000000000000000000000000000000000000000000000000000000000000000000000000000000000000000000b5265616c204d6164726964000000000000000000000000000000000000000000",
        "nonce": "0x1f",
        "chainId": "0xaa36a7"
      },
      "additionalContracts": [],
      "isFixedGasLimit": false
    },
    {
      "hash": null,
      "transactionType": "CALL",
      "contractName": null,
      "contractAddress": "0xeddcb9a05bc9bc62334e2a6ae57883831c6c5786",
      "function": "mintPlayer(address,string,string)",
      "arguments": [
        "0x1804c8AB1F12E6bbf3894d4083f33e07309d1f38",
        "Tchouameni",
        "Real Madrid"
      ],
      "transaction": {
        "from": "0xe122ca6c3413fbbf11a05f6ddbfc19d04ec407ed",
        "to": "0xeddcb9a05bc9bc62334e2a6ae57883831c6c5786",
        "gas": "0x38be5",
        "value": "0x0",
        "input": "0x8636ec410000000000000000000000001804c8ab1f12e6bbf3894d4083f33e07309d1f38000000000000000000000000000000000000000000000000000000000000006000000000000000000000000000000000000000000000000000000000000000a0000000000000000000000000000000000000000000000000000000000000000a5463686f75616d656e6900000000000000000000000000000000000000000000000000000000000000000000000000000000000000000000000000000000000b5265616c204d6164726964000000000000000000000000000000000000000000",
        "nonce": "0x20",
        "chainId": "0xaa36a7"
      },
      "additionalContracts": [],
      "isFixedGasLimit": false
    },
    {
      "hash": null,
      "transactionType": "CALL",
      "contractName": null,
      "contractAddress": "0xeddcb9a05bc9bc62334e2a6ae57883831c6c5786",
      "function": "mintPlayer(address,string,string)",
      "arguments": [
        "0x1804c8AB1F12E6bbf3894d4083f33e07309d1f38",
        "Rudiger",
        "Real Madrid"
      ],
      "transaction": {
        "from": "0xe122ca6c3413fbbf11a05f6ddbfc19d04ec407ed",
        "to": "0xeddcb9a05bc9bc62334e2a6ae57883831c6c5786",
        "gas": "0x35943",
        "value": "0x0",
        "input": "0x8636ec410000000000000000000000001804c8ab1f12e6bbf3894d4083f33e07309d1f38000000000000000000000000000000000000000000000000000000000000006000000000000000000000000000000000000000000000000000000000000000a000000000000000000000000000000000000000000000000000000000000000075275646967657200000000000000000000000000000000000000000000000000000000000000000000000000000000000000000000000000000000000000000b5265616c204d6164726964000000000000000000000000000000000000000000",
        "nonce": "0x21",
        "chainId": "0xaa36a7"
      },
      "additionalContracts": [],
      "isFixedGasLimit": false
    },
    {
      "hash": null,
      "transactionType": "CALL",
      "contractName": null,
      "contractAddress": "0xeddcb9a05bc9bc62334e2a6ae57883831c6c5786",
      "function": "mintPlayer(address,string,string)",
      "arguments": [
        "0x1804c8AB1F12E6bbf3894d4083f33e07309d1f38",
        "Valverde",
        "Real Madrid"
      ],
      "transaction": {
        "from": "0xe122ca6c3413fbbf11a05f6ddbfc19d04ec407ed",
        "to": "0xeddcb9a05bc9bc62334e2a6ae57883831c6c5786",
        "gas": "0x38bc2",
        "value": "0x0",
        "input": "0x8636ec410000000000000000000000001804c8ab1f12e6bbf3894d4083f33e07309d1f38000000000000000000000000000000000000000000000000000000000000006000000000000000000000000000000000000000000000000000000000000000a0000000000000000000000000000000000000000000000000000000000000000856616c7665726465000000000000000000000000000000000000000000000000000000000000000000000000000000000000000000000000000000000000000b5265616c204d6164726964000000000000000000000000000000000000000000",
        "nonce": "0x22",
        "chainId": "0xaa36a7"
      },
      "additionalContracts": [],
      "isFixedGasLimit": false
    },
    {
      "hash": null,
      "transactionType": "CALL",
      "contractName": null,
      "contractAddress": "0xeddcb9a05bc9bc62334e2a6ae57883831c6c5786",
      "function": "mintPlayer(address,string,string)",
      "arguments": [
        "0x1804c8AB1F12E6bbf3894d4083f33e07309d1f38",
        "Mendy",
        "Real Madrid"
      ],
      "transaction": {
        "from": "0xe122ca6c3413fbbf11a05f6ddbfc19d04ec407ed",
        "to": "0xeddcb9a05bc9bc62334e2a6ae57883831c6c5786",
        "gas": "0x35921",
        "value": "0x0",
        "input": "0x8636ec410000000000000000000000001804c8ab1f12e6bbf3894d4083f33e07309d1f38000000000000000000000000000000000000000000000000000000000000006000000000000000000000000000000000000000000000000000000000000000a000000000000000000000000000000000000000000000000000000000000000054d656e6479000000000000000000000000000000000000000000000000000000000000000000000000000000000000000000000000000000000000000000000b5265616c204d6164726964000000000000000000000000000000000000000000",
        "nonce": "0x23",
        "chainId": "0xaa36a7"
      },
      "additionalContracts": [],
      "isFixedGasLimit": false
    }
  ],
  "receipts": [],
  "libraries": [
    "script/SavePlayers.s.sol:SavePlayers:0xaC8ae94Eac4809cdaAbD72eB2C0147d82b50AbD4"
  ],
  "pending": [],
  "returns": {},
  "timestamp": 1745601746,
  "chain": 11155111,
  "commit": "f405859"
}