{
  "transactions": [
    {
      "hash": "0xe6bb309c0b843ac844de51d7c72bbce6141234249eb706385d5f48647f28998f",
      "transactionType": "CALL",
      "contractName": null,
      "contractAddress": "0xeddcb9a05bc9bc62334e2a6ae57883831c6c5786",
      "function": "mintPlayer(address,string,string)",
      "arguments": [
        "0xE122CA6C3413FbbF11a05F6DdBfC19d04EC407eD",
        "Blind",
        "Girona"
      ],
      "transaction": {
        "from": "0xe122ca6c3413fbbf11a05f6ddbfc19d04ec407ed",
        "to": "0xeddcb9a05bc9bc62334e2a6ae57883831c6c5786",
        "gas": "0x34b51",
        "value": "0x0",
        "input": "0x8636ec41000000000000000000000000e122ca6c3413fbbf11a05f6ddbfc19d04ec407ed000000000000000000000000000000000000000000000000000000000000006000000000000000000000000000000000000000000000000000000000000000a00000000000000000000000000000000000000000000000000000000000000005426c696e6400000000000000000000000000000000000000000000000000000000000000000000000000000000000000000000000000000000000000000000064769726f6e610000000000000000000000000000000000000000000000000000",
        "nonce": "0x63",
        "chainId": "0xaa36a7"
      },
      "additionalContracts": [],
      "isFixedGasLimit": false
    },
    {
      "hash": "0xdffad62543e0604b265c8e9e55709fa44d83a15af3576c1f1519b00562d9b5a1",
      "transactionType": "CALL",
      "contractName": null,
      "contractAddress": "0xeddcb9a05bc9bc62334e2a6ae57883831c6c5786",
      "function": "mintPlayer(address,string,string)",
      "arguments": [
        "0xE122CA6C3413FbbF11a05F6DdBfC19d04EC407eD",
        "Tsygankov",
        "Girona"
      ],
      "transaction": {
        "from": "0xe122ca6c3413fbbf11a05f6ddbfc19d04ec407ed",
        "to": "0xeddcb9a05bc9bc62334e2a6ae57883831c6c5786",
        "gas": "0x34b94",
        "value": "0x0",
        "input": "0x8636ec41000000000000000000000000e122ca6c3413fbbf11a05f6ddbfc19d04ec407ed000000000000000000000000000000000000000000000000000000000000006000000000000000000000000000000000000000000000000000000000000000a0000000000000000000000000000000000000000000000000000000000000000954737967616e6b6f76000000000000000000000000000000000000000000000000000000000000000000000000000000000000000000000000000000000000064769726f6e610000000000000000000000000000000000000000000000000000",
        "nonce": "0x64",
        "chainId": "0xaa36a7"
      },
      "additionalContracts": [],
      "isFixedGasLimit": false
    },
    {
      "hash": "0xae6f2cc7e4294c5fd50ea0d8a6d538a6871968c56c7125005e9f9eaaf47137d1",
      "transactionType": "CALL",
      "contractName": null,
      "contractAddress": "0xeddcb9a05bc9bc62334e2a6ae57883831c6c5786",
      "function": "mintPlayer(address,string,string)",
      "arguments": [
        "0xE122CA6C3413FbbF11a05F6DdBfC19d04EC407eD",
        "Bryan Gil",
        "Girona"
      ],
      "transaction": {
        "from": "0xe122ca6c3413fbbf11a05f6ddbfc19d04ec407ed",
        "to": "0xeddcb9a05bc9bc62334e2a6ae57883831c6c5786",
        "gas": "0x34b94",
        "value": "0x0",
        "input": "0x8636ec41000000000000000000000000e122ca6c3413fbbf11a05f6ddbfc19d04ec407ed000000000000000000000000000000000000000000000000000000000000006000000000000000000000000000000000000000000000000000000000000000a00000000000000000000000000000000000000000000000000000000000000009427279616e2047696c000000000000000000000000000000000000000000000000000000000000000000000000000000000000000000000000000000000000064769726f6e610000000000000000000000000000000000000000000000000000",
        "nonce": "0x65",
        "chainId": "0xaa36a7"
      },
      "additionalContracts": [],
      "isFixedGasLimit": false
    },
    {
      "hash": "0x718842172d69fcd50d2a88091e158561b7ef6f2e7e5e06c2b2ddd9e032682be3",
      "transactionType": "CALL",
      "contractName": null,
      "contractAddress": "0xeddcb9a05bc9bc62334e2a6ae57883831c6c5786",
      "function": "mintPlayer(address,string,string)",
      "arguments": [
        "0xE122CA6C3413FbbF11a05F6DdBfC19d04EC407eD",
        "Danjuma",
        "Girona"
      ],
      "transaction": {
        "from": "0xe122ca6c3413fbbf11a05f6ddbfc19d04ec407ed",
        "to": "0xeddcb9a05bc9bc62334e2a6ae57883831c6c5786",
        "gas": "0x34b73",
        "value": "0x0",
        "input": "0x8636ec41000000000000000000000000e122ca6c3413fbbf11a05f6ddbfc19d04ec407ed000000000000000000000000000000000000000000000000000000000000006000000000000000000000000000000000000000000000000000000000000000a0000000000000000000000000000000000000000000000000000000000000000744616e6a756d610000000000000000000000000000000000000000000000000000000000000000000000000000000000000000000000000000000000000000064769726f6e610000000000000000000000000000000000000000000000000000",
        "nonce": "0x66",
        "chainId": "0xaa36a7"
      },
      "additionalContracts": [],
      "isFixedGasLimit": false
    },
    {
      "hash": "0x946a21ecb61eeeba0e82e553ae052e0dce078ef4b8fe652e8bdfa7c476d5ba57",
      "transactionType": "CALL",
      "contractName": null,
      "contractAddress": "0xeddcb9a05bc9bc62334e2a6ae57883831c6c5786",
      "function": "mintPlayer(address,string,string)",
      "arguments": [
        "0xE122CA6C3413FbbF11a05F6DdBfC19d04EC407eD",
        "Sergio Herrera",
        "Osasuna"
      ],
      "transaction": {
        "from": "0xe122ca6c3413fbbf11a05f6ddbfc19d04ec407ed",
        "to": "0xeddcb9a05bc9bc62334e2a6ae57883831c6c5786",
        "gas": "0x34bf8",
        "value": "0x0",
        "input": "0x8636ec41000000000000000000000000e122ca6c3413fbbf11a05f6ddbfc19d04ec407ed000000000000000000000000000000000000000000000000000000000000006000000000000000000000000000000000000000000000000000000000000000a0000000000000000000000000000000000000000000000000000000000000000e53657267696f204865727265726100000000000000000000000000000000000000000000000000000000000000000000000000000000000000000000000000074f736173756e6100000000000000000000000000000000000000000000000000",
        "nonce": "0x67",
        "chainId": "0xaa36a7"
      },
      "additionalContracts": [],
      "isFixedGasLimit": false
    },
    {
      "hash": "0x764d7d48c69ba595963ea3ac8674ec239fedf8acd72395ed83e502418ebc137d",
      "transactionType": "CALL",
      "contractName": null,
      "contractAddress": "0xeddcb9a05bc9bc62334e2a6ae57883831c6c5786",
      "function": "mintPlayer(address,string,string)",
      "arguments": [
        "0xE122CA6C3413FbbF11a05F6DdBfC19d04EC407eD",
        "Catena",
        "Osasuna"
      ],
      "transaction": {
        "from": "0xe122ca6c3413fbbf11a05f6ddbfc19d04ec407ed",
        "to": "0xeddcb9a05bc9bc62334e2a6ae57883831c6c5786",
        "gas": "0x34b73",
        "value": "0x0",
        "input": "0x8636ec41000000000000000000000000e122ca6c3413fbbf11a05f6ddbfc19d04ec407ed000000000000000000000000000000000000000000000000000000000000006000000000000000000000000000000000000000000000000000000000000000a00000000000000000000000000000000000000000000000000000000000000006436174656e61000000000000000000000000000000000000000000000000000000000000000000000000000000000000000000000000000000000000000000074f736173756e6100000000000000000000000000000000000000000000000000",
        "nonce": "0x68",
        "chainId": "0xaa36a7"
      },
      "additionalContracts": [],
      "isFixedGasLimit": false
    },
    {
      "hash": "0xdf999f321dd326bb90c0a7e9de2015a4f6df8c630b370299ed03b9578226900b",
      "transactionType": "CALL",
      "contractName": null,
      "contractAddress": "0xeddcb9a05bc9bc62334e2a6ae57883831c6c5786",
      "function": "mintPlayer(address,string,string)",
      "arguments": [
        "0xE122CA6C3413FbbF11a05F6DdBfC19d04EC407eD",
        "Bryan",
        "Osasuna"
      ],
      "transaction": {
        "from": "0xe122ca6c3413fbbf11a05f6ddbfc19d04ec407ed",
        "to": "0xeddcb9a05bc9bc62334e2a6ae57883831c6c5786",
        "gas": "0x37cff",
        "value": "0x0",
        "input": "0x8636ec41000000000000000000000000e122ca6c3413fbbf11a05f6ddbfc19d04ec407ed000000000000000000000000000000000000000000000000000000000000006000000000000000000000000000000000000000000000000000000000000000a00000000000000000000000000000000000000000000000000000000000000005427279616e00000000000000000000000000000000000000000000000000000000000000000000000000000000000000000000000000000000000000000000074f736173756e6100000000000000000000000000000000000000000000000000",
        "nonce": "0x69",
        "chainId": "0xaa36a7"
      },
      "additionalContracts": [],
      "isFixedGasLimit": false
    },
    {
      "hash": "0x5a4d92a46e74b7eff890fd08e03563cb01538b6cbd5a9dd6f9e8eaa4d98e5af3",
      "transactionType": "CALL",
      "contractName": null,
      "contractAddress": "0xeddcb9a05bc9bc62334e2a6ae57883831c6c5786",
      "function": "mintPlayer(address,string,string)",
      "arguments": [
        "0xE122CA6C3413FbbF11a05F6DdBfC19d04EC407eD",
        "Budimir",
        "Osasuna"
      ],
      "transaction": {
        "from": "0xe122ca6c3413fbbf11a05f6ddbfc19d04ec407ed",
        "to": "0xeddcb9a05bc9bc62334e2a6ae57883831c6c5786",
        "gas": "0x37d22",
        "value": "0x0",
        "input": "0x8636ec41000000000000000000000000e122ca6c3413fbbf11a05f6ddbfc19d04ec407ed000000000000000000000000000000000000000000000000000000000000006000000000000000000000000000000000000000000000000000000000000000a00000000000000000000000000000000000000000000000000000000000000007427564696d69720000000000000000000000000000000000000000000000000000000000000000000000000000000000000000000000000000000000000000074f736173756e6100000000000000000000000000000000000000000000000000",
        "nonce": "0x6a",
        "chainId": "0xaa36a7"
      },
      "additionalContracts": [],
      "isFixedGasLimit": false
    },
    {
      "hash": "0xb77950924042cdef6201b6a58cf72ecac45de6d797b21e6daa32168ac75134b7",
      "transactionType": "CALL",
      "contractName": null,
      "contractAddress": "0xeddcb9a05bc9bc62334e2a6ae57883831c6c5786",
      "function": "mintPlayer(address,string,string)",
      "arguments": [
        "0xE122CA6C3413FbbF11a05F6DdBfC19d04EC407eD",
        "Ruben Garcia",
        "Osasuna"
      ],
      "transaction": {
        "from": "0xe122ca6c3413fbbf11a05f6ddbfc19d04ec407ed",
        "to": "0xeddcb9a05bc9bc62334e2a6ae57883831c6c5786",
        "gas": "0x34bd6",
        "value": "0x0",
        "input": "0x8636ec41000000000000000000000000e122ca6c3413fbbf11a05f6ddbfc19d04ec407ed000000000000000000000000000000000000000000000000000000000000006000000000000000000000000000000000000000000000000000000000000000a0000000000000000000000000000000000000000000000000000000000000000c527562656e20476172636961000000000000000000000000000000000000000000000000000000000000000000000000000000000000000000000000000000074f736173756e6100000000000000000000000000000000000000000000000000",
        "nonce": "0x6b",
        "chainId": "0xaa36a7"
      },
      "additionalContracts": [],
      "isFixedGasLimit": false
    },
    {
      "hash": "0xd951ba55e45b7f04c7b167cbc4902ca7c98d0c26cb3d2052a7d77fe3599645b4",
      "transactionType": "CALL",
      "contractName": null,
      "contractAddress": "0xeddcb9a05bc9bc62334e2a6ae57883831c6c5786",
      "function": "mintPlayer(address,string,string)",
      "arguments": [
        "0xE122CA6C3413FbbF11a05F6DdBfC19d04EC407eD",
        "Aimar Oroz",
        "Osasuna"
      ],
      "transaction": {
        "from": "0xe122ca6c3413fbbf11a05f6ddbfc19d04ec407ed",
        "to": "0xeddcb9a05bc9bc62334e2a6ae57883831c6c5786",
        "gas": "0x34bb5",
        "value": "0x0",
        "input": "0x8636ec41000000000000000000000000e122ca6c3413fbbf11a05f6ddbfc19d04ec407ed000000000000000000000000000000000000000000000000000000000000006000000000000000000000000000000000000000000000000000000000000000a0000000000000000000000000000000000000000000000000000000000000000a41696d6172204f726f7a0000000000000000000000000000000000000000000000000000000000000000000000000000000000000000000000000000000000074f736173756e6100000000000000000000000000000000000000000000000000",
        "nonce": "0x6c",
        "chainId": "0xaa36a7"
      },
      "additionalContracts": [],
      "isFixedGasLimit": false
    },
    {
      "hash": "0x2549a8944f1acd8b40f01c62cb718d55568f0840f5ce30687c90d5d06760b91c",
      "transactionType": "CALL",
      "contractName": null,
      "contractAddress": "0xeddcb9a05bc9bc62334e2a6ae57883831c6c5786",
      "function": "mintPlayer(address,string,string)",
      "arguments": [
        "0xE122CA6C3413FbbF11a05F6DdBfC19d04EC407eD",
        "David Soria",
        "Getafe"
      ],
      "transaction": {
        "from": "0xe122ca6c3413fbbf11a05f6ddbfc19d04ec407ed",
        "to": "0xeddcb9a05bc9bc62334e2a6ae57883831c6c5786",
        "gas": "0x34bb5",
        "value": "0x0",
        "input": "0x8636ec41000000000000000000000000e122ca6c3413fbbf11a05f6ddbfc19d04ec407ed000000000000000000000000000000000000000000000000000000000000006000000000000000000000000000000000000000000000000000000000000000a0000000000000000000000000000000000000000000000000000000000000000b446176696420536f72696100000000000000000000000000000000000000000000000000000000000000000000000000000000000000000000000000000000064765746166650000000000000000000000000000000000000000000000000000",
        "nonce": "0x6d",
        "chainId": "0xaa36a7"
      },
      "additionalContracts": [],
      "isFixedGasLimit": false
    },
    {
      "hash": "0x542d6ce97211b16633d219274e420959f2a0c2e932ed9ac4cb046623215b2721",
      "transactionType": "CALL",
      "contractName": null,
      "contractAddress": "0xeddcb9a05bc9bc62334e2a6ae57883831c6c5786",
      "function": "mintPlayer(address,string,string)",
      "arguments": [
        "0xE122CA6C3413FbbF11a05F6DdBfC19d04EC407eD",
        "Alderete",
        "Getafe"
      ],
      "transaction": {
        "from": "0xe122ca6c3413fbbf11a05f6ddbfc19d04ec407ed",
        "to": "0xeddcb9a05bc9bc62334e2a6ae57883831c6c5786",
        "gas": "0x37d22",
        "value": "0x0",
        "input": "0x8636ec41000000000000000000000000e122ca6c3413fbbf11a05f6ddbfc19d04ec407ed000000000000000000000000000000000000000000000000000000000000006000000000000000000000000000000000000000000000000000000000000000a00000000000000000000000000000000000000000000000000000000000000008416c64657265746500000000000000000000000000000000000000000000000000000000000000000000000000000000000000000000000000000000000000064765746166650000000000000000000000000000000000000000000000000000",
        "nonce": "0x6e",
        "chainId": "0xaa36a7"
      },
      "additionalContracts": [],
      "isFixedGasLimit": false
    },
    {
      "hash": "0x482b57e38e9eabc9e9fc5aed954d9561dbc79d45b504926b971779b44ed79a08",
      "transactionType": "CALL",
      "contractName": null,
      "contractAddress": "0xeddcb9a05bc9bc62334e2a6ae57883831c6c5786",
      "function": "mintPlayer(address,string,string)",
      "arguments": [
        "0xE122CA6C3413FbbF11a05F6DdBfC19d04EC407eD",
        "Djene",
        "Getafe"
      ],
      "transaction": {
        "from": "0xe122ca6c3413fbbf11a05f6ddbfc19d04ec407ed",
        "to": "0xeddcb9a05bc9bc62334e2a6ae57883831c6c5786",
        "gas": "0x34b51",
        "value": "0x0",
        "input": "0x8636ec41000000000000000000000000e122ca6c3413fbbf11a05f6ddbfc19d04ec407ed000000000000000000000000000000000000000000000000000000000000006000000000000000000000000000000000000000000000000000000000000000a00000000000000000000000000000000000000000000000000000000000000005446a656e6500000000000000000000000000000000000000000000000000000000000000000000000000000000000000000000000000000000000000000000064765746166650000000000000000000000000000000000000000000000000000",
        "nonce": "0x6f",
        "chainId": "0xaa36a7"
      },
      "additionalContracts": [],
      "isFixedGasLimit": false
    },
    {
      "hash": "0xefc87d4f4f694106031a66d5312a51363deb6331ce66b8e25ee4796d0b67d257",
      "transactionType": "CALL",
      "contractName": null,
      "contractAddress": "0xeddcb9a05bc9bc62334e2a6ae57883831c6c5786",
      "function": "mintPlayer(address,string,string)",
      "arguments": [
        "0xE122CA6C3413FbbF11a05F6DdBfC19d04EC407eD",
        "Arrambari",
        "Getafe"
      ],
      "transaction": {
        "from": "0xe122ca6c3413fbbf11a05f6ddbfc19d04ec407ed",
        "to": "0xeddcb9a05bc9bc62334e2a6ae57883831c6c5786",
        "gas": "0x34b94",
        "value": "0x0",
        "input": "0x8636ec41000000000000000000000000e122ca6c3413fbbf11a05f6ddbfc19d04ec407ed000000000000000000000000000000000000000000000000000000000000006000000000000000000000000000000000000000000000000000000000000000a00000000000000000000000000000000000000000000000000000000000000009417272616d62617269000000000000000000000000000000000000000000000000000000000000000000000000000000000000000000000000000000000000064765746166650000000000000000000000000000000000000000000000000000",
        "nonce": "0x70",
        "chainId": "0xaa36a7"
      },
      "additionalContracts": [],
      "isFixedGasLimit": false
    },
    {
      "hash": "0xc72a1d209a5c419fa30f4f28d6d776da73afc52495ff81adc84d17ba0c1bfbd5",
      "transactionType": "CALL",
      "contractName": null,
      "contractAddress": "0xeddcb9a05bc9bc62334e2a6ae57883831c6c5786",
      "function": "mintPlayer(address,string,string)",
      "arguments": [
        "0xE122CA6C3413FbbF11a05F6DdBfC19d04EC407eD",
        "Mayoral",
        "Getafe"
      ],
      "transaction": {
        "from": "0xe122ca6c3413fbbf11a05f6ddbfc19d04ec407ed",
        "to": "0xeddcb9a05bc9bc62334e2a6ae57883831c6c5786",
        "gas": "0x34b73",
        "value": "0x0",
        "input": "0x8636ec41000000000000000000000000e122ca6c3413fbbf11a05f6ddbfc19d04ec407ed000000000000000000000000000000000000000000000000000000000000006000000000000000000000000000000000000000000000000000000000000000a000000000000000000000000000000000000000000000000000000000000000074d61796f72616c0000000000000000000000000000000000000000000000000000000000000000000000000000000000000000000000000000000000000000064765746166650000000000000000000000000000000000000000000000000000",
        "nonce": "0x71",
        "chainId": "0xaa36a7"
      },
      "additionalContracts": [],
      "isFixedGasLimit": false
    },
    {
      "hash": "0x7bc8907e66e2c8ab71fe8324d4d35d5351d39e3426a8779dc4f9c9c4b526cc88",
      "transactionType": "CALL",
      "contractName": null,
      "contractAddress": "0xeddcb9a05bc9bc62334e2a6ae57883831c6c5786",
      "function": "mintPlayer(address,string,string)",
      "arguments": [
        "0xE122CA6C3413FbbF11a05F6DdBfC19d04EC407eD",
        "Terrats",
        "Getafe"
      ],
      "transaction": {
        "from": "0xe122ca6c3413fbbf11a05f6ddbfc19d04ec407ed",
        "to": "0xeddcb9a05bc9bc62334e2a6ae57883831c6c5786",
        "gas": "0x34b73",
        "value": "0x0",
        "input": "0x8636ec41000000000000000000000000e122ca6c3413fbbf11a05f6ddbfc19d04ec407ed000000000000000000000000000000000000000000000000000000000000006000000000000000000000000000000000000000000000000000000000000000a00000000000000000000000000000000000000000000000000000000000000007546572726174730000000000000000000000000000000000000000000000000000000000000000000000000000000000000000000000000000000000000000064765746166650000000000000000000000000000000000000000000000000000",
        "nonce": "0x72",
        "chainId": "0xaa36a7"
      },
      "additionalContracts": [],
      "isFixedGasLimit": false
    },
    {
      "hash": "0x6c4e6696c5533acaf95a5228bd5774144f6858641c228240c863fe17b495f9a7",
      "transactionType": "CALL",
      "contractName": null,
      "contractAddress": "0xeddcb9a05bc9bc62334e2a6ae57883831c6c5786",
      "function": "mintPlayer(address,string,string)",
      "arguments": [
        "0xE122CA6C3413FbbF11a05F6DdBfC19d04EC407eD",
        "Joan Garcia",
        "Espanyol"
      ],
      "transaction": {
        "from": "0xe122ca6c3413fbbf11a05f6ddbfc19d04ec407ed",
        "to": "0xeddcb9a05bc9bc62334e2a6ae57883831c6c5786",
        "gas": "0x34bd6",
        "value": "0x0",
        "input": "0x8636ec41000000000000000000000000e122ca6c3413fbbf11a05f6ddbfc19d04ec407ed000000000000000000000000000000000000000000000000000000000000006000000000000000000000000000000000000000000000000000000000000000a0000000000000000000000000000000000000000000000000000000000000000b4a6f616e204761726369610000000000000000000000000000000000000000000000000000000000000000000000000000000000000000000000000000000008457370616e796f6c000000000000000000000000000000000000000000000000",
        "nonce": "0x73",
        "chainId": "0xaa36a7"
      },
      "additionalContracts": [],
      "isFixedGasLimit": false
    },
    {
      "hash": "0x1021ff28f489b2a0226a3a34322b1689aa92ac0ce71f0340b9afa7059910619d",
      "transactionType": "CALL",
      "contractName": null,
      "contractAddress": "0xeddcb9a05bc9bc62334e2a6ae57883831c6c5786",
      "function": "mintPlayer(address,string,string)",
      "arguments": [
        "0xE122CA6C3413FbbF11a05F6DdBfC19d04EC407eD",
        "Omar El Hilali",
        "Espanyol"
      ],
      "transaction": {
        "from": "0xe122ca6c3413fbbf11a05f6ddbfc19d04ec407ed",
        "to": "0xeddcb9a05bc9bc62334e2a6ae57883831c6c5786",
        "gas": "0x37daf",
        "value": "0x0",
        "input": "0x8636ec41000000000000000000000000e122ca6c3413fbbf11a05f6ddbfc19d04ec407ed000000000000000000000000000000000000000000000000000000000000006000000000000000000000000000000000000000000000000000000000000000a0000000000000000000000000000000000000000000000000000000000000000e4f6d617220456c2048696c616c690000000000000000000000000000000000000000000000000000000000000000000000000000000000000000000000000008457370616e796f6c000000000000000000000000000000000000000000000000",
        "nonce": "0x74",
        "chainId": "0xaa36a7"
      },
      "additionalContracts": [],
      "isFixedGasLimit": false
    },
    {
      "hash": "0x5792b64d37b659e86d6b790b8a6c84d979d633f2964a5baa46bd6e57c98c8cc8",
      "transactionType": "CALL",
      "contractName": null,
      "contractAddress": "0xeddcb9a05bc9bc62334e2a6ae57883831c6c5786",
      "function": "mintPlayer(address,string,string)",
      "arguments": [
        "0xE122CA6C3413FbbF11a05F6DdBfC19d04EC407eD",
        "Kumbulla",
        "Espanyol"
      ],
      "transaction": {
        "from": "0xe122ca6c3413fbbf11a05f6ddbfc19d04ec407ed",
        "to": "0xeddcb9a05bc9bc62334e2a6ae57883831c6c5786",
        "gas": "0x37d45",
        "value": "0x0",
        "input": "0x8636ec41000000000000000000000000e122ca6c3413fbbf11a05f6ddbfc19d04ec407ed000000000000000000000000000000000000000000000000000000000000006000000000000000000000000000000000000000000000000000000000000000a000000000000000000000000000000000000000000000000000000000000000084b756d62756c6c610000000000000000000000000000000000000000000000000000000000000000000000000000000000000000000000000000000000000008457370616e796f6c000000000000000000000000000000000000000000000000",
        "nonce": "0x75",
        "chainId": "0xaa36a7"
      },
      "additionalContracts": [],
      "isFixedGasLimit": false
    },
    {
      "hash": "0xc1afd85d4b6dc8cfef3071838795d77ad3cff619f3105a7529336d6c629a3002",
      "transactionType": "CALL",
      "contractName": null,
      "contractAddress": "0xeddcb9a05bc9bc62334e2a6ae57883831c6c5786",
      "function": "mintPlayer(address,string,string)",
      "arguments": [
        "0xE122CA6C3413FbbF11a05F6DdBfC19d04EC407eD",
        "Jofre",
        "Espanyol"
      ],
      "transaction": {
        "from": "0xe122ca6c3413fbbf11a05f6ddbfc19d04ec407ed",
        "to": "0xeddcb9a05bc9bc62334e2a6ae57883831c6c5786",
        "gas": "0x34b73",
        "value": "0x0",
        "input": "0x8636ec41000000000000000000000000e122ca6c3413fbbf11a05f6ddbfc19d04ec407ed000000000000000000000000000000000000000000000000000000000000006000000000000000000000000000000000000000000000000000000000000000a000000000000000000000000000000000000000000000000000000000000000054a6f6672650000000000000000000000000000000000000000000000000000000000000000000000000000000000000000000000000000000000000000000008457370616e796f6c000000000000000000000000000000000000000000000000",
        "nonce": "0x76",
        "chainId": "0xaa36a7"
      },
      "additionalContracts": [],
      "isFixedGasLimit": false
    }
  ],
  "receipts": [
    {
      "status": "0x1",
      "cumulativeGasUsed": "0xbc7c5d",
      "logs": [
        {
          "address": "0xeddcb9a05bc9bc62334e2a6ae57883831c6c5786",
          "topics": [
            "0xddf252ad1be2c89b69c2b068fc378daa952ba7f163c4a11628f55a4df523b3ef",
            "0x0000000000000000000000000000000000000000000000000000000000000000",
            "0x000000000000000000000000e122ca6c3413fbbf11a05f6ddbfc19d04ec407ed",
            "0x0000000000000000000000000000000000000000000000000000000000000050"
          ],
          "data": "0x",
          "blockHash": "0xc0968d535d29ebfa3b8457a8a4128edc82cf6466d57261a63cfaa33ccbc667cc",
          "blockNumber": "0x7d1aca",
          "transactionHash": "0xe6bb309c0b843ac844de51d7c72bbce6141234249eb706385d5f48647f28998f",
          "transactionIndex": "0x7f",
          "logIndex": "0xfd",
          "removed": false
        },
        {
          "address": "0xeddcb9a05bc9bc62334e2a6ae57883831c6c5786",
          "topics": [
            "0x8c80d3818fbee183872bd2b8065ec5028ca77e38627fa885dc700538365e6692",
            "0x0000000000000000000000000000000000000000000000000000000000000050",
            "0x000000000000000000000000e122ca6c3413fbbf11a05f6ddbfc19d04ec407ed"
          ],
          "data": "0x000000000000000000000000000000000000000000000000000000000000004000000000000000000000000000000000000000000000000000000000000000800000000000000000000000000000000000000000000000000000000000000005426c696e6400000000000000000000000000000000000000000000000000000000000000000000000000000000000000000000000000000000000000000000064769726f6e610000000000000000000000000000000000000000000000000000",
          "blockHash": "0xc0968d535d29ebfa3b8457a8a4128edc82cf6466d57261a63cfaa33ccbc667cc",
          "blockNumber": "0x7d1aca",
          "transactionHash": "0xe6bb309c0b843ac844de51d7c72bbce6141234249eb706385d5f48647f28998f",
          "transactionIndex": "0x7f",
          "logIndex": "0xfe",
          "removed": false
        }
      ],
      "logsBloom": "0x00000000000000000000000000000000000000000000000000000000000000000000000000000000000000000020000000000000000000000000000000000000000000000000000000000008000000000000000000000000000002000000010000000000020001000000000800000800000000000000000000000410000000001000000000000000000000000000000000200000000000000000000000000000000008000000000000000000000000000000000000000000000000000000000000000002010000000000000000000000010000000000000000000020000020000000000000000000000000000000000000000000000000000000000000000000",
      "type": "0x2",
      "transactionHash": "0xe6bb309c0b843ac844de51d7c72bbce6141234249eb706385d5f48647f28998f",
      "transactionIndex": "0x7f",
      "blockHash": "0xc0968d535d29ebfa3b8457a8a4128edc82cf6466d57261a63cfaa33ccbc667cc",
      "blockNumber": "0x7d1aca",
      "gasUsed": "0x2628d",
      "effectiveGasPrice": "0x5627cb8f0",
      "from": "0xe122ca6c3413fbbf11a05f6ddbfc19d04ec407ed",
      "to": "0xeddcb9a05bc9bc62334e2a6ae57883831c6c5786",
      "contractAddress": null
    },
    {
      "status": "0x1",
      "cumulativeGasUsed": "0xbedf1a",
      "logs": [
        {
          "address": "0xeddcb9a05bc9bc62334e2a6ae57883831c6c5786",
          "topics": [
            "0xddf252ad1be2c89b69c2b068fc378daa952ba7f163c4a11628f55a4df523b3ef",
            "0x0000000000000000000000000000000000000000000000000000000000000000",
            "0x000000000000000000000000e122ca6c3413fbbf11a05f6ddbfc19d04ec407ed",
            "0x0000000000000000000000000000000000000000000000000000000000000051"
          ],
          "data": "0x",
          "blockHash": "0xc0968d535d29ebfa3b8457a8a4128edc82cf6466d57261a63cfaa33ccbc667cc",
          "blockNumber": "0x7d1aca",
          "transactionHash": "0xdffad62543e0604b265c8e9e55709fa44d83a15af3576c1f1519b00562d9b5a1",
          "transactionIndex": "0x80",
          "logIndex": "0xff",
          "removed": false
        },
        {
          "address": "0xeddcb9a05bc9bc62334e2a6ae57883831c6c5786",
          "topics": [
            "0x8c80d3818fbee183872bd2b8065ec5028ca77e38627fa885dc700538365e6692",
            "0x0000000000000000000000000000000000000000000000000000000000000051",
            "0x000000000000000000000000e122ca6c3413fbbf11a05f6ddbfc19d04ec407ed"
          ],
          "data": "0x00000000000000000000000000000000000000000000000000000000000000400000000000000000000000000000000000000000000000000000000000000080000000000000000000000000000000000000000000000000000000000000000954737967616e6b6f76000000000000000000000000000000000000000000000000000000000000000000000000000000000000000000000000000000000000064769726f6e610000000000000000000000000000000000000000000000000000",
          "blockHash": "0xc0968d535d29ebfa3b8457a8a4128edc82cf6466d57261a63cfaa33ccbc667cc",
          "blockNumber": "0x7d1aca",
          "transactionHash": "0xdffad62543e0604b265c8e9e55709fa44d83a15af3576c1f1519b00562d9b5a1",
          "transactionIndex": "0x80",
          "logIndex": "0x100",
          "removed": false
        }
      ],
      "logsBloom": "0x00000000000000000000000000000000000000000000000000000000000000000000000000000000000000000000000000000000000000000000000000000000000000000000000000080008000000000000000000000000000000000000010000000000020001000000000800000800000000000000000000000410000000001000000000000000000000000000000000200000000040000000000000000000000008000000000000000000000000000000000000000000000000000000000000000002010000000000000000000000010000000000040000000000000020000000000000000000000000000000000000000000000000000000000000000000",
      "type": "0x2",
      "transactionHash": "0xdffad62543e0604b265c8e9e55709fa44d83a15af3576c1f1519b00562d9b5a1",
      "transactionIndex": "0x80",
      "blockHash": "0xc0968d535d29ebfa3b8457a8a4128edc82cf6466d57261a63cfaa33ccbc667cc",
      "blockNumber": "0x7d1aca",
      "gasUsed": "0x262bd",
      "effectiveGasPrice": "0x5627cb8f0",
      "from": "0xe122ca6c3413fbbf11a05f6ddbfc19d04ec407ed",
      "to": "0xeddcb9a05bc9bc62334e2a6ae57883831c6c5786",
      "contractAddress": null
    },
    {
      "status": "0x1",
      "cumulativeGasUsed": "0xc141d7",
      "logs": [
        {
          "address": "0xeddcb9a05bc9bc62334e2a6ae57883831c6c5786",
          "topics": [
            "0xddf252ad1be2c89b69c2b068fc378daa952ba7f163c4a11628f55a4df523b3ef",
            "0x0000000000000000000000000000000000000000000000000000000000000000",
            "0x000000000000000000000000e122ca6c3413fbbf11a05f6ddbfc19d04ec407ed",
            "0x0000000000000000000000000000000000000000000000000000000000000052"
          ],
          "data": "0x",
          "blockHash": "0xc0968d535d29ebfa3b8457a8a4128edc82cf6466d57261a63cfaa33ccbc667cc",
          "blockNumber": "0x7d1aca",
          "transactionHash": "0xae6f2cc7e4294c5fd50ea0d8a6d538a6871968c56c7125005e9f9eaaf47137d1",
          "transactionIndex": "0x81",
          "logIndex": "0x101",
          "removed": false
        },
        {
          "address": "0xeddcb9a05bc9bc62334e2a6ae57883831c6c5786",
          "topics": [
            "0x8c80d3818fbee183872bd2b8065ec5028ca77e38627fa885dc700538365e6692",
            "0x0000000000000000000000000000000000000000000000000000000000000052",
            "0x000000000000000000000000e122ca6c3413fbbf11a05f6ddbfc19d04ec407ed"
          ],
          "data": "0x000000000000000000000000000000000000000000000000000000000000004000000000000000000000000000000000000000000000000000000000000000800000000000000000000000000000000000000000000000000000000000000009427279616e2047696c000000000000000000000000000000000000000000000000000000000000000000000000000000000000000000000000000000000000064769726f6e610000000000000000000000000000000000000000000000000000",
          "blockHash": "0xc0968d535d29ebfa3b8457a8a4128edc82cf6466d57261a63cfaa33ccbc667cc",
          "blockNumber": "0x7d1aca",
          "transactionHash": "0xae6f2cc7e4294c5fd50ea0d8a6d538a6871968c56c7125005e9f9eaaf47137d1",
          "transactionIndex": "0x81",
          "logIndex": "0x102",
          "removed": false
        }
      ],
      "logsBloom": "0x00000000000000000000000000000000000000000000000000000000000000002000000000000000000000000000000000000000000000000000000000000000000000000000000000000008000000000000000000000000000000000000010000000000020001000000000800000800000000000000000000000410000000001000000000000000000000000000000000200000000000000000000000000000000008000000000000000000000000000000000040000000000000000000000000000002010000000000000000000000010000000000000000000000001020000000000000000000000000000000000000000000000000000000000000000000",
      "type": "0x2",
      "transactionHash": "0xae6f2cc7e4294c5fd50ea0d8a6d538a6871968c56c7125005e9f9eaaf47137d1",
      "transactionIndex": "0x81",
      "blockHash": "0xc0968d535d29ebfa3b8457a8a4128edc82cf6466d57261a63cfaa33ccbc667cc",
      "blockNumber": "0x7d1aca",
      "gasUsed": "0x262bd",
      "effectiveGasPrice": "0x5627cb8f0",
      "from": "0xe122ca6c3413fbbf11a05f6ddbfc19d04ec407ed",
      "to": "0xeddcb9a05bc9bc62334e2a6ae57883831c6c5786",
      "contractAddress": null
    },
    {
      "status": "0x1",
      "cumulativeGasUsed": "0xc3a47c",
      "logs": [
        {
          "address": "0xeddcb9a05bc9bc62334e2a6ae57883831c6c5786",
          "topics": [
            "0xddf252ad1be2c89b69c2b068fc378daa952ba7f163c4a11628f55a4df523b3ef",
            "0x0000000000000000000000000000000000000000000000000000000000000000",
            "0x000000000000000000000000e122ca6c3413fbbf11a05f6ddbfc19d04ec407ed",
            "0x0000000000000000000000000000000000000000000000000000000000000053"
          ],
          "data": "0x",
          "blockHash": "0xc0968d535d29ebfa3b8457a8a4128edc82cf6466d57261a63cfaa33ccbc667cc",
          "blockNumber": "0x7d1aca",
          "transactionHash": "0x718842172d69fcd50d2a88091e158561b7ef6f2e7e5e06c2b2ddd9e032682be3",
          "transactionIndex": "0x82",
          "logIndex": "0x103",
          "removed": false
        },
        {
          "address": "0xeddcb9a05bc9bc62334e2a6ae57883831c6c5786",
          "topics": [
            "0x8c80d3818fbee183872bd2b8065ec5028ca77e38627fa885dc700538365e6692",
            "0x0000000000000000000000000000000000000000000000000000000000000053",
            "0x000000000000000000000000e122ca6c3413fbbf11a05f6ddbfc19d04ec407ed"
          ],
          "data": "0x00000000000000000000000000000000000000000000000000000000000000400000000000000000000000000000000000000000000000000000000000000080000000000000000000000000000000000000000000000000000000000000000744616e6a756d610000000000000000000000000000000000000000000000000000000000000000000000000000000000000000000000000000000000000000064769726f6e610000000000000000000000000000000000000000000000000000",
          "blockHash": "0xc0968d535d29ebfa3b8457a8a4128edc82cf6466d57261a63cfaa33ccbc667cc",
          "blockNumber": "0x7d1aca",
          "transactionHash": "0x718842172d69fcd50d2a88091e158561b7ef6f2e7e5e06c2b2ddd9e032682be3",
          "transactionIndex": "0x82",
          "logIndex": "0x104",
          "removed": false
        }
      ],
      "logsBloom": "0x00000000000000000008000000000000000000000000000000000000000000000000000000000000000000000000000000000000000000000000000000000000000000000000000000000008000000000000000000000000000000000000010000000000020001000000000800000808000000000000000000000410000000001000000000000000000000000000000000200000000000000000000000000000000008000000000000000000000000000000000000000000000000000000000000000002010000000000000000000000010000000000000000000000000020000000000000000000000000000000000000000000000000000000040000000000",
      "type": "0x2",
      "transactionHash": "0x718842172d69fcd50d2a88091e158561b7ef6f2e7e5e06c2b2ddd9e032682be3",
      "transactionIndex": "0x82",
      "blockHash": "0xc0968d535d29ebfa3b8457a8a4128edc82cf6466d57261a63cfaa33ccbc667cc",
      "blockNumber": "0x7d1aca",
      "gasUsed": "0x262a5",
      "effectiveGasPrice": "0x5627cb8f0",
      "from": "0xe122ca6c3413fbbf11a05f6ddbfc19d04ec407ed",
      "to": "0xeddcb9a05bc9bc62334e2a6ae57883831c6c5786",
      "contractAddress": null
    },
    {
      "status": "0x1",
      "cumulativeGasUsed": "0xc60781",
      "logs": [
        {
          "address": "0xeddcb9a05bc9bc62334e2a6ae57883831c6c5786",
          "topics": [
            "0xddf252ad1be2c89b69c2b068fc378daa952ba7f163c4a11628f55a4df523b3ef",
            "0x0000000000000000000000000000000000000000000000000000000000000000",
            "0x000000000000000000000000e122ca6c3413fbbf11a05f6ddbfc19d04ec407ed",
            "0x0000000000000000000000000000000000000000000000000000000000000054"
          ],
          "data": "0x",
          "blockHash": "0xc0968d535d29ebfa3b8457a8a4128edc82cf6466d57261a63cfaa33ccbc667cc",
          "blockNumber": "0x7d1aca",
          "transactionHash": "0x946a21ecb61eeeba0e82e553ae052e0dce078ef4b8fe652e8bdfa7c476d5ba57",
          "transactionIndex": "0x83",
          "logIndex": "0x105",
          "removed": false
        },
        {
          "address": "0xeddcb9a05bc9bc62334e2a6ae57883831c6c5786",
          "topics": [
            "0x8c80d3818fbee183872bd2b8065ec5028ca77e38627fa885dc700538365e6692",
            "0x0000000000000000000000000000000000000000000000000000000000000054",
            "0x000000000000000000000000e122ca6c3413fbbf11a05f6ddbfc19d04ec407ed"
          ],
          "data": "0x00000000000000000000000000000000000000000000000000000000000000400000000000000000000000000000000000000000000000000000000000000080000000000000000000000000000000000000000000000000000000000000000e53657267696f204865727265726100000000000000000000000000000000000000000000000000000000000000000000000000000000000000000000000000074f736173756e6100000000000000000000000000000000000000000000000000",
          "blockHash": "0xc0968d535d29ebfa3b8457a8a4128edc82cf6466d57261a63cfaa33ccbc667cc",
          "blockNumber": "0x7d1aca",
          "transactionHash": "0x946a21ecb61eeeba0e82e553ae052e0dce078ef4b8fe652e8bdfa7c476d5ba57",
          "transactionIndex": "0x83",
          "logIndex": "0x106",
          "removed": false
        }
      ],
      "logsBloom": "0x00000000000000000000000000000000000000000002000000000000000000000000000000000000000000000000000000000000000000000000000000000000000000000000000000000008000000000000000000000000000000000000010000000000020001000000000800000800000000000000000000000410000000001000000000000000000000000000000000200000000000000000000000000000000008000800000000000000000000000000000000000000000000000000000000000002010000000000000000000000010000000000000000000000000020000000000000400000000000000000000000000000000000000000000000000000",
      "type": "0x2",
      "transactionHash": "0x946a21ecb61eeeba0e82e553ae052e0dce078ef4b8fe652e8bdfa7c476d5ba57",
      "transactionIndex": "0x83",
      "blockHash": "0xc0968d535d29ebfa3b8457a8a4128edc82cf6466d57261a63cfaa33ccbc667cc",
      "blockNumber": "0x7d1aca",
      "gasUsed": "0x26305",
      "effectiveGasPrice": "0x5627cb8f0",
      "from": "0xe122ca6c3413fbbf11a05f6ddbfc19d04ec407ed",
      "to": "0xeddcb9a05bc9bc62334e2a6ae57883831c6c5786",
      "contractAddress": null
    },
    {
      "status": "0x1",
      "cumulativeGasUsed": "0x8a7d76",
      "logs": [
        {
          "address": "0xeddcb9a05bc9bc62334e2a6ae57883831c6c5786",
          "topics": [
            "0xddf252ad1be2c89b69c2b068fc378daa952ba7f163c4a11628f55a4df523b3ef",
            "0x0000000000000000000000000000000000000000000000000000000000000000",
            "0x000000000000000000000000e122ca6c3413fbbf11a05f6ddbfc19d04ec407ed",
            "0x0000000000000000000000000000000000000000000000000000000000000055"
          ],
          "data": "0x",
          "blockHash": "0xed4808fb17fdf9ccf5ba916c62cf0258df7ff5a3409fbca6253f48791348c0f8",
          "blockNumber": "0x7d1ace",
          "transactionHash": "0x764d7d48c69ba595963ea3ac8674ec239fedf8acd72395ed83e502418ebc137d",
          "transactionIndex": "0x5e",
          "logIndex": "0xac",
          "removed": false
        },
        {
          "address": "0xeddcb9a05bc9bc62334e2a6ae57883831c6c5786",
          "topics": [
            "0x8c80d3818fbee183872bd2b8065ec5028ca77e38627fa885dc700538365e6692",
            "0x0000000000000000000000000000000000000000000000000000000000000055",
            "0x000000000000000000000000e122ca6c3413fbbf11a05f6ddbfc19d04ec407ed"
          ],
          "data": "0x000000000000000000000000000000000000000000000000000000000000004000000000000000000000000000000000000000000000000000000000000000800000000000000000000000000000000000000000000000000000000000000006436174656e61000000000000000000000000000000000000000000000000000000000000000000000000000000000000000000000000000000000000000000074f736173756e6100000000000000000000000000000000000000000000000000",
          "blockHash": "0xed4808fb17fdf9ccf5ba916c62cf0258df7ff5a3409fbca6253f48791348c0f8",
          "blockNumber": "0x7d1ace",
          "transactionHash": "0x764d7d48c69ba595963ea3ac8674ec239fedf8acd72395ed83e502418ebc137d",
          "transactionIndex": "0x5e",
          "logIndex": "0xad",
          "removed": false
        }
      ],
      "logsBloom": "0x00000000000000000000000000000000000000000000000000000000000000000000000000000000000000000000000000000000000000000000000000000000000000000000000000000008000000000000000000000000000000000000010000000000020001000000000800000800000000000000000000000410000000001000000000000000000000000000000000200000000000000000000000000000000008000000000000008000000000000000000000000000000000000004000000000002010000004000000000000000010000000000000000000000000020000000000000000000000000000000000000000000000000000000000000000000",
      "type": "0x2",
      "transactionHash": "0x764d7d48c69ba595963ea3ac8674ec239fedf8acd72395ed83e502418ebc137d",
      "transactionIndex": "0x5e",
      "blockHash": "0xed4808fb17fdf9ccf5ba916c62cf0258df7ff5a3409fbca6253f48791348c0f8",
      "blockNumber": "0x7d1ace",
      "gasUsed": "0x262a5",
      "effectiveGasPrice": "0x54d41aa8c",
      "from": "0xe122ca6c3413fbbf11a05f6ddbfc19d04ec407ed",
      "to": "0xeddcb9a05bc9bc62334e2a6ae57883831c6c5786",
      "contractAddress": null
    },
    {
      "status": "0x1",
      "cumulativeGasUsed": "0x8ce00f",
      "logs": [
        {
          "address": "0xeddcb9a05bc9bc62334e2a6ae57883831c6c5786",
          "topics": [
            "0xddf252ad1be2c89b69c2b068fc378daa952ba7f163c4a11628f55a4df523b3ef",
            "0x0000000000000000000000000000000000000000000000000000000000000000",
            "0x000000000000000000000000e122ca6c3413fbbf11a05f6ddbfc19d04ec407ed",
            "0x0000000000000000000000000000000000000000000000000000000000000056"
          ],
          "data": "0x",
          "blockHash": "0xed4808fb17fdf9ccf5ba916c62cf0258df7ff5a3409fbca6253f48791348c0f8",
          "blockNumber": "0x7d1ace",
          "transactionHash": "0xdf999f321dd326bb90c0a7e9de2015a4f6df8c630b370299ed03b9578226900b",
          "transactionIndex": "0x5f",
          "logIndex": "0xae",
          "removed": false
        },
        {
          "address": "0xeddcb9a05bc9bc62334e2a6ae57883831c6c5786",
          "topics": [
            "0x8c80d3818fbee183872bd2b8065ec5028ca77e38627fa885dc700538365e6692",
            "0x0000000000000000000000000000000000000000000000000000000000000056",
            "0x000000000000000000000000e122ca6c3413fbbf11a05f6ddbfc19d04ec407ed"
          ],
          "data": "0x000000000000000000000000000000000000000000000000000000000000004000000000000000000000000000000000000000000000000000000000000000800000000000000000000000000000000000000000000000000000000000000005427279616e00000000000000000000000000000000000000000000000000000000000000000000000000000000000000000000000000000000000000000000074f736173756e6100000000000000000000000000000000000000000000000000",
          "blockHash": "0xed4808fb17fdf9ccf5ba916c62cf0258df7ff5a3409fbca6253f48791348c0f8",
          "blockNumber": "0x7d1ace",
          "transactionHash": "0xdf999f321dd326bb90c0a7e9de2015a4f6df8c630b370299ed03b9578226900b",
          "transactionIndex": "0x5f",
          "logIndex": "0xaf",
          "removed": false
        }
      ],
      "logsBloom": "0x00000000000000000000000000000000000000000000000000000000000000000000000000000000000000000000000400000000000000000000000000000000000000000000000000000008000000000000000000000000000000000000010000000000020001000000000800000800000000000000000000000410000000001000000000000000000000000000000000200000000000000000000000000000000008000000000000000000000000000010000000000000000000000000000000200002010000000000000000000000010000000000000000000000000020000000000000000000000000000000000000000000000000000000000000000000",
      "type": "0x2",
      "transactionHash": "0xdf999f321dd326bb90c0a7e9de2015a4f6df8c630b370299ed03b9578226900b",
      "transactionIndex": "0x5f",
      "blockHash": "0xed4808fb17fdf9ccf5ba916c62cf0258df7ff5a3409fbca6253f48791348c0f8",
      "blockNumber": "0x7d1ace",
      "gasUsed": "0x26299",
      "effectiveGasPrice": "0x54d41aa8c",
      "from": "0xe122ca6c3413fbbf11a05f6ddbfc19d04ec407ed",
      "to": "0xeddcb9a05bc9bc62334e2a6ae57883831c6c5786",
      "contractAddress": null
    },
    {
      "status": "0x1",
      "cumulativeGasUsed": "0x8f42c0",
      "logs": [
        {
          "address": "0xeddcb9a05bc9bc62334e2a6ae57883831c6c5786",
          "topics": [
            "0xddf252ad1be2c89b69c2b068fc378daa952ba7f163c4a11628f55a4df523b3ef",
            "0x0000000000000000000000000000000000000000000000000000000000000000",
            "0x000000000000000000000000e122ca6c3413fbbf11a05f6ddbfc19d04ec407ed",
            "0x0000000000000000000000000000000000000000000000000000000000000057"
          ],
          "data": "0x",
          "blockHash": "0xed4808fb17fdf9ccf5ba916c62cf0258df7ff5a3409fbca6253f48791348c0f8",
          "blockNumber": "0x7d1ace",
          "transactionHash": "0x5a4d92a46e74b7eff890fd08e03563cb01538b6cbd5a9dd6f9e8eaa4d98e5af3",
          "transactionIndex": "0x60",
          "logIndex": "0xb0",
          "removed": false
        },
        {
          "address": "0xeddcb9a05bc9bc62334e2a6ae57883831c6c5786",
          "topics": [
            "0x8c80d3818fbee183872bd2b8065ec5028ca77e38627fa885dc700538365e6692",
            "0x0000000000000000000000000000000000000000000000000000000000000057",
            "0x000000000000000000000000e122ca6c3413fbbf11a05f6ddbfc19d04ec407ed"
          ],
          "data": "0x000000000000000000000000000000000000000000000000000000000000004000000000000000000000000000000000000000000000000000000000000000800000000000000000000000000000000000000000000000000000000000000007427564696d69720000000000000000000000000000000000000000000000000000000000000000000000000000000000000000000000000000000000000000074f736173756e6100000000000000000000000000000000000000000000000000",
          "blockHash": "0xed4808fb17fdf9ccf5ba916c62cf0258df7ff5a3409fbca6253f48791348c0f8",
          "blockNumber": "0x7d1ace",
          "transactionHash": "0x5a4d92a46e74b7eff890fd08e03563cb01538b6cbd5a9dd6f9e8eaa4d98e5af3",
          "transactionIndex": "0x60",
          "logIndex": "0xb1",
          "removed": false
        }
      ],
      "logsBloom": "0x00000000000000000000000000000000000000000000000000000000000000000000000000000000000000000000040000000000000000000000000000000000000000000000000000000008000000000000000000000000000000000000010000000000020001000000000800000800000000000000000000000410000000001000000000000000000000000000000000200000000000000000000000000000000008000000000000000000000000000000000000000000000000000000000000000002010000000000000000000000010000002000000000000000000020000000002000000000000000000000000000000000000000000000000000000000",
      "type": "0x2",
      "transactionHash": "0x5a4d92a46e74b7eff890fd08e03563cb01538b6cbd5a9dd6f9e8eaa4d98e5af3",
      "transactionIndex": "0x60",
      "blockHash": "0xed4808fb17fdf9ccf5ba916c62cf0258df7ff5a3409fbca6253f48791348c0f8",
      "blockNumber": "0x7d1ace",
      "gasUsed": "0x262b1",
      "effectiveGasPrice": "0x54d41aa8c",
      "from": "0xe122ca6c3413fbbf11a05f6ddbfc19d04ec407ed",
      "to": "0xeddcb9a05bc9bc62334e2a6ae57883831c6c5786",
      "contractAddress": null
    },
    {
      "status": "0x1",
      "cumulativeGasUsed": "0x91a5ad",
      "logs": [
        {
          "address": "0xeddcb9a05bc9bc62334e2a6ae57883831c6c5786",
          "topics": [
            "0xddf252ad1be2c89b69c2b068fc378daa952ba7f163c4a11628f55a4df523b3ef",
            "0x0000000000000000000000000000000000000000000000000000000000000000",
            "0x000000000000000000000000e122ca6c3413fbbf11a05f6ddbfc19d04ec407ed",
            "0x0000000000000000000000000000000000000000000000000000000000000058"
          ],
          "data": "0x",
          "blockHash": "0xed4808fb17fdf9ccf5ba916c62cf0258df7ff5a3409fbca6253f48791348c0f8",
          "blockNumber": "0x7d1ace",
          "transactionHash": "0xb77950924042cdef6201b6a58cf72ecac45de6d797b21e6daa32168ac75134b7",
          "transactionIndex": "0x61",
          "logIndex": "0xb2",
          "removed": false
        },
        {
          "address": "0xeddcb9a05bc9bc62334e2a6ae57883831c6c5786",
          "topics": [
            "0x8c80d3818fbee183872bd2b8065ec5028ca77e38627fa885dc700538365e6692",
            "0x0000000000000000000000000000000000000000000000000000000000000058",
            "0x000000000000000000000000e122ca6c3413fbbf11a05f6ddbfc19d04ec407ed"
          ],
          "data": "0x00000000000000000000000000000000000000000000000000000000000000400000000000000000000000000000000000000000000000000000000000000080000000000000000000000000000000000000000000000000000000000000000c527562656e20476172636961000000000000000000000000000000000000000000000000000000000000000000000000000000000000000000000000000000074f736173756e6100000000000000000000000000000000000000000000000000",
          "blockHash": "0xed4808fb17fdf9ccf5ba916c62cf0258df7ff5a3409fbca6253f48791348c0f8",
          "blockNumber": "0x7d1ace",
          "transactionHash": "0xb77950924042cdef6201b6a58cf72ecac45de6d797b21e6daa32168ac75134b7",
          "transactionIndex": "0x61",
          "logIndex": "0xb3",
          "removed": false
        }
      ],
      "logsBloom": "0x00000000000000000000000000000000000000000000000000000000000000000000000000000000000000000080000000000000000000000000000000000000000000000000000000000008000000000001000000000000000000000000010000000000020001000000000800000800000000000000000000000410000000001000000000000000000000000000000000200000000000000000000000000000000008000000000000000000000000000000000000000000000000000000000000000002010000000000000000000000010000000000000000000000000020000000000000100000000000000000000000000000000000000000000000000000",
      "type": "0x2",
      "transactionHash": "0xb77950924042cdef6201b6a58cf72ecac45de6d797b21e6daa32168ac75134b7",
      "transactionIndex": "0x61",
      "blockHash": "0xed4808fb17fdf9ccf5ba916c62cf0258df7ff5a3409fbca6253f48791348c0f8",
      "blockNumber": "0x7d1ace",
      "gasUsed": "0x262ed",
      "effectiveGasPrice": "0x54d41aa8c",
      "from": "0xe122ca6c3413fbbf11a05f6ddbfc19d04ec407ed",
      "to": "0xeddcb9a05bc9bc62334e2a6ae57883831c6c5786",
      "contractAddress": null
    },
    {
      "status": "0x1",
      "cumulativeGasUsed": "0x940882",
      "logs": [
        {
          "address": "0xeddcb9a05bc9bc62334e2a6ae57883831c6c5786",
          "topics": [
            "0xddf252ad1be2c89b69c2b068fc378daa952ba7f163c4a11628f55a4df523b3ef",
            "0x0000000000000000000000000000000000000000000000000000000000000000",
            "0x000000000000000000000000e122ca6c3413fbbf11a05f6ddbfc19d04ec407ed",
            "0x0000000000000000000000000000000000000000000000000000000000000059"
          ],
          "data": "0x",
          "blockHash": "0xed4808fb17fdf9ccf5ba916c62cf0258df7ff5a3409fbca6253f48791348c0f8",
          "blockNumber": "0x7d1ace",
          "transactionHash": "0xd951ba55e45b7f04c7b167cbc4902ca7c98d0c26cb3d2052a7d77fe3599645b4",
          "transactionIndex": "0x62",
          "logIndex": "0xb4",
          "removed": false
        },
        {
          "address": "0xeddcb9a05bc9bc62334e2a6ae57883831c6c5786",
          "topics": [
            "0x8c80d3818fbee183872bd2b8065ec5028ca77e38627fa885dc700538365e6692",
            "0x0000000000000000000000000000000000000000000000000000000000000059",
            "0x000000000000000000000000e122ca6c3413fbbf11a05f6ddbfc19d04ec407ed"
          ],
          "data": "0x00000000000000000000000000000000000000000000000000000000000000400000000000000000000000000000000000000000000000000000000000000080000000000000000000000000000000000000000000000000000000000000000a41696d6172204f726f7a0000000000000000000000000000000000000000000000000000000000000000000000000000000000000000000000000000000000074f736173756e6100000000000000000000000000000000000000000000000000",
          "blockHash": "0xed4808fb17fdf9ccf5ba916c62cf0258df7ff5a3409fbca6253f48791348c0f8",
          "blockNumber": "0x7d1ace",
          "transactionHash": "0xd951ba55e45b7f04c7b167cbc4902ca7c98d0c26cb3d2052a7d77fe3599645b4",
          "transactionIndex": "0x62",
          "logIndex": "0xb5",
          "removed": false
        }
      ],
      "logsBloom": "0x00000000000000000000000000000000000000000000000002000000000000000000000000000000020000000000000000000000000000000000000000000000000000000000000000000008000000000000000000000000000000000000010000000000020001000000000800000800000000000000000000000410000000001000000000000000000000000000000000200000000000000000000000000000000008000000000000000000000000000000000000000000000000000000000000000002010000000000000000000000010000000000000000000000000020000000000000000000000000000000000000000000000000000000000000002000",
      "type": "0x2",
      "transactionHash": "0xd951ba55e45b7f04c7b167cbc4902ca7c98d0c26cb3d2052a7d77fe3599645b4",
      "transactionIndex": "0x62",
      "blockHash": "0xed4808fb17fdf9ccf5ba916c62cf0258df7ff5a3409fbca6253f48791348c0f8",
      "blockNumber": "0x7d1ace",
      "gasUsed": "0x262d5",
      "effectiveGasPrice": "0x54d41aa8c",
      "from": "0xe122ca6c3413fbbf11a05f6ddbfc19d04ec407ed",
      "to": "0xeddcb9a05bc9bc62334e2a6ae57883831c6c5786",
      "contractAddress": null
    },
    {
      "status": "0x1",
      "cumulativeGasUsed": "0x966b57",
      "logs": [
        {
          "address": "0xeddcb9a05bc9bc62334e2a6ae57883831c6c5786",
          "topics": [
            "0xddf252ad1be2c89b69c2b068fc378daa952ba7f163c4a11628f55a4df523b3ef",
            "0x0000000000000000000000000000000000000000000000000000000000000000",
            "0x000000000000000000000000e122ca6c3413fbbf11a05f6ddbfc19d04ec407ed",
            "0x000000000000000000000000000000000000000000000000000000000000005a"
          ],
          "data": "0x",
          "blockHash": "0xed4808fb17fdf9ccf5ba916c62cf0258df7ff5a3409fbca6253f48791348c0f8",
          "blockNumber": "0x7d1ace",
          "transactionHash": "0x2549a8944f1acd8b40f01c62cb718d55568f0840f5ce30687c90d5d06760b91c",
          "transactionIndex": "0x63",
          "logIndex": "0xb6",
          "removed": false
        },
        {
          "address": "0xeddcb9a05bc9bc62334e2a6ae57883831c6c5786",
          "topics": [
            "0x8c80d3818fbee183872bd2b8065ec5028ca77e38627fa885dc700538365e6692",
            "0x000000000000000000000000000000000000000000000000000000000000005a",
            "0x000000000000000000000000e122ca6c3413fbbf11a05f6ddbfc19d04ec407ed"
          ],
          "data": "0x00000000000000000000000000000000000000000000000000000000000000400000000000000000000000000000000000000000000000000000000000000080000000000000000000000000000000000000000000000000000000000000000b446176696420536f72696100000000000000000000000000000000000000000000000000000000000000000000000000000000000000000000000000000000064765746166650000000000000000000000000000000000000000000000000000",
          "blockHash": "0xed4808fb17fdf9ccf5ba916c62cf0258df7ff5a3409fbca6253f48791348c0f8",
          "blockNumber": "0x7d1ace",
          "transactionHash": "0x2549a8944f1acd8b40f01c62cb718d55568f0840f5ce30687c90d5d06760b91c",
          "transactionIndex": "0x63",
          "logIndex": "0xb7",
          "removed": false
        }
      ],
      "logsBloom": "0x00000000000000000000000000000000000000000000000000000000000000000000000000000000000000000000000000000000000000000000000000000000000000000000000000000008000000000000000000000000000000000000010000000000020001000000000800000800000000000000000000000410000000001000000000100000000000000000000000200000000000000000000000000000000008000000000000000000000000000000000000000000000000000000000000000002010000000000000000000000010000000000000004000000000020000000000000000008000000000000000000000000000000000000000000000000",
      "type": "0x2",
      "transactionHash": "0x2549a8944f1acd8b40f01c62cb718d55568f0840f5ce30687c90d5d06760b91c",
      "transactionIndex": "0x63",
      "blockHash": "0xed4808fb17fdf9ccf5ba916c62cf0258df7ff5a3409fbca6253f48791348c0f8",
      "blockNumber": "0x7d1ace",
      "gasUsed": "0x262d5",
      "effectiveGasPrice": "0x54d41aa8c",
      "from": "0xe122ca6c3413fbbf11a05f6ddbfc19d04ec407ed",
      "to": "0xeddcb9a05bc9bc62334e2a6ae57883831c6c5786",
      "contractAddress": null
    },
    {
      "status": "0x1",
      "cumulativeGasUsed": "0x98ce08",
      "logs": [
        {
          "address": "0xeddcb9a05bc9bc62334e2a6ae57883831c6c5786",
          "topics": [
            "0xddf252ad1be2c89b69c2b068fc378daa952ba7f163c4a11628f55a4df523b3ef",
            "0x0000000000000000000000000000000000000000000000000000000000000000",
            "0x000000000000000000000000e122ca6c3413fbbf11a05f6ddbfc19d04ec407ed",
            "0x000000000000000000000000000000000000000000000000000000000000005b"
          ],
          "data": "0x",
          "blockHash": "0xed4808fb17fdf9ccf5ba916c62cf0258df7ff5a3409fbca6253f48791348c0f8",
          "blockNumber": "0x7d1ace",
          "transactionHash": "0x542d6ce97211b16633d219274e420959f2a0c2e932ed9ac4cb046623215b2721",
          "transactionIndex": "0x64",
          "logIndex": "0xb8",
          "removed": false
        },
        {
          "address": "0xeddcb9a05bc9bc62334e2a6ae57883831c6c5786",
          "topics": [
            "0x8c80d3818fbee183872bd2b8065ec5028ca77e38627fa885dc700538365e6692",
            "0x000000000000000000000000000000000000000000000000000000000000005b",
            "0x000000000000000000000000e122ca6c3413fbbf11a05f6ddbfc19d04ec407ed"
          ],
          "data": "0x000000000000000000000000000000000000000000000000000000000000004000000000000000000000000000000000000000000000000000000000000000800000000000000000000000000000000000000000000000000000000000000008416c64657265746500000000000000000000000000000000000000000000000000000000000000000000000000000000000000000000000000000000000000064765746166650000000000000000000000000000000000000000000000000000",
          "blockHash": "0xed4808fb17fdf9ccf5ba916c62cf0258df7ff5a3409fbca6253f48791348c0f8",
          "blockNumber": "0x7d1ace",
          "transactionHash": "0x542d6ce97211b16633d219274e420959f2a0c2e932ed9ac4cb046623215b2721",
          "transactionIndex": "0x64",
          "logIndex": "0xb9",
          "removed": false
        }
      ],
      "logsBloom": "0x00000000000000000000000000000000000000000000000000000000000000000000000000000000000000000000000000000000000000000000000000000000000000000000000000000008000000000000000000000000000000000000010000000800020001000000000800000800000000000000000000000410000000001000000000000000000000000000000000200000000000000000000000000080000008000000000000000000000000000000000000000000000000000000000000000002010000000000000000000000010000000000000000000000000020000000000000000000000000000000000000000000000000000000200000000000",
      "type": "0x2",
      "transactionHash": "0x542d6ce97211b16633d219274e420959f2a0c2e932ed9ac4cb046623215b2721",
      "transactionIndex": "0x64",
      "blockHash": "0xed4808fb17fdf9ccf5ba916c62cf0258df7ff5a3409fbca6253f48791348c0f8",
      "blockNumber": "0x7d1ace",
      "gasUsed": "0x262b1",
      "effectiveGasPrice": "0x54d41aa8c",
      "from": "0xe122ca6c3413fbbf11a05f6ddbfc19d04ec407ed",
      "to": "0xeddcb9a05bc9bc62334e2a6ae57883831c6c5786",
      "contractAddress": null
    },
    {
      "status": "0x1",
      "cumulativeGasUsed": "0x9b3095",
      "logs": [
        {
          "address": "0xeddcb9a05bc9bc62334e2a6ae57883831c6c5786",
          "topics": [
            "0xddf252ad1be2c89b69c2b068fc378daa952ba7f163c4a11628f55a4df523b3ef",
            "0x0000000000000000000000000000000000000000000000000000000000000000",
            "0x000000000000000000000000e122ca6c3413fbbf11a05f6ddbfc19d04ec407ed",
            "0x000000000000000000000000000000000000000000000000000000000000005c"
          ],
          "data": "0x",
          "blockHash": "0xed4808fb17fdf9ccf5ba916c62cf0258df7ff5a3409fbca6253f48791348c0f8",
          "blockNumber": "0x7d1ace",
          "transactionHash": "0x482b57e38e9eabc9e9fc5aed954d9561dbc79d45b504926b971779b44ed79a08",
          "transactionIndex": "0x65",
          "logIndex": "0xba",
          "removed": false
        },
        {
          "address": "0xeddcb9a05bc9bc62334e2a6ae57883831c6c5786",
          "topics": [
            "0x8c80d3818fbee183872bd2b8065ec5028ca77e38627fa885dc700538365e6692",
            "0x000000000000000000000000000000000000000000000000000000000000005c",
            "0x000000000000000000000000e122ca6c3413fbbf11a05f6ddbfc19d04ec407ed"
          ],
          "data": "0x000000000000000000000000000000000000000000000000000000000000004000000000000000000000000000000000000000000000000000000000000000800000000000000000000000000000000000000000000000000000000000000005446a656e6500000000000000000000000000000000000000000000000000000000000000000000000000000000000000000000000000000000000000000000064765746166650000000000000000000000000000000000000000000000000000",
          "blockHash": "0xed4808fb17fdf9ccf5ba916c62cf0258df7ff5a3409fbca6253f48791348c0f8",
          "blockNumber": "0x7d1ace",
          "transactionHash": "0x482b57e38e9eabc9e9fc5aed954d9561dbc79d45b504926b971779b44ed79a08",
          "transactionIndex": "0x65",
          "logIndex": "0xbb",
          "removed": false
        }
      ],
      "logsBloom": "0x00000000000000000000000000000000000000000000000000000000000000000000000000000000000000000000000000000000000000000000000000000000000000000000000000000008000000000000000000000200000000000000010000000000020001000000000800000800000000000000000000000410000008001000000000000000000000000000000000200000000000000000000000000000000008000000000000000000000000000000000000000000000000000000000000000002010000000000000000000000010000000000000000000000000020000000000000000000000000000000000000000000000000000010000000000000",
      "type": "0x2",
      "transactionHash": "0x482b57e38e9eabc9e9fc5aed954d9561dbc79d45b504926b971779b44ed79a08",
      "transactionIndex": "0x65",
      "blockHash": "0xed4808fb17fdf9ccf5ba916c62cf0258df7ff5a3409fbca6253f48791348c0f8",
      "blockNumber": "0x7d1ace",
      "gasUsed": "0x2628d",
      "effectiveGasPrice": "0x54d41aa8c",
      "from": "0xe122ca6c3413fbbf11a05f6ddbfc19d04ec407ed",
      "to": "0xeddcb9a05bc9bc62334e2a6ae57883831c6c5786",
      "contractAddress": null
    },
    {
      "status": "0x1",
      "cumulativeGasUsed": "0x9d9352",
      "logs": [
        {
          "address": "0xeddcb9a05bc9bc62334e2a6ae57883831c6c5786",
          "topics": [
            "0xddf252ad1be2c89b69c2b068fc378daa952ba7f163c4a11628f55a4df523b3ef",
            "0x0000000000000000000000000000000000000000000000000000000000000000",
            "0x000000000000000000000000e122ca6c3413fbbf11a05f6ddbfc19d04ec407ed",
            "0x000000000000000000000000000000000000000000000000000000000000005d"
          ],
          "data": "0x",
          "blockHash": "0xed4808fb17fdf9ccf5ba916c62cf0258df7ff5a3409fbca6253f48791348c0f8",
          "blockNumber": "0x7d1ace",
          "transactionHash": "0xefc87d4f4f694106031a66d5312a51363deb6331ce66b8e25ee4796d0b67d257",
          "transactionIndex": "0x66",
          "logIndex": "0xbc",
          "removed": false
        },
        {
          "address": "0xeddcb9a05bc9bc62334e2a6ae57883831c6c5786",
          "topics": [
            "0x8c80d3818fbee183872bd2b8065ec5028ca77e38627fa885dc700538365e6692",
            "0x000000000000000000000000000000000000000000000000000000000000005d",
            "0x000000000000000000000000e122ca6c3413fbbf11a05f6ddbfc19d04ec407ed"
          ],
          "data": "0x000000000000000000000000000000000000000000000000000000000000004000000000000000000000000000000000000000000000000000000000000000800000000000000000000000000000000000000000000000000000000000000009417272616d62617269000000000000000000000000000000000000000000000000000000000000000000000000000000000000000000000000000000000000064765746166650000000000000000000000000000000000000000000000000000",
          "blockHash": "0xed4808fb17fdf9ccf5ba916c62cf0258df7ff5a3409fbca6253f48791348c0f8",
          "blockNumber": "0x7d1ace",
          "transactionHash": "0xefc87d4f4f694106031a66d5312a51363deb6331ce66b8e25ee4796d0b67d257",
          "transactionIndex": "0x66",
          "logIndex": "0xbd",
          "removed": false
        }
      ],
      "logsBloom": "0x00000000000000000000000000000000000000000000000000000000000000000000000000000000000000000000000000000000000000000000000002000000000000000000000000000008000000000000000000000000000000000000010000000000020001000000000800000800000001000000000000000410000000001000000000000000000000000000000000200000000000000000000000000000000008000000000000000000000000000000000000200000000000000000000000000002010000000000000000000000010000000000000000000000000020000000000000000000000000000000000000000000000000000000000000000000",
      "type": "0x2",
      "transactionHash": "0xefc87d4f4f694106031a66d5312a51363deb6331ce66b8e25ee4796d0b67d257",
      "transactionIndex": "0x66",
      "blockHash": "0xed4808fb17fdf9ccf5ba916c62cf0258df7ff5a3409fbca6253f48791348c0f8",
      "blockNumber": "0x7d1ace",
      "gasUsed": "0x262bd",
      "effectiveGasPrice": "0x54d41aa8c",
      "from": "0xe122ca6c3413fbbf11a05f6ddbfc19d04ec407ed",
      "to": "0xeddcb9a05bc9bc62334e2a6ae57883831c6c5786",
      "contractAddress": null
    },
    {
      "status": "0x1",
      "cumulativeGasUsed": "0x9ff5f7",
      "logs": [
        {
          "address": "0xeddcb9a05bc9bc62334e2a6ae57883831c6c5786",
          "topics": [
            "0xddf252ad1be2c89b69c2b068fc378daa952ba7f163c4a11628f55a4df523b3ef",
            "0x0000000000000000000000000000000000000000000000000000000000000000",
            "0x000000000000000000000000e122ca6c3413fbbf11a05f6ddbfc19d04ec407ed",
            "0x000000000000000000000000000000000000000000000000000000000000005e"
          ],
          "data": "0x",
          "blockHash": "0xed4808fb17fdf9ccf5ba916c62cf0258df7ff5a3409fbca6253f48791348c0f8",
          "blockNumber": "0x7d1ace",
          "transactionHash": "0xc72a1d209a5c419fa30f4f28d6d776da73afc52495ff81adc84d17ba0c1bfbd5",
          "transactionIndex": "0x67",
          "logIndex": "0xbe",
          "removed": false
        },
        {
          "address": "0xeddcb9a05bc9bc62334e2a6ae57883831c6c5786",
          "topics": [
            "0x8c80d3818fbee183872bd2b8065ec5028ca77e38627fa885dc700538365e6692",
            "0x000000000000000000000000000000000000000000000000000000000000005e",
            "0x000000000000000000000000e122ca6c3413fbbf11a05f6ddbfc19d04ec407ed"
          ],
          "data": "0x0000000000000000000000000000000000000000000000000000000000000040000000000000000000000000000000000000000000000000000000000000008000000000000000000000000000000000000000000000000000000000000000074d61796f72616c0000000000000000000000000000000000000000000000000000000000000000000000000000000000000000000000000000000000000000064765746166650000000000000000000000000000000000000000000000000000",
          "blockHash": "0xed4808fb17fdf9ccf5ba916c62cf0258df7ff5a3409fbca6253f48791348c0f8",
          "blockNumber": "0x7d1ace",
          "transactionHash": "0xc72a1d209a5c419fa30f4f28d6d776da73afc52495ff81adc84d17ba0c1bfbd5",
          "transactionIndex": "0x67",
          "logIndex": "0xbf",
          "removed": false
        }
      ],
      "logsBloom": "0x00000000000000000000000000000000000000000000000000000000000000000000000000000000000000000000000000000000000000000000000000000000000000000000000000000008000000000000000000000000004000000000010000000000020801000000000800000800000000000000000000000410000000001000000000000000000000000000000000200000000000000000000002000000000008000000000000000000000000000000000000000000000000000000000000000002010000000000000000000000010000000000000000000000000020000000000000000000000000000000000000000000000000000000000000000000",
      "type": "0x2",
      "transactionHash": "0xc72a1d209a5c419fa30f4f28d6d776da73afc52495ff81adc84d17ba0c1bfbd5",
      "transactionIndex": "0x67",
      "blockHash": "0xed4808fb17fdf9ccf5ba916c62cf0258df7ff5a3409fbca6253f48791348c0f8",
      "blockNumber": "0x7d1ace",
      "gasUsed": "0x262a5",
      "effectiveGasPrice": "0x54d41aa8c",
      "from": "0xe122ca6c3413fbbf11a05f6ddbfc19d04ec407ed",
      "to": "0xeddcb9a05bc9bc62334e2a6ae57883831c6c5786",
      "contractAddress": null
    },
    {
      "status": "0x1",
      "cumulativeGasUsed": "0xa2589c",
      "logs": [
        {
          "address": "0xeddcb9a05bc9bc62334e2a6ae57883831c6c5786",
          "topics": [
            "0xddf252ad1be2c89b69c2b068fc378daa952ba7f163c4a11628f55a4df523b3ef",
            "0x0000000000000000000000000000000000000000000000000000000000000000",
            "0x000000000000000000000000e122ca6c3413fbbf11a05f6ddbfc19d04ec407ed",
            "0x000000000000000000000000000000000000000000000000000000000000005f"
          ],
          "data": "0x",
          "blockHash": "0xed4808fb17fdf9ccf5ba916c62cf0258df7ff5a3409fbca6253f48791348c0f8",
          "blockNumber": "0x7d1ace",
          "transactionHash": "0x7bc8907e66e2c8ab71fe8324d4d35d5351d39e3426a8779dc4f9c9c4b526cc88",
          "transactionIndex": "0x68",
          "logIndex": "0xc0",
          "removed": false
        },
        {
          "address": "0xeddcb9a05bc9bc62334e2a6ae57883831c6c5786",
          "topics": [
            "0x8c80d3818fbee183872bd2b8065ec5028ca77e38627fa885dc700538365e6692",
            "0x000000000000000000000000000000000000000000000000000000000000005f",
            "0x000000000000000000000000e122ca6c3413fbbf11a05f6ddbfc19d04ec407ed"
          ],
          "data": "0x000000000000000000000000000000000000000000000000000000000000004000000000000000000000000000000000000000000000000000000000000000800000000000000000000000000000000000000000000000000000000000000007546572726174730000000000000000000000000000000000000000000000000000000000000000000000000000000000000000000000000000000000000000064765746166650000000000000000000000000000000000000000000000000000",
          "blockHash": "0xed4808fb17fdf9ccf5ba916c62cf0258df7ff5a3409fbca6253f48791348c0f8",
          "blockNumber": "0x7d1ace",
          "transactionHash": "0x7bc8907e66e2c8ab71fe8324d4d35d5351d39e3426a8779dc4f9c9c4b526cc88",
          "transactionIndex": "0x68",
          "logIndex": "0xc1",
          "removed": false
        }
      ],
      "logsBloom": "0x00000000000000000000000000000000000000000000000000000000000000000000000000000000000000000000000000000000000000000000000000000000000000000020000000000008020000000000000000000000000000000000010000000000020001000000000800000800400000000000000000000410000000001000000000000000000000000000000000200000000000000000000000000000000008000000000000000000000000000000000000000000000000000000000000000002010000000000000000000000010000000000000000000000000020000000000000000000000000000000000000000000000000000000000000000000",
      "type": "0x2",
      "transactionHash": "0x7bc8907e66e2c8ab71fe8324d4d35d5351d39e3426a8779dc4f9c9c4b526cc88",
      "transactionIndex": "0x68",
      "blockHash": "0xed4808fb17fdf9ccf5ba916c62cf0258df7ff5a3409fbca6253f48791348c0f8",
      "blockNumber": "0x7d1ace",
      "gasUsed": "0x262a5",
      "effectiveGasPrice": "0x54d41aa8c",
      "from": "0xe122ca6c3413fbbf11a05f6ddbfc19d04ec407ed",
      "to": "0xeddcb9a05bc9bc62334e2a6ae57883831c6c5786",
      "contractAddress": null
    },
    {
      "status": "0x1",
      "cumulativeGasUsed": "0xa4bb89",
      "logs": [
        {
          "address": "0xeddcb9a05bc9bc62334e2a6ae57883831c6c5786",
          "topics": [
            "0xddf252ad1be2c89b69c2b068fc378daa952ba7f163c4a11628f55a4df523b3ef",
            "0x0000000000000000000000000000000000000000000000000000000000000000",
            "0x000000000000000000000000e122ca6c3413fbbf11a05f6ddbfc19d04ec407ed",
            "0x0000000000000000000000000000000000000000000000000000000000000060"
          ],
          "data": "0x",
          "blockHash": "0xed4808fb17fdf9ccf5ba916c62cf0258df7ff5a3409fbca6253f48791348c0f8",
          "blockNumber": "0x7d1ace",
          "transactionHash": "0x6c4e6696c5533acaf95a5228bd5774144f6858641c228240c863fe17b495f9a7",
          "transactionIndex": "0x69",
          "logIndex": "0xc2",
          "removed": false
        },
        {
          "address": "0xeddcb9a05bc9bc62334e2a6ae57883831c6c5786",
          "topics": [
            "0x8c80d3818fbee183872bd2b8065ec5028ca77e38627fa885dc700538365e6692",
            "0x0000000000000000000000000000000000000000000000000000000000000060",
            "0x000000000000000000000000e122ca6c3413fbbf11a05f6ddbfc19d04ec407ed"
          ],
          "data": "0x00000000000000000000000000000000000000000000000000000000000000400000000000000000000000000000000000000000000000000000000000000080000000000000000000000000000000000000000000000000000000000000000b4a6f616e204761726369610000000000000000000000000000000000000000000000000000000000000000000000000000000000000000000000000000000008457370616e796f6c000000000000000000000000000000000000000000000000",
          "blockHash": "0xed4808fb17fdf9ccf5ba916c62cf0258df7ff5a3409fbca6253f48791348c0f8",
          "blockNumber": "0x7d1ace",
          "transactionHash": "0x6c4e6696c5533acaf95a5228bd5774144f6858641c228240c863fe17b495f9a7",
          "transactionIndex": "0x69",
          "logIndex": "0xc3",
          "removed": false
        }
      ],
      "logsBloom": "0x00000000000000000000000000200000000000000000000000000000000000000000000000000000000000000000000000200000000000000000000000000000000000000000000000000008000000000000000000000000000000000000010000000000020001000000000800000800000000000000000000000410000000001000000000000000000000000000000000200000000000000000000000000000000008000000000000000000000000000000000000000000000000000000000000000002010000800000000000000000010000000000000000000000000020000000000000000000000000000000000000000000000000000000000000000000",
      "type": "0x2",
      "transactionHash": "0x6c4e6696c5533acaf95a5228bd5774144f6858641c228240c863fe17b495f9a7",
      "transactionIndex": "0x69",
      "blockHash": "0xed4808fb17fdf9ccf5ba916c62cf0258df7ff5a3409fbca6253f48791348c0f8",
      "blockNumber": "0x7d1ace",
      "gasUsed": "0x262ed",
      "effectiveGasPrice": "0x54d41aa8c",
      "from": "0xe122ca6c3413fbbf11a05f6ddbfc19d04ec407ed",
      "to": "0xeddcb9a05bc9bc62334e2a6ae57883831c6c5786",
      "contractAddress": null
    },
    {
      "status": "0x1",
      "cumulativeGasUsed": "0xa71e9a",
      "logs": [
        {
          "address": "0xeddcb9a05bc9bc62334e2a6ae57883831c6c5786",
          "topics": [
            "0xddf252ad1be2c89b69c2b068fc378daa952ba7f163c4a11628f55a4df523b3ef",
            "0x0000000000000000000000000000000000000000000000000000000000000000",
            "0x000000000000000000000000e122ca6c3413fbbf11a05f6ddbfc19d04ec407ed",
            "0x0000000000000000000000000000000000000000000000000000000000000061"
          ],
          "data": "0x",
          "blockHash": "0xed4808fb17fdf9ccf5ba916c62cf0258df7ff5a3409fbca6253f48791348c0f8",
          "blockNumber": "0x7d1ace",
          "transactionHash": "0x1021ff28f489b2a0226a3a34322b1689aa92ac0ce71f0340b9afa7059910619d",
          "transactionIndex": "0x6a",
          "logIndex": "0xc4",
          "removed": false
        },
        {
          "address": "0xeddcb9a05bc9bc62334e2a6ae57883831c6c5786",
          "topics": [
            "0x8c80d3818fbee183872bd2b8065ec5028ca77e38627fa885dc700538365e6692",
            "0x0000000000000000000000000000000000000000000000000000000000000061",
            "0x000000000000000000000000e122ca6c3413fbbf11a05f6ddbfc19d04ec407ed"
          ],
          "data": "0x00000000000000000000000000000000000000000000000000000000000000400000000000000000000000000000000000000000000000000000000000000080000000000000000000000000000000000000000000000000000000000000000e4f6d617220456c2048696c616c690000000000000000000000000000000000000000000000000000000000000000000000000000000000000000000000000008457370616e796f6c000000000000000000000000000000000000000000000000",
          "blockHash": "0xed4808fb17fdf9ccf5ba916c62cf0258df7ff5a3409fbca6253f48791348c0f8",
          "blockNumber": "0x7d1ace",
          "transactionHash": "0x1021ff28f489b2a0226a3a34322b1689aa92ac0ce71f0340b9afa7059910619d",
          "transactionIndex": "0x6a",
          "logIndex": "0xc5",
          "removed": false
        }
      ],
      "logsBloom": "0x00000000000000000000000000000000000000002000000000000000000000000000000000000000000000000000000000000000000000000000000000000000000000000000000000000008000000000000000000000000000000000000010000000000020001000000000800000800000000000000000000000410000000001000000000000000000000000000000000200000000000000000000000000000000008000000000000000000000000000000000000000000000000000000000000000002010000000000000000000004010000000000000000000000000020000000100000000000000000000000000000000000000000000000000000000000",
      "type": "0x2",
      "transactionHash": "0x1021ff28f489b2a0226a3a34322b1689aa92ac0ce71f0340b9afa7059910619d",
      "transactionIndex": "0x6a",
      "blockHash": "0xed4808fb17fdf9ccf5ba916c62cf0258df7ff5a3409fbca6253f48791348c0f8",
      "blockNumber": "0x7d1ace",
      "gasUsed": "0x26311",
      "effectiveGasPrice": "0x54d41aa8c",
      "from": "0xe122ca6c3413fbbf11a05f6ddbfc19d04ec407ed",
      "to": "0xeddcb9a05bc9bc62334e2a6ae57883831c6c5786",
      "contractAddress": null
    },
    {
      "status": "0x1",
      "cumulativeGasUsed": "0xa98163",
      "logs": [
        {
          "address": "0xeddcb9a05bc9bc62334e2a6ae57883831c6c5786",
          "topics": [
            "0xddf252ad1be2c89b69c2b068fc378daa952ba7f163c4a11628f55a4df523b3ef",
            "0x0000000000000000000000000000000000000000000000000000000000000000",
            "0x000000000000000000000000e122ca6c3413fbbf11a05f6ddbfc19d04ec407ed",
            "0x0000000000000000000000000000000000000000000000000000000000000062"
          ],
          "data": "0x",
          "blockHash": "0xed4808fb17fdf9ccf5ba916c62cf0258df7ff5a3409fbca6253f48791348c0f8",
          "blockNumber": "0x7d1ace",
          "transactionHash": "0x5792b64d37b659e86d6b790b8a6c84d979d633f2964a5baa46bd6e57c98c8cc8",
          "transactionIndex": "0x6b",
          "logIndex": "0xc6",
          "removed": false
        },
        {
          "address": "0xeddcb9a05bc9bc62334e2a6ae57883831c6c5786",
          "topics": [
            "0x8c80d3818fbee183872bd2b8065ec5028ca77e38627fa885dc700538365e6692",
            "0x0000000000000000000000000000000000000000000000000000000000000062",
            "0x000000000000000000000000e122ca6c3413fbbf11a05f6ddbfc19d04ec407ed"
          ],
          "data": "0x0000000000000000000000000000000000000000000000000000000000000040000000000000000000000000000000000000000000000000000000000000008000000000000000000000000000000000000000000000000000000000000000084b756d62756c6c610000000000000000000000000000000000000000000000000000000000000000000000000000000000000000000000000000000000000008457370616e796f6c000000000000000000000000000000000000000000000000",
          "blockHash": "0xed4808fb17fdf9ccf5ba916c62cf0258df7ff5a3409fbca6253f48791348c0f8",
          "blockNumber": "0x7d1ace",
          "transactionHash": "0x5792b64d37b659e86d6b790b8a6c84d979d633f2964a5baa46bd6e57c98c8cc8",
          "transactionIndex": "0x6b",
          "logIndex": "0xc7",
          "removed": false
        }
      ],
      "logsBloom": "0x00000000000000000000000000000000000000000000000000000000000000000000000000000000000000000000000000000000000000000000000000000000000008000000000000000008000000000000000000000000000000000000010000000000020001000000000800000800000000000000000000000410000000001000000000000000000000000000000000200000000000000000000002000000000008000000000000000000000000000000000000000000000000000000000000000002010000000000000000000000010000000000000000000000000420000000000000000000000000000000000000000000000000000000000000000000",
      "type": "0x2",
      "transactionHash": "0x5792b64d37b659e86d6b790b8a6c84d979d633f2964a5baa46bd6e57c98c8cc8",
      "transactionIndex": "0x6b",
      "blockHash": "0xed4808fb17fdf9ccf5ba916c62cf0258df7ff5a3409fbca6253f48791348c0f8",
      "blockNumber": "0x7d1ace",
      "gasUsed": "0x262c9",
      "effectiveGasPrice": "0x54d41aa8c",
      "from": "0xe122ca6c3413fbbf11a05f6ddbfc19d04ec407ed",
      "to": "0xeddcb9a05bc9bc62334e2a6ae57883831c6c5786",
      "contractAddress": null
    },
    {
      "status": "0x1",
      "cumulativeGasUsed": "0xabe408",
      "logs": [
        {
          "address": "0xeddcb9a05bc9bc62334e2a6ae57883831c6c5786",
          "topics": [
            "0xddf252ad1be2c89b69c2b068fc378daa952ba7f163c4a11628f55a4df523b3ef",
            "0x0000000000000000000000000000000000000000000000000000000000000000",
            "0x000000000000000000000000e122ca6c3413fbbf11a05f6ddbfc19d04ec407ed",
            "0x0000000000000000000000000000000000000000000000000000000000000063"
          ],
          "data": "0x",
          "blockHash": "0xed4808fb17fdf9ccf5ba916c62cf0258df7ff5a3409fbca6253f48791348c0f8",
          "blockNumber": "0x7d1ace",
          "transactionHash": "0xc1afd85d4b6dc8cfef3071838795d77ad3cff619f3105a7529336d6c629a3002",
          "transactionIndex": "0x6c",
          "logIndex": "0xc8",
          "removed": false
        },
        {
          "address": "0xeddcb9a05bc9bc62334e2a6ae57883831c6c5786",
          "topics": [
            "0x8c80d3818fbee183872bd2b8065ec5028ca77e38627fa885dc700538365e6692",
            "0x0000000000000000000000000000000000000000000000000000000000000063",
            "0x000000000000000000000000e122ca6c3413fbbf11a05f6ddbfc19d04ec407ed"
          ],
          "data": "0x0000000000000000000000000000000000000000000000000000000000000040000000000000000000000000000000000000000000000000000000000000008000000000000000000000000000000000000000000000000000000000000000054a6f6672650000000000000000000000000000000000000000000000000000000000000000000000000000000000000000000000000000000000000000000008457370616e796f6c000000000000000000000000000000000000000000000000",
          "blockHash": "0xed4808fb17fdf9ccf5ba916c62cf0258df7ff5a3409fbca6253f48791348c0f8",
          "blockNumber": "0x7d1ace",
          "transactionHash": "0xc1afd85d4b6dc8cfef3071838795d77ad3cff619f3105a7529336d6c629a3002",
          "transactionIndex": "0x6c",
          "logIndex": "0xc9",
          "removed": false
        }
      ],
      "logsBloom": "0x00000000000000000000000000000000000000000000000000000000000000000000000000000000000000000000000000000000000000000000000000000000000000000000000000000008000000000000000000000000000000000000010000000000020001000000000800000804000000000000000000000410000000001000000000000000000000000000000000200000000000000000000000000000000008000000000000000000000000000000000000000000800000000000000000000002010000000000000000000000010000000000000000000000000020000000000000000000000000000000000000002000000000000000000000000000",
      "type": "0x2",
      "transactionHash": "0xc1afd85d4b6dc8cfef3071838795d77ad3cff619f3105a7529336d6c629a3002",
      "transactionIndex": "0x6c",
      "blockHash": "0xed4808fb17fdf9ccf5ba916c62cf0258df7ff5a3409fbca6253f48791348c0f8",
      "blockNumber": "0x7d1ace",
      "gasUsed": "0x262a5",
      "effectiveGasPrice": "0x54d41aa8c",
      "from": "0xe122ca6c3413fbbf11a05f6ddbfc19d04ec407ed",
      "to": "0xeddcb9a05bc9bc62334e2a6ae57883831c6c5786",
      "contractAddress": null
    }
  ],
  "libraries": [
    "script/SavePlayers.s.sol:SavePlayers:0xaC8ae94Eac4809cdaAbD72eB2C0147d82b50AbD4"
  ],
  "pending": [],
  "returns": {},
  "timestamp": 1745663452,
  "chain": 11155111,
  "commit": "fd8c9cd"
}