{
  "transactions": [
    {
      "hash": "0xe005b9f6b048f7ef4bd77e4fec81816a5755ceffcab03804aafdcc950b8e8e83",
      "transactionType": "CALL",
      "contractName": null,
      "contractAddress": "0xeddcb9a05bc9bc62334e2a6ae57883831c6c5786",
      "function": "mintPlayer(address,string,string)",
      "arguments": [
        "0xE122CA6C3413FbbF11a05F6DdBfC19d04EC407eD",
        "Mosquera",
        "Valencia"
      ],
      "transaction": {
        "from": "0xe122ca6c3413fbbf11a05f6ddbfc19d04ec407ed",
        "to": "0xeddcb9a05bc9bc62334e2a6ae57883831c6c5786",
        "gas": "0x37d45",
        "value": "0x0",
        "input": "0x8636ec41000000000000000000000000e122ca6c3413fbbf11a05f6ddbfc19d04ec407ed000000000000000000000000000000000000000000000000000000000000006000000000000000000000000000000000000000000000000000000000000000a000000000000000000000000000000000000000000000000000000000000000084d6f737175657261000000000000000000000000000000000000000000000000000000000000000000000000000000000000000000000000000000000000000856616c656e636961000000000000000000000000000000000000000000000000",
        "nonce": "0x8b",
        "chainId": "0xaa36a7"
      },
      "additionalContracts": [],
      "isFixedGasLimit": false
    },
    {
      "hash": "0x9f1c5a4c7953f9b4ed729c1645e2ec243f55952641c12b91efb44aea6bc99ba6",
      "transactionType": "CALL",
      "contractName": null,
      "contractAddress": "0xeddcb9a05bc9bc62334e2a6ae57883831c6c5786",
      "function": "mintPlayer(address,string,string)",
      "arguments": [
        "0xE122CA6C3413FbbF11a05F6DdBfC19d04EC407eD",
        "Guerra",
        "Valencia"
      ],
      "transaction": {
        "from": "0xe122ca6c3413fbbf11a05f6ddbfc19d04ec407ed",
        "to": "0xeddcb9a05bc9bc62334e2a6ae57883831c6c5786",
        "gas": "0x37d22",
        "value": "0x0",
        "input": "0x8636ec41000000000000000000000000e122ca6c3413fbbf11a05f6ddbfc19d04ec407ed000000000000000000000000000000000000000000000000000000000000006000000000000000000000000000000000000000000000000000000000000000a000000000000000000000000000000000000000000000000000000000000000064775657272610000000000000000000000000000000000000000000000000000000000000000000000000000000000000000000000000000000000000000000856616c656e636961000000000000000000000000000000000000000000000000",
        "nonce": "0x8c",
        "chainId": "0xaa36a7"
      },
      "additionalContracts": [],
      "isFixedGasLimit": false
    },
    {
      "hash": "0x78bfc46587e51106893152f658e3f946106cef3770be2123fc8ebdd223c2867e",
      "transactionType": "CALL",
      "contractName": null,
      "contractAddress": "0xeddcb9a05bc9bc62334e2a6ae57883831c6c5786",
      "function": "mintPlayer(address,string,string)",
      "arguments": [
        "0xE122CA6C3413FbbF11a05F6DdBfC19d04EC407eD",
        "Rioja",
        "Valencia"
      ],
      "transaction": {
        "from": "0xe122ca6c3413fbbf11a05f6ddbfc19d04ec407ed",
        "to": "0xeddcb9a05bc9bc62334e2a6ae57883831c6c5786",
        "gas": "0x34b73",
        "value": "0x0",
        "input": "0x8636ec41000000000000000000000000e122ca6c3413fbbf11a05f6ddbfc19d04ec407ed000000000000000000000000000000000000000000000000000000000000006000000000000000000000000000000000000000000000000000000000000000a0000000000000000000000000000000000000000000000000000000000000000552696f6a61000000000000000000000000000000000000000000000000000000000000000000000000000000000000000000000000000000000000000000000856616c656e636961000000000000000000000000000000000000000000000000",
        "nonce": "0x8d",
        "chainId": "0xaa36a7"
      },
      "additionalContracts": [],
      "isFixedGasLimit": false
    },
    {
      "hash": "0xda44ddcb5002b3cb6775d0c94f7aa1115b63fe54c85f36a215bbabf2162130ec",
      "transactionType": "CALL",
      "contractName": null,
      "contractAddress": "0xeddcb9a05bc9bc62334e2a6ae57883831c6c5786",
      "function": "mintPlayer(address,string,string)",
      "arguments": [
        "0xE122CA6C3413FbbF11a05F6DdBfC19d04EC407eD",
        "Gaya",
        "Valencia"
      ],
      "transaction": {
        "from": "0xe122ca6c3413fbbf11a05f6ddbfc19d04ec407ed",
        "to": "0xeddcb9a05bc9bc62334e2a6ae57883831c6c5786",
        "gas": "0x37cff",
        "value": "0x0",
        "input": "0x8636ec41000000000000000000000000e122ca6c3413fbbf11a05f6ddbfc19d04ec407ed000000000000000000000000000000000000000000000000000000000000006000000000000000000000000000000000000000000000000000000000000000a000000000000000000000000000000000000000000000000000000000000000044761796100000000000000000000000000000000000000000000000000000000000000000000000000000000000000000000000000000000000000000000000856616c656e636961000000000000000000000000000000000000000000000000",
        "nonce": "0x8e",
        "chainId": "0xaa36a7"
      },
      "additionalContracts": [],
      "isFixedGasLimit": false
    },
    {
      "hash": "0x2a9594a741cf559df5ab6629162144227263e720581d7f8d3e8c1801dc2afad0",
      "transactionType": "CALL",
      "contractName": null,
      "contractAddress": "0xeddcb9a05bc9bc62334e2a6ae57883831c6c5786",
      "function": "mintPlayer(address,string,string)",
      "arguments": [
        "0xE122CA6C3413FbbF11a05F6DdBfC19d04EC407eD",
        "Sadiq",
        "Valencia"
      ],
      "transaction": {
        "from": "0xe122ca6c3413fbbf11a05f6ddbfc19d04ec407ed",
        "to": "0xeddcb9a05bc9bc62334e2a6ae57883831c6c5786",
        "gas": "0x34b73",
        "value": "0x0",
        "input": "0x8636ec41000000000000000000000000e122ca6c3413fbbf11a05f6ddbfc19d04ec407ed000000000000000000000000000000000000000000000000000000000000006000000000000000000000000000000000000000000000000000000000000000a000000000000000000000000000000000000000000000000000000000000000055361646971000000000000000000000000000000000000000000000000000000000000000000000000000000000000000000000000000000000000000000000856616c656e636961000000000000000000000000000000000000000000000000",
        "nonce": "0x8f",
        "chainId": "0xaa36a7"
      },
      "additionalContracts": [],
      "isFixedGasLimit": false
    },
    {
      "hash": "0x9aa03a391dde38bfa9aeea3eb7ac324061fa3cbc3543b136dc36ac2214046c4d",
      "transactionType": "CALL",
      "contractName": null,
      "contractAddress": "0xeddcb9a05bc9bc62334e2a6ae57883831c6c5786",
      "function": "mintPlayer(address,string,string)",
      "arguments": [
        "0xE122CA6C3413FbbF11a05F6DdBfC19d04EC407eD",
        "Karl Hein",
        "Valladolid"
      ],
      "transaction": {
        "from": "0xe122ca6c3413fbbf11a05f6ddbfc19d04ec407ed",
        "to": "0xeddcb9a05bc9bc62334e2a6ae57883831c6c5786",
        "gas": "0x34bd6",
        "value": "0x0",
        "input": "0x8636ec41000000000000000000000000e122ca6c3413fbbf11a05f6ddbfc19d04ec407ed000000000000000000000000000000000000000000000000000000000000006000000000000000000000000000000000000000000000000000000000000000a000000000000000000000000000000000000000000000000000000000000000094b61726c204865696e0000000000000000000000000000000000000000000000000000000000000000000000000000000000000000000000000000000000000a56616c6c61646f6c696400000000000000000000000000000000000000000000",
        "nonce": "0x90",
        "chainId": "0xaa36a7"
      },
      "additionalContracts": [],
      "isFixedGasLimit": false
    },
    {
      "hash": "0x37e32ed598ebc0b05c56a93827b7424497c2858ecce873884666ac56ee9fe19a",
      "transactionType": "CALL",
      "contractName": null,
      "contractAddress": "0xeddcb9a05bc9bc62334e2a6ae57883831c6c5786",
      "function": "mintPlayer(address,string,string)",
      "arguments": [
        "0xE122CA6C3413FbbF11a05F6DdBfC19d04EC407eD",
        "Moro",
        "Valladolid"
      ],
      "transaction": {
        "from": "0xe122ca6c3413fbbf11a05f6ddbfc19d04ec407ed",
        "to": "0xeddcb9a05bc9bc62334e2a6ae57883831c6c5786",
        "gas": "0x37d22",
        "value": "0x0",
        "input": "0x8636ec41000000000000000000000000e122ca6c3413fbbf11a05f6ddbfc19d04ec407ed000000000000000000000000000000000000000000000000000000000000006000000000000000000000000000000000000000000000000000000000000000a000000000000000000000000000000000000000000000000000000000000000044d6f726f00000000000000000000000000000000000000000000000000000000000000000000000000000000000000000000000000000000000000000000000a56616c6c61646f6c696400000000000000000000000000000000000000000000",
        "nonce": "0x91",
        "chainId": "0xaa36a7"
      },
      "additionalContracts": [],
      "isFixedGasLimit": false
    },
    {
      "hash": "0x5d2bb25a68c0147e06f5d9fc2b908b2286142bb0a3773894375fbe08f9e3c159",
      "transactionType": "CALL",
      "contractName": null,
      "contractAddress": "0xeddcb9a05bc9bc62334e2a6ae57883831c6c5786",
      "function": "mintPlayer(address,string,string)",
      "arguments": [
        "0xE122CA6C3413FbbF11a05F6DdBfC19d04EC407eD",
        "Marcos Andre",
        "Valladolid"
      ],
      "transaction": {
        "from": "0xe122ca6c3413fbbf11a05f6ddbfc19d04ec407ed",
        "to": "0xeddcb9a05bc9bc62334e2a6ae57883831c6c5786",
        "gas": "0x37daf",
        "value": "0x0",
        "input": "0x8636ec41000000000000000000000000e122ca6c3413fbbf11a05f6ddbfc19d04ec407ed000000000000000000000000000000000000000000000000000000000000006000000000000000000000000000000000000000000000000000000000000000a0000000000000000000000000000000000000000000000000000000000000000c4d6172636f7320416e6472650000000000000000000000000000000000000000000000000000000000000000000000000000000000000000000000000000000a56616c6c61646f6c696400000000000000000000000000000000000000000000",
        "nonce": "0x92",
        "chainId": "0xaa36a7"
      },
      "additionalContracts": [],
      "isFixedGasLimit": false
    },
    {
      "hash": "0x36a5c8cda1e8275efb38562d0cca75b9052b995aa07051ab93f2eed945271e15",
      "transactionType": "CALL",
      "contractName": null,
      "contractAddress": "0xeddcb9a05bc9bc62334e2a6ae57883831c6c5786",
      "function": "mintPlayer(address,string,string)",
      "arguments": [
        "0xE122CA6C3413FbbF11a05F6DdBfC19d04EC407eD",
        "Amallah",
        "Valladolid"
      ],
      "transaction": {
        "from": "0xe122ca6c3413fbbf11a05f6ddbfc19d04ec407ed",
        "to": "0xeddcb9a05bc9bc62334e2a6ae57883831c6c5786",
        "gas": "0x34bb5",
        "value": "0x0",
        "input": "0x8636ec41000000000000000000000000e122ca6c3413fbbf11a05f6ddbfc19d04ec407ed000000000000000000000000000000000000000000000000000000000000006000000000000000000000000000000000000000000000000000000000000000a00000000000000000000000000000000000000000000000000000000000000007416d616c6c616800000000000000000000000000000000000000000000000000000000000000000000000000000000000000000000000000000000000000000a56616c6c61646f6c696400000000000000000000000000000000000000000000",
        "nonce": "0x93",
        "chainId": "0xaa36a7"
      },
      "additionalContracts": [],
      "isFixedGasLimit": false
    },
    {
      "hash": "0x245d6fc0369f913f858a7764e2ffe00bf0c0f5d26f4ec70adb0b985e3166a238",
      "transactionType": "CALL",
      "contractName": null,
      "contractAddress": "0xeddcb9a05bc9bc62334e2a6ae57883831c6c5786",
      "function": "mintPlayer(address,string,string)",
      "arguments": [
        "0xE122CA6C3413FbbF11a05F6DdBfC19d04EC407eD",
        "Sylla",
        "Valladolid"
      ],
      "transaction": {
        "from": "0xe122ca6c3413fbbf11a05f6ddbfc19d04ec407ed",
        "to": "0xeddcb9a05bc9bc62334e2a6ae57883831c6c5786",
        "gas": "0x34b94",
        "value": "0x0",
        "input": "0x8636ec41000000000000000000000000e122ca6c3413fbbf11a05f6ddbfc19d04ec407ed000000000000000000000000000000000000000000000000000000000000006000000000000000000000000000000000000000000000000000000000000000a0000000000000000000000000000000000000000000000000000000000000000553796c6c61000000000000000000000000000000000000000000000000000000000000000000000000000000000000000000000000000000000000000000000a56616c6c61646f6c696400000000000000000000000000000000000000000000",
        "nonce": "0x94",
        "chainId": "0xaa36a7"
      },
      "additionalContracts": [],
      "isFixedGasLimit": false
    }
  ],
  "receipts": [],
  "libraries": [
    "script/SavePlayers.s.sol:SavePlayers:0xaC8ae94Eac4809cdaAbD72eB2C0147d82b50AbD4"
  ],
  "pending": [
    "0xe005b9f6b048f7ef4bd77e4fec81816a5755ceffcab03804aafdcc950b8e8e83",
    "0x9f1c5a4c7953f9b4ed729c1645e2ec243f55952641c12b91efb44aea6bc99ba6",
    "0x78bfc46587e51106893152f658e3f946106cef3770be2123fc8ebdd223c2867e",
    "0xda44ddcb5002b3cb6775d0c94f7aa1115b63fe54c85f36a215bbabf2162130ec",
    "0x2a9594a741cf559df5ab6629162144227263e720581d7f8d3e8c1801dc2afad0",
    "0x9aa03a391dde38bfa9aeea3eb7ac324061fa3cbc3543b136dc36ac2214046c4d",
    "0x37e32ed598ebc0b05c56a93827b7424497c2858ecce873884666ac56ee9fe19a",
    "0x5d2bb25a68c0147e06f5d9fc2b908b2286142bb0a3773894375fbe08f9e3c159",
    "0x36a5c8cda1e8275efb38562d0cca75b9052b995aa07051ab93f2eed945271e15",
    "0x245d6fc0369f913f858a7764e2ffe00bf0c0f5d26f4ec70adb0b985e3166a238"
  ],
  "returns": {},
  "timestamp": 1745665029,
  "chain": 11155111,
  "commit": "fd8c9cd"
}